:020000040800F2
:1000000000000420F56400081D6400081F64000857
:100010002164000823640008256400080000000033
:10002000000000000000000000000000276400083D
:1000300029640008000000002B6400082D640008FB
:1000400045650008456500084565000845650008E8
:1000500045650008456500084565000845650008D8
:1000600045650008456500084565000845650008C8
:1000700045650008456500084565000845650008B8
:1000800045650008456500084565000845650008A8
:100090004565000845650008456500084565000898
:1000A0004565000845650008456500084565000888
:1000B0004565000845650008456500084565000878
:1000C0004565000845650008456500084565000868
:1000D0004565000845650008456500084565000858
:1000E0004565000845650008456500084565000848
:1000F0004565000845650008456500084565000838
:100100004565000845650008456500084565000827
:100110004565000845650008456500084565000817
:100120004565000845650008456500084565000807
:10013000456500080000000000000000000000000D
:1001400000000000000000000000000045650008FD
:1001500045650008456500084565000845650008D7
:1001600045650008456500084565000845650008C7
:10017000456500084565000800000000000000001B
:1001800045650008456500084565000845650008A7
:100190004565000845650008000000004565000849
:1001A000000000000000000000000000456500089D
:1001B00045650008456500080000000000000000DB
:1001C000000000000000000000000000000000002F
:1001D000000000000000000000000000456500086D
:1001E00010B5054C237833B9044B13B10448AFF371
:1001F00000800123237010BD680300200000000070
:10020000E886000808B5034B1BB103490348AFF368
:10021000008008BD000000006C030020E886000894
:1002200030B504460846114681B01A4600250095AF
:100230006B4603F035FA94ED000ADDED000A70EE2E
:10024000200AC4ED000A01B030BD0000F0EE400A03
:10025000F5EE400AF1EE10FA9FED280A01DBB1EE4F
:10026000E00A704706F0C8B906F044BA06F06CB967
:10027000B5EE400AF1EE10FAD8BF9FED200A7047A4
:10028000B5EE400AF1EE10FAD8BF20EE200A704712
:1002900000B581B0B1EE400A06F0AEF9F7EE000A03
:1002A00001B030EE200AB7EE001A81EE000A00BD60
:1002B000F0EE400A9FED121AB6EE000A00EE810A37
:1002C000DFED100AB4EE600AF1EE10FA07DAB5EECF
:1002D000400AF1EE10FA04D59FED080A7047B7EE18
:1002E000000A7047B5EE400AF1EE10FACCBF9FED60
:1002F000060A9FED060AB8EEC00A7047000000002B
:10030000CDCC4C3E0100803F01000000FFFFFFFF0D
:1003100009B900207047C0F3C613C0F38232D31866
:10032000420D594302F00302C91DC908C900430C1C
:10033000D14003F00F03042B0BD0082B01BFC0F3F7
:10034000C612C0F38230821801EB0221C91DC80811
:100350007047C0F3C612C0F38230821801EB02115D
:10036000C91DC808704710B5044607F050F920466B
:1003700010BDDFF85C0840F24942016849084900B5
:100380000160DFF850080168C1F30A01914215D1FC
:10039000012000220021104308431DD0DFF8381847
:1003A00001228A6088680028FCD1DFF83028DFF855
:1003B00030380A600968994226D0FEE7002040F2F2
:1003C000514C614508BF0122E4D0002240F2524363
:1003D0009942DFD10121DEE7DFF808080168C1F3A7
:1003E0000A01B1F58A6F0FD1DFF8FC1701228A608C
:1003F00088680028FCD1DFF8E427DFF8E4370A60DA
:100400000968994200D0FEE77047DFF8C40740F260
:1004100049420168490849000160DFF8B8070168EE
:10042000C1F30A01914215D101200022002110439D
:1004300008431DD0DFF8A01701228A6088680028D1
:10044000FCD1DFF89827DFF898370A6009689942ED
:1004500026D0FEE7002040F2514C614508BF012242
:10046000E4D0002240F252439942DFD10121DEE77D
:10047000DFF870070168C1F30A01B1F58A6F0FD187
:10048000DFF8641701228A6088680028FCD1DFF851
:100490004C27DFF84C370A600968994200D0FEE724
:1004A000A3A07047DFF8280740F2494201684908D5
:1004B00049000160DFF81C070168C1F30A0191429D
:1004C00015D1012000220021104308431DD0DFF880
:1004D000081701228A6088680028FCD1DFF8FC2612
:1004E000DFF8FC360A600968994226D0FEE7002052
:1004F00040F2514C614508BF0122E4D0002240F295
:1005000052439942DFD10121DEE7DFF8D8060168C6
:10051000C1F30A01B1F58A6F0FD1DFF8CC160122C1
:100520008A6088680028FCD1DFF8B026DFF8B03692
:100530000A600968994200D0FEE70FF2C4600068C3
:100540007047DFF88C0640F24942016849084900CB
:100550000160DFF880060168C1F30A01914215D1FC
:10056000012000220021104308431DD0DFF8681647
:1005700001228A6088680028FCD1DFF86026DFF855
:1005800060360A600968994226D0FEE7002040F2F2
:10059000514C614508BF0122E4D0002240F2524391
:1005A0009942DFD10121DEE7DFF838060168C1F3A7
:1005B0000A01B1F58A6F0FD1DFF82C1601228A608B
:1005C00088680028FCD1DFF81426DFF814360A60AA
:1005D0000968994200D0FEE70FF228600068704772
:1005E000DFF8EC0540F24942016849084900016022
:1005F000DFF8E0050168C1F30A01914215D101203D
:1006000000220021104308431DD0DFF8CC15012241
:100610008A6088680028FCD1DFF8C025DFF8C03583
:100620000A600968994226D0FEE7002040F2514C4A
:10063000614508BF0122E4D0002240F252439942B2
:10064000DFD10121DEE7DFF89C050168C1F30A0173
:10065000B1F58A6F0FD1DFF8901501228A608868A2
:100660000028FCD1DFF87425DFF874350A600968CA
:10067000994200D0FEE70FF290500068704730B406
:1006800020B10168DFF86425914200D00020DFF836
:10069000401540F249440B685B085B000B60DFF8D3
:1006A00034150A68C2F30A02A24215D101210023BF
:1006B0000022194311431DD0DFF81C25012393604C
:1006C00091680029FCD1DFF81435DFF81445136078
:1006D0001268A24226D0FEE7002140F25145AA420C
:1006E00008BF0123E4D0002340F25244A242DFD1EC
:1006F0000122DEE7DFF8EC140A68C2F30A02B2F561
:100700008A6F0FD1DFF8E0240123936091680029FC
:10071000FCD1DFF8C834DFF8C84413601268A24285
:1007200000D0FEE730BC7047DFF8C01401607047AE
:100730000000000008467047704730B420B10168DF
:10074000DFF8A824914200D00020DFF8841440F2A2
:1007500049440B685B085B000B60DFF878140A689B
:10076000C2F30A02A24215D101210023002219433B
:1007700011431DD0DFF860240123936091680029A4
:10078000FCD1DFF85834DFF8584413601268A242F5
:1007900026D0FEE7002140F25145AA4208BF0123BE
:1007A000E4D0002340F25244A242DFD10122DEE72E
:1007B000DFF830140A68C2F30A02B2F58A6F0FD16B
:1007C000DFF824240123936091680029FCD1DFF82D
:1007D0000C34DFF80C4413601268A24200D0FEE72C
:1007E00020B90FF23840006830BC70470C3030BC84
:1007F00000F01CBA00281CBF0C3000F01CBA704777
:10080000F0B581B0DBB2069D0446079816462D046C
:1008100045EA036545EA00250FF204400768FFF743
:10082000A8FD24B90FF2FC3001B00068F0BDDFF87C
:10083000BC133160266000F0F7F910B90FF2CC302C
:100840000EE0DFF8AC138D4203D30FF2C432176809
:1008500007E00FF2C03000F003FA20B90FF2B83011
:10086000076800212160384601B0F0BD70B430B196
:100870000168DFF87823914208BF024600D00022C9
:10088000DFF84C1340F249440B685B085B000B60D7
:10089000DFF840130B68C3F30A03A34215D101210B
:1008A00000240023214319431DD0DFF82C330124F9
:1008B0009C6099680029FCD1DFF82043DFF82053C1
:1008C0001C601B68AB4224D0FEE7002140F2514679
:1008D000B34208BF0124E4D0002440F25245AB42A9
:1008E000DFD10123DEE7DFF8FC120B68C3F30A0354
:1008F000B3F58A6F0DD1DFF8F03201249C6099685E
:100900000029FCD1B54CB64D1C601B68AB4200D031
:10091000FEE702B1002070BC70472DE9F0470A469F
:1009200018B10168B14B994200D00020A84940F2AB
:1009300049450C68640864000C60A6490B68C3F361
:100940000A03AB4212D101210024002321431943A1
:100950001AD0A14B01249C6099680029FCD19F4CBE
:100960009F4D1C601B68AB4222D0FEE7002140F285
:100970005146B34208BF0124E7D0002440F252455B
:10098000AB42E2D10123E1E796490B68C3F30A03C6
:10099000B3F58A6F0CD1944B01249C6099680029AF
:1009A000FCD18E4C8E4D1C601B68AB4200D0FEE724
:1009B00048B30AB9112206E0D16909B9132202E04D
:1009C000D16839B9122210210C3000F034F900201E
:1009D000BDE8F08700F1140100F1240778CA81E82E
:1009E000780092E8005387E80053C26B4FF0030A87
:1009F000C0F808A03AB1916850608A4218BF002937
:100A000018BF0A46F7D1BDE8F0872DE9F04F83B053
:100A100028B10368754CA34208BF054600D00025E5
:100A20006B4840F2494403685B085B000360694817
:100A30000368C3F30A03A34212D101200024002358
:100A4000204318431AD0644B01249C609868002806
:100A5000FCD1624C624E1C601B68B34222D0FEE7A0
:100A6000002040F25147BB4208BF0124E7D00024D8
:100A700040F25246B342E2D10123E1E7594803680C
:100A8000C3F30A03B3F58A6F0CD1574B01249C6062
:100A900098680028FCD1514C514E1C601B68B34231
:100AA00000D0FEE7002D4BD0D5F8088008F00303F6
:100AB000032B02D0302211213EE00F001CBFF8684A
:100AC000002837D0788808B9212234E014000BD0F0
:100AD000E16861B3618811B9212213212CE08842B9
:100AE00002D02122022127E05FEAC8504FEA5828AD
:100AF00008F00108A96B4CBF0220002048EA00085A
:100B0000686B0A680668009271683068FFF700FC3D
:100B10000190009841680068FFF7FAFB002C02463C
:100B2000F96814BFD4F80CB04FF0000B0CE017229A
:100B3000132101E01722122105F10C0000F07BF8CF
:100B4000002003B0BDE8F08F18F0020014BFDFF8FA
:100B5000A490DFF8A4905FEAC8737B884CBFDFF8ED
:100B600094A0DFF898A000272B826F8208B9B160AB
:100B7000F16044B15FEAC87005D4009BC3F808B0C7
:100B80000098C0F80CB06B8A288A83421CD22C468D
:100B90003546019E17468846A86832464146B0440D
:100BA000C847A860204600F0DDF800983A46816802
:100BB0005846D04700EB070B608A218A401C6082B0
:100BC00080B28842E8D32546688A03B0BDE8F08F3A
:100BD000002000E0002004E000300240C2A507F43D
:100BE000CDB5E8B50010005C004C02580001C0A172
:100BF00001000101670300083507000839070008F4
:100C0000030300000100000001010000301000009B
:100C10000110000003840484021000001010000082
:100C20000000000010100000012070470146002263
:100C300008680A60704703785FEA036C04D141EAF0
:100C400002210160012070470020704710B5044662
:100C5000E1688847A068A04208BF002010BD0000DE
:100C600000B581B060B10178032909D15FF00402B9
:100C700063A106F095FE401E8041C00F01B000BD8B
:100C8000002001B000BD000042F21172811A01295A
:100C900084BFC91E0D2901D90F3945D1801A21D031
:100CA000401E21D0801E21D0401E21D0401E21D0C8
:100CB000401E21D0401E21D0401E21D0401E21D0F8
:100CC000401E21D0401E21D0401E21D0401E21D0E8
:100CD000401E21D0401E21D0401E21D0801E21D098
:100CE00012A0704712A0704712A0704727A070474B
:100CF00028A0704710A0704710A0704727A0704729
:100D00000FA0704727A0704728A070472CA07047FD
:100D10002DA070470BA070472DA070472EA07047E4
:100D200030A0704734A0704700A07047000000005A
:100D300041444400424E0000475255004C524E0080
:100D40004E4C0000534D000042F21171401A012830
:100D500084BFC01E0D2801D90F3801D10120704772
:100D60000020704730B581B00446E06B58B1206474
:100D7000256CE96828468847A868A84208BF002073
:100D800000282064F4D101B030BD0000434F4E561E
:100D90003244000044454E53450000004C53544D2E
:100DA000000000004E4F524D000000004F505449CB
:100DB0004D495A45445F434F4E56324400000000AF
:100DC0005045524D55544500504F4F4C00000000C7
:100DD00053504C495400000054494D455F44454C24
:100DE0004159000054494D455F44495354524942CA
:100DF0005554454400000000434F4E434154000009
:100E0000038404842DE9F04F81B00E9E0D9D139C48
:100E10000A98DDF82C90DDF83CB0DDF840C0DDF834
:100E200044E0371B8842DDF8488007FB09F700974C
:100E3000A5EB040A05FB0CF5ABEB0E0B06FB09F763
:100E400006FB0C860CBF9FED820AB7EE000A09FB79
:100E50000AFA06FB09F603EB86030C9E04FB09F471
:100E600009FB05F9002E0BFB07FB02EB89094DD0AE
:100E70000D46194632460346BEF1010FD3ED000A76
:100E800060EE800A4E4639DB7046DDF800C0012C6A
:100E90002CDB14F003080AD091ED001A091DD6EDE1
:100EA000001A361DB8F1010841EE210AF4D1A70855
:100EB00000F01C8091ED002A96ED001AD1ED011A88
:100EC000D6ED012A42EE010A41EEA20A91ED022A74
:100ED00096ED021AD1ED031A1031D6ED032A103621
:100EE0007F1E42EE010A41EEA20AE3D1401E06EB4C
:100EF0008A0601EB8C01CAD1CDF800C0C5ED000A0D
:100F00002D1D1B1D521E01EB8B01B5D101B0BDE89B
:100F1000F08F00002DE9F24F84B01146149FDDF8E8
:100F200058B00E9A119D1398159CDDF85CC0DDF841
:100F30003CA0109EDDF84890001BA5EB0C0E09FBB1
:100F400007BBA9EB0C0803EB8B0B049BB6FBFAF673
:100F50000AFB0EFE9A4200FB09F00CBF9FED3C0A13
:100F6000B7EE000A7D430AFB05F501EB850100257C
:100F700001EB8A070097B94266D20E920396039A54
:100F8000002A5DD00E9B049F029003EB850613465A
:100F900007EB85070191012CD6ED000A60EE800A6F
:100FA000DDF8049040DB2246BCF1010F36DB1CF07B
:100FB00003010BD0491E9BED001AD9ED001A0BF16D
:100FC000040B41EE210A09EB8A09F3D15FEA9C0088
:100FD00000F0248009EB8A019BED001AD9ED001A7C
:100FE000401E41EE210ADBED011A91ED001A01EBE2
:100FF0008A0141EE810A9BED021AD1ED001A01EB44
:101000008A0141EE210ADBED031A0BF1100B01EB13
:101010008A0991ED001A41EE810ADBD1521E09EBDB
:101020008E090BEB880BBFD16D1C0298C7ED000A2F
:101030003F1D361D5B1E0BEB800BACD10298019956
:10104000009A091D91429AD305B0BDE8F08F0000C7
:10105000000000002DE9F24F84B09246DDF84CE02C
:10106000DDF858C0189810990F9F149AAEEB0C0E2B
:101070001E46129C159DB1FBF2F91199CDF80C900A
:10108000B7FBF2F304FB03FBA7EB0309091AA4EB7C
:10109000000879430EFB0BFEDDF85CB008FB03F89B
:1010A00004FB05B4DDF810B05C4306EB84040E9E2F
:1010B0005E45DDF844B00BFB05F50CBF9FED3D0A26
:1010C000B7EE000A6F430AEB87054FF0000A002ACB
:1010D0006DD00092039A002A63D0049A0E9ECDF838
:1010E00058C002EB8A07039ACDF808E006EB8A069F
:1010F000CDF80450DDF858E0D6ED000A60EE800A25
:10110000019DBEF1010F3BDB012832DB4FEA000CF1
:1011100005EB830B5D4527D294ED001A241DD5ED18
:10112000001A2D1D5D4541EE210A1DD294ED002AC5
:10113000241D95ED001A2D1D5D4542EE010A13D2C6
:10114000D4ED001A241D95ED002A2D1D5D4541EEBC
:10115000820A09D294ED001A241DD5ED001A2D1D26
:101160005D4541EE210AD7D3BCF1010C05EB8905A1
:10117000CED1BEF1010E05EB810504EB8804C3D18D
:10118000361DDDF808C0C7ED000A3F1D521E04EBF6
:101190008C040AF1010AADD1DDF858C0DDF808E091
:1011A000019D009F05EB83057F1E009792D105B03E
:1011B000BDE8F08F000000002DE9F04F8DB0169CC7
:1011C00004B90C461E9F1D9EDDF87080DDF880E09E
:1011D0001F9D0B90BF1B1798B8F1010FDDF860C081
:1011E000AEEB050EDDF86490DDF868A0DDF86CB0BC
:1011F00014D1CDF824E00895079701900B98069636
:10120000CDF814B0CDF810A0CDF80C90CDF808C0F2
:101210000094FFF7F7FD0DB0BDE8F08F804514D1C5
:10122000CDF824E00895079701900B980696CDF825
:1012300014B0CDF810A0CDF80C90CDF808C00094F3
:10124000FFF768FE0DB0BDE8F08FCDF828E00995F6
:10125000089701900B980796CDF81880CDF814B038
:10126000CDF810A0CDF80C90CDF808C00094FFF791
:10127000F1FE0DB0BDE8F08F70470000F0B50446F8
:10128000059803EB80059FEDD90A203D08282ED252
:101290002035AB4224D2087893ED001A02EB800689
:1012A000181DA842D6ED000A00EE810A18D24B782C
:1012B00090ED001A02EB8306001DA842D6ED000A4D
:1012C00000EE810A0CD28B78C91C02EB8306031D49
:1012D000AB4290ED001AD6ED000A00EE810ADAD397
:1012E000D4ED001A31EE800A84ED000AF0BD01F061
:1012F00003000328F4D8DFE800F00335404BEFE7A4
:101300009D4280F0D4802035AB42E9D20E78181D82
:1013100002EB8607A84293ED001AD7ED000A00EE13
:10132000810ADDD24B7890ED001A02EB8306001D96
:10133000A842D6ED000A00EE810AD1D28B78C91CF2
:1013400002EB8306031DAB4290ED001AD6ED000AB6
:1013500000EE810ADAD3D4ED001A31EE800A84ED72
:10136000000AF0BD11F8010B93ED001A02EB8006A4
:101370001B1DD6ED000A00EE810A11F8010B93ED5A
:10138000001A02EB80061B1DD6ED000A00EE810A52
:1013900011F8010B93ED001A02EB80061B1D9D4214
:1013A000D6ED000A00EE810A4FD3CF7891F800E025
:1013B00002EB870C8F7803F1100093ED004A93ED58
:1013C000013A93ED022ADCED000A02EB870C4F781C
:1013D00093ED031A0B79DCED001A02EB870C02EB9C
:1013E0008E07D7ED003A4F7903EE840A02EB870EA1
:1013F000DCED002A02EB830C02EE830A8B7901EE0E
:10140000820ACF7900EE810A0831DCED000A02EB96
:10141000830C9EED001A02EB870E90ED004A00F15E
:101420001003D0ED013A9D4200EE840ADCED001A73
:1014300090ED023A01EE230A9EED002AD0ED032A38
:1014400001EE830A02EE220AAFD22035AB42BFF48E
:1014500047AF087893ED001A02EB8006181DA842EA
:10146000D6ED000A00EE810ABFF43AAF4B7890ED5A
:10147000001A02EB8306001DA842D6ED000A00EE1A
:10148000810ABFF42DAF8B78C91C02EB8306031DC4
:10149000AB4290ED001AD6ED000A00EE810AD8D3D7
:1014A000D4ED001A31EE800A84ED000AF0BDCF7849
:1014B00091F800E002EB870C8F7803F1100093EDB8
:1014C000004A93ED013A93ED022ADCED000A02EBAB
:1014D000870C4F7893ED031A0B79DCED001A02EBC1
:1014E000870C02EB8E07D7ED003A4F7903EE840AA2
:1014F00002EB870EDCED002A02EB830C02EE830A7E
:101500008B7901EE820ACF7900EE810A0831DCED99
:10151000000A02EB830C9EED001A02EB870E90EDA1
:10152000004A00F11003D0ED013A9D4200EE840A1A
:10153000DCED001A90ED023A01EE230A9EED002A3E
:10154000D0ED032A01EE830A02EE220AAFD2DAE6D8
:10155000F0B4049C9FED250A65086D0003EB85053A
:10156000AB422FD211F8016B93ED002A93ED011AD3
:10157000083306F00F07360902EB8606AB4202EB92
:10158000870CD6ED001A01EE820ADCED000A00EEAF
:10159000810A17D211F8016B93ED002A93ED011A1D
:1015A000083306F00F07360902EB8606AB4202EB62
:1015B000870CD6ED001A01EE820ADCED000A00EE7F
:1015C000810ACFD3E40709D5097893ED001A0909F8
:1015D00002EB8102D2ED000A00EE810AD0ED001A82
:1015E00031EE800A80ED000AF0BC70470000000078
:1015F0002DE9F04F9BB005466869006801684268B4
:1016000080680F68D2F800A0D0F800E04068BA689F
:101610000D92DAF80830002801932B8CDAF81010BC
:10162000DAF80C903E69D7F80C800C93AC8C0F94D0
:101630002A8DEC6ADEF80CB0CDF838B0DEF8083050
:1016400000933F68DEF800E0AB69A4B2D7F808C0A9
:101650001ABF006887680027DAF80000DEF808E0A3
:10166000D0F808A0E869002814BF0546DFF86C57D9
:10167000644200290B946FD05242CDF858901992D1
:10168000DDF838B0159610910B9815990B9A169CA9
:10169000DDF864904042D8BF0020891A594508FB04
:1016A000029228BF5946002C4ED00294019CCDF8DE
:1016B00038B0009E14939346CDF84CC0CDF848E066
:1016C000119718901791029FD9F10000A8EB09011A
:1016D000DDF844C0189ACDF800C0DDF834C0D8BF9A
:1016E0000020B14209900792149B06930D9A28BFDF
:1016F00031460A91179908915844DDF84CE00E994B
:101700000192129B0CFB00F005910EEB80020496F7
:10171000CDF80C80514602940020FFF74DFD224683
:10172000514650460AEB840AA8470C997F1E89440B
:101730008B44C9D10194DDF838B00096149BDDF8D4
:101740004CC0DDF848E0119F0B990F9A109C51187E
:101750000B91641E109497D11BB0BDE8F08F000070
:101760002DE9F04FB5B00246506900680168436842
:101770008068D1F800B02DA91F68D0F800A0436898
:101780000BF1140494E8605081E86050DBF80880A5
:10179000002BCDF80C80B96802913869FC681C9464
:1017A000DBF810500D95DBF80C400194158C129568
:1017B000948C1194158D1095948DD2F83080D2F8B8
:1017C00034E095690C95DAF808600096DAF80C10A8
:1017D000D2F83890CDF83C90D66B1B96D2F840905A
:1017E000CDF86890566C1E96D7F820C0956CD66CD4
:1017F0000CFB00FCCDF810C0D7F81C90CDF864901D
:10180000DBF800B0DBF808C0CDF860C0DAF800A063
:10181000DAF808B0CDF82CB01ABF1B68D3F808B0BE
:101820004FF0000BD369002B12BF0E93DFF8AC957D
:10183000CDF83890126DDDF804901792009B109A45
:10184000DDF848C0DDF810A07642A9EB0309914409
:1018500019FA88F2DDF83480D7F80090B2FBFCF377
:10186000119A5B1CA8EB0108A04418FA8EFE002810
:10187000BEFBF2FCD9F808E00CF1010CF244CDF803
:1018800058A000F025816D42CDF8ACC03495159676
:101890002590159D2B98349F002D2A46CCBFA94634
:1018A0004FF000091B9DAA18904232BF8446DDF814
:1018B00054C0AC441C98002800F00181A9EB0C0A2C
:1018C0002C94CDF8CCA0119A2693CDF89090CDF819
:1018D000A4C014972390149C2698299DDDF8CCA0D1
:1018E000F0464FF00009002C2346CCBF26460026C8
:1018F0000F9CE318984232BF0346149BE3182498C8
:10190000F41A04FB0AFAA84280F2CB8002FB00F72B
:1019100028462C9C249D3C1B11922296451B129814
:10192000289313942095139A0D9B139C5242D8BF71
:1019300000221B1B8B42109B3ABF0D9E351B0D4690
:10194000229C229E4443E31A289CA64280F29E8059
:10195000AD1AA4EB060C3295139D309ECDF89CB0C9
:10196000CDF884A0039C1290009F7543019E319591
:10197000029D1D919A46CDF8A8E0E3461F92319A48
:10198000DDF8BCE0DAF10001A6EB0A00D8BF0021C7
:1019900001EB0A0CB84218980EFB0C22024427985F
:1019A00034BFA6EB0A033B4600B94046DDF830E001
:1019B0005B1ADDF8C8C0BEF1010F16D10993DDF83E
:1019C00074E0CDF81CC0DDF87CC00B9B0891009042
:1019D0004146CDF818C00020CDF814E004970396D6
:1019E00002950194FFF70EFA2AE0A64512D1099359
:1019F0001D9B08911F9905930B9B069141460090F2
:101A00000020CDF81CC00497039602950194FFF7BF
:101A100081FA15E00A930C9B09911F9906930B9B81
:101A2000CDF820C0DDF874C0079141460090002039
:101A3000CDF814C00497039602950194FFF70AFBB2
:101A40000E9B2A464146404609F1010998472198D4
:101A5000DDF85CC02B462A464146484518BF0020A9
:101A600000902A98E0471299BBF1010BDDF85880ED
:101A70008A4484D10394129802951D990196DDF849
:101A80009CB00097DDF8A8E0DDF884A0139B119CC2
:101A9000209DE31813936D1E20957FF444AF1290A0
:101AA000119A14981A9B239D199C181814906D1E56
:101AB000A64423957FF40FAF11922C9C269B159A78
:101AC0001E9D259EAA181592761E25967FF4E1AEDE
:101AD00035B0BDE8F08F00002DE9F04F89B04069C6
:101AE0004FF0000E006801684268806805680E6863
:101AF00044681768F868D6F808803A69B9685043AE
:101B00002A6813684FEA535A0AF0030AC3F3C61946
:101B10005B0C03F00F0329FA0AF9042BCDF80490AB
:101B2000366814BF082BD2F80CE03A680028AB697D
:101B3000D2F80890B26809EB810667D00795059442
:101B40000691CDF810E00096039007980599046877
:101B5000A06809B10D68A968049C94B9009EB145BC
:101B600049D2B24646464F461C46154681468846EF
:101B7000B8F1000F19BF58F8040B0290002202922E
:101B800029E0009CA14536D2049C1D46164682469B
:101B90008B46009FBBF1000F334602A819BF5BF8CC
:101BA000041B0291002202920199CDF80080224686
:101BB0000429514602D1FFF7CBFC01E0FFF75EFBA1
:101BC000029AAA4449F8042BB945E3D304942B465E
:101BD000324600970FE033462A46494602A8FEF7F0
:101BE0001FFB0298A14447F8040B5745C0D3B046E9
:101BF0002346B9462A460099069C02EB880201EB6F
:101C0000840503990095491E03919ED109B0BDE852
:101C1000F08F00002DE9F04F8AB09A461546149BCC
:101C2000D0F804C06C6800948B46D3F804E0CDF87B
:101C300008E00488BBF80010BBF802204088B5F823
:101C400000E06F880025B3F800905E884FFA8AF3B1
:101C5000DBF804B0002BCDF814B0CDF810B00CBFF9
:101C6000A0468046012F0CBF00230423BEF1010FC4
:101C700004D1012F07D0C6F1000E05E0012F08BFE7
:101C80004FF0010E00D0AE464FFA8AFB0FFA8EFEDF
:101C9000BBF1000FCDF804E00CBFA3468346CB4553
:101CA00016D19DF94CE0BEF1000F0CBF914689465C
:101CB000B1450DD14FFA8AFBBBF1000F0CBF834633
:101CC000A346BEF1000F0CBF0E461646B34570D0BA
:101CD0006FF002000AB0BDE8F08F059D97000897ED
:101CE00086000796CDF818C0DDF810C0ADF80240A8
:101CF0004FEA08044FFA8AF6002E9FED371ADDF8F6
:101D000018800CBF0646BDF80260B6B14FFA8AF7DC
:101D1000002FD8ED001A95ED002A0CBF0427079F6D
:101D2000BEF1000FB84401EE821A0CBF089F0427D1
:101D3000ED19761EB7B2002FE8D1641EA4B2BEF131
:101D4000000F20EE011ADBED001A9B4400EEA11AF1
:101D500089ED001A09F104090EBF151B0D1B55432F
:101D6000002C0CEB8505C5D1CDF810C0DDF80C902A
:101D7000099E4FFA8AFCBCF1000F069DBDF8024097
:101D8000B144CDF80C90BDF800900CBF4FEA800C28
:101D90004FF0040CAC44019D0BEB850BA9F101063F
:101DA000ADF80060BDF8005055B900200AB0BDE89C
:101DB000F08FDDF800B00395ADF80080CDF82490E9
:101DC000BEF1000FDDF8089003AE358809EB8509F8
:101DD0000CBF9046884680E700000000791200089A
:101DE000F0B58BB0416909680A68496809681568E7
:101DF000546893680A68CF68D1F810E004A996681F
:101E0000ADF820E0ADF8227009962E68EF682D69D4
:101E1000B668ADF81850ADF81A7007962568E668F0
:101E20002469AD68ADF81040ADF8126005951C68E6
:101E3000DD681B69A468ADF80830039408ACADF800
:101E40000A50019490F92120009290F92030D0EDB1
:101E5000070A02AA90ED060A06A8FFF7DBFE0BB000
:101E6000F0BD00002DE9F04114460F46022C064655
:101E70002DED028B97ED008ADFEDC38A3DD3611E05
:101E80003A1D11F003000CD092ED000A02F1040299
:101E9000B4EE480AF1EE10FA58BFB0EE408A401E88
:101EA000F2D1890800F02B8092ED000AB4EE480AC6
:101EB000F1EE10FA58BFB0EE408A92ED010AB4EE8E
:101EC000480AF1EE10FA58BFB0EE408A92ED020ACD
:101ED000B4EE480AF1EE10FA58BFB0EE408A92ED27
:101EE000030A02F11002B4EE480AF1EE10FA58BFEC
:101EF000B0EE408A491ED7D101E0002C40D0B04658
:101F00004FEA040597ED000A3F1D30EE480A04F041
:101F100073FB6D1E88ED000A78EE808A08F10408D4
:101F2000F0D114F00300B7EE000A80EE280A09D0C1
:101F3000D6ED000A401E60EE800AC6ED000A06F1EA
:101F40000406F5D1A4081BD0D6ED000A641E60EE8D
:101F5000800AC6ED000A96ED011A21EE001A86ED00
:101F6000011AD6ED020A96ED031A60EE801A61EEB0
:101F7000000AC6ED021AC6ED030A06F11006E3D107
:101F8000BDEC028BBDE8F0812DE9F0430C4681B039
:101F900004EB820980461D46089E099F4C450AD2E3
:101FA0002A46214604EB86044046FFF75BFF08EB18
:101FB00087084C45F4D301B0BDE8F08370B50D46F9
:101FC000044605EB8206B54280F00A8095ED000AD2
:101FD0002D1D04F0B9FA84ED000A241DB542F5D395
:101FE00070BD000070B50D46044605EB8206B54293
:101FF00080F0148095ED000A2D1DB1EE400A04F02A
:10200000FBFAF7EE000A70EE200AB7EE001A81EE36
:10201000201A84ED001A241DB542EBD370BD0000D8
:1020200001EB8202914216D24FF0FF3391ED000A8C
:102030008446B5EE400A0CF10400F1EE10FACCBF74
:102040009FEDBD0A00EE103A091DB8EEC00A91429C
:102050008CED000AEAD3704701EB8202914216D25E
:10206000034691ED001A181DB4EE410AF1EE10FA84
:1020700058BFB0EE401AB4EE601AF1EE10FA58BF35
:10208000B0EE601A091D914283ED001AE8D3704743
:1020900001EB820291420FD2034691ED000A181D16
:1020A000B5EE400AF1EE10FAD8BF9FED370A091DD0
:1020B000914283ED000AEFD37047000001EB8202EA
:1020C00091421AD2B1EE080A0346D1ED000A181D5A
:1020D000F5EE400AF1EE10FA08DDF4EE400AF1EEFA
:1020E00010FA58BFF0EE400A02E000BFDFED260A0A
:1020F000091D9142C3ED000AE6D37047F0B50D46C5
:1021000081B005EB820604462DED048BF0EE408A8B
:10211000B542B0EE608A32D2274695ED009A3C1D5A
:10212000B5EE409AF1EE10FAB0EE490A4CBFDFED81
:10213000169AF0EE499A04F05FFAFFEE000A30EECC
:10214000200A20EE280AB5EE400AF1EE10FA05DD6D
:102150009FED0D1A79EE819A0AE000BFB0EE490AB0
:1021600004F04AFAFFEE000A30EE200A40EE289A08
:102170002D1D28EE290AB54287ED000ACCD3BDEC0F
:10218000048B01B0F0BD00000000000001EB8303F0
:10219000994220D291ED000A8446B5EE400A0CF136
:1021A0000400F1EE10FA92ED001A4CBFDFED980A30
:1021B000F0EE400AB1EE400AB5EE400AF1EE10FA38
:1021C00048BF9FED930A091D121D994241EE400A36
:1021D000CCED000ADED3704730B440690468216852
:1021E0000D686B68AA68E96828692D6853434B43FA
:1021F00061684343A8680A68146800EB8302904250
:10220000A1680FD20B4690ED000A191DB5EE400AE9
:10221000F1EE10FAD8BF9FED7E0A001D904283EDCB
:10222000000AEFD330BC704730B4406904682168BD
:102230000D686B68AA68E96828692D6853434B43A9
:1022400061684343A8680A68146800EB83029042FF
:10225000A1681AD2B1EE080A0B46D0ED000A191D8A
:10226000F5EE400AF1EE10FA08DDF4EE400AF1EE68
:1022700010FA58BFF0EE400A02E000BFDFED640A3A
:10228000001D9042C3ED000AE6D330BC7047000049
:10229000F0B581B02DED048B416990ED078AD0ED4A
:1022A000068A0E68326814686568A368E268216966
:1022B00020685D43554384684D43716804EB850590
:1022C0000A681068AC42866831D2374694ED009AAD
:1022D0003E1DB5EE409AF1EE10FAB0EE490A4CBF41
:1022E000DFED4B9AF0EE499A04F086F9FFEE000A12
:1022F00030EE200A20EE280AB5EE400AF1EE10FA80
:1023000004DD9FED431A79EE819A09E0B0EE490AA7
:1023100004F072F9FFEE000A30EE200A40EE289A2F
:10232000241D28EE290AAC4287ED000ACDD3BDEC6E
:10233000048B01B0F0BD00000100000070B44169E1
:1023400080690D682A6816687468B368F268316934
:1023500036685C4354436A684C43B16813681D682F
:102360000368986801EB84039942AA681FD2144657
:1023700091ED000A221DB5EE400AF1EE10FA90ED43
:10238000001A4CBFDFED220AF0EE400AB1EE400A1F
:10239000B5EE400AF1EE10FA48BF9FED1D0A091D87
:1023A000001D994241EE400AC4ED000ADFD370BC23
:1023B0007047000030B44069046821680D686B689C
:1023C000AA68E96828692D6853434B436168434311
:1023D000A8680A68146800EB83029042A16815D2CD
:1023E0004FF0FF330C4690ED000A211DB5EE400A78
:1023F000F1EE10FACCBF9FED070A00EE103A001D77
:10240000B8EEC00A904284ED000AEBD330BC7047AE
:10241000000000000100000070B4416990ED070A5F
:10242000D0ED060A0D682A6816687468B368F26809
:10243000316930685C43544380684C4369680A687A
:10244000136800EB84029042996816D20B4690ED17
:10245000001A191DF4EE410AF1EE10FA58BFB0EE61
:10246000601AB4EE401AF1EE10FA58BFB0EE401AFE
:10247000001D904283ED001AE8D370BC7047000045
:1024800070B54069056829680C686368A268E168EE
:102490002069246853434B436968A4684343086830
:1024A00004EB83060268B442956813D294ED000AE7
:1024B000241DB1EE400A04F09FF8F7EE000A70EE1A
:1024C000200AB7EE001A81EE201A85ED001A2D1DA4
:1024D000B442EBD370BD000070B54069056829684F
:1024E0000C686368A268E1682069246853434B4321
:1024F0006968A4684343086804EB83060268B44231
:10250000956809D294ED000A241D04F01DF885EDAC
:10251000000A2D1DB442F5D370BD70B582B040697C
:10252000046821680D68AA68019200926E681346DB
:10253000E9682869646872432D684A434243206809
:10254000A9680568A868FFF71FFD02B070BD00000C
:10255000704700002DE9F04F81B002462DED028B4F
:102560008AB0C88BB1F81CB00B680693DDF818A0D0
:102570000BFB00F30AEB8308002808EB830500FB44
:1025800000F308954E68059606EB830909EB830571
:1025900007958E68019600F08C8006EB800700247A
:1025A000824602920D46064657F8043B029A009373
:1025B0005B4641466846FDF733FE6A693346494645
:1025C000684608EB8B08FDF72BFE28699DED000A95
:1025D00009EB860980476969286A0919D1ED000A63
:1025E0000019241DBAF1010A20EE800A80ED000ACC
:1025F000DAD1019C01950299CDF80CB004EBC60725
:10260000B24604964FF000090291069DDDF8206065
:10261000DDF814B0DDF81C8054F8040B039B029A1B
:10262000009029466846FDF7FBFD0198049B59463A
:1026300042696846FDF7F4FD01989DED000A0169C5
:10264000884757F8042B039B0092029AB0EE408A09
:1026500031466846FDF7E4FD0198049B4146026A55
:102660006846FDF7DDFD01989DED000AC1688847C9
:102670000198F7EE000A70EEC80ABAF1010A20EEDE
:10268000800A41698069494491ED001A484408EE86
:10269000010A09F1040980ED000A0399049805EB89
:1026A000810506EB81060BEB800B08EB8008B3D1AC
:1026B000019988694A698A6148610AB0BDEC028B58
:1026C00001B0BDE8F08F2DE9F04F81B002460C4615
:1026D0002DED028B8AB0E08BA18B2368A76801FBEC
:1026E00000F803EB880C00FB00FA00280CEB880EC6
:1026F000D4F8048008EB8A0909EB8A0A00F0858087
:10270000009707EB800607EBC005039007924FF098
:10271000000B029001910693CDF814C0CDF810E0A3
:10272000009F0021019B0891079A069957F804EB36
:10273000CDF800E06846FDF773FD029B62694146F3
:102740006846FDF76DFD20699DED000A804756F84B
:10275000041B019B0091079A0599B0EE408A6846D8
:10276000FDF75EFD029B626949466846FDF758FD2C
:1027700020699DED000A804755F8041B019B0091DC
:10278000079A0499F0EE408A6846FDF749FD029BDE
:102790006269514608A8FDF743FD9DED080ADDED8D
:1027A000000A40EE280ACDED000AE0689DED000A1F
:1027B00080476169F7EE000AA06970EEC80A20EE52
:1027C000800A594458440BF1040B91ED001A08EEAD
:1027D000010A80ED000A0598069A019902EB81032F
:1027E000019900EB810204980592019900EB8102A6
:1027F000039902980693049208EB8008491E09EB9E
:1028000080090AEB800A03918BD1A0696169A161FB
:1028100060610AB0BDEC028B01B0BDE8F08F2DE91C
:10282000F04F81B002460C462DED028B92B0E08B4A
:10283000A18BD4F804C0236800FB00F90CEB890ECF
:10284000002801FB00FB03EB8B050EEB890805EB71
:102850008B0A08EB890605960AEB8B0BD4F82090BF
:10286000A66800F005810027119709EBC007CDF895
:10287000109009EB800910960F9706EB80070E97D2
:1028800006EBC0060096039006EB800606920290C7
:1028900001910D930C95119DCDF82CA0DDF840A071
:1028A000CDF828B0DDF83CB0CDF824C0CDF820E05C
:1028B000CDF81C80DDF83880009F0020019B069A2F
:1028C00000900D996846FDF7ABFC029B626909997F
:1028D0006846FDF7A5FC616A04989AED001ADDEDE3
:1028E000001A294490ED000AD1ED000A00EE201AEA
:1028F00071EE211ACDED001A20699DED000A804786
:102900000021019B0091069A0C99B0EE408A68461E
:10291000FDF786FC029B626908996846FDF780FC1A
:10292000606A9BED000A98ED001A2844D0ED000A79
:1029300000EE201A9DED000A31EE000A8DED000A2E
:10294000206980470021019B0091069A0B99F0EEC7
:10295000408A6846FDF764FC029B626907996846F5
:10296000FDF75EFC606A9BED000A97ED001A2844B3
:10297000D0ED000A00EE201A9DED000A31EE000AAB
:102980008DED000AE0688047606A4119D1ED000AC8
:1029900060EEA80A421948EE000A0020C2ED000AC3
:1029A000019B069A00900A996846FDF739FC029B44
:1029B000626905996846FDF733FC606A99ED000A83
:1029C00096ED001A2844D0ED000A00EE201A9DED85
:1029D000000A31EE000A8DED000A20698047616A25
:1029E000A06AB0EE408A294491ED000A8047A169AF
:1029F00028EE000A294481ED000A0C990D9A0198ED
:102A000002EB8003019801EB80020B990C92019874
:102A100001EB80020A990B9201980D9301EB800261
:102A200009990A920298039B01EB80020899099286
:102A3000029801EB800207990892029801EB80024C
:102A400005990792029801EB800204990592361DC0
:102A50003F1D2D1D0A1D5B1E09F1040908F1040824
:102A60000BF1040B0AF1040A049203937FF425AFDF
:102A7000A0696169A161606112B0BDEC028B01B017
:102A8000BDE8F08F2DE9F04F8FB00546686900680A
:102A900001680A68039243688068066841681B6899
:102AA0008268039804690294D5F818C0D3F810A07E
:102AB000CDF800C0BAF1020FA441DDF80CA0E44348
:102AC000E40FDAF808E0CDF814E018683368D0F8BD
:102AD000089008681168009AD3F808B002EB420326
:102AE000D0F808808F689B001846049304F048FFD4
:102AF0000190014600980A4601EB8006049902EB1A
:102B0000C00A104604F080FDCDF818B0CDF81C8046
:102B10000897E86900B9C3480990286A00B9C14814
:102B20000199059A009B0A900B910C96ADF8342000
:102B3000ADF83630CDF838A004B1009C95F82500EA
:102B400018B900274FF0010B03E0029F4FF0FF3B45
:102B50007F1E95F8260028B10299491E614309EBB2
:102B600081096442039EDDF808A0009DDDF8148011
:102B7000306807FB08F25F44816801EB820006A918
:102B8000FFF7E8FC24B10B99AA00484604F03FFD8A
:102B9000574509EB840901DA002FE9D524B90B99CF
:102BA000AA00484604F033FD019804F0F1FE0FB08E
:102BB000BDE8F08F2DE9F04F8FB0054668690068D9
:102BC000016842688068D1F800A01368076841680E
:102BD0008268DAF810000290D5F818E01C69CDF888
:102BE00000E0DAF80880CDF8108038681B68022C05
:102BF0000968A441D0F808B01068009AE443D3F8FB
:102C00000890D1F808808668E40FD200104603923D
:102C100004F0B6FE01900146009801EB800703998D
:102C2000019804F0F1FC002205A900239646A1E8D2
:102C30000C40A1E80C40A1E80C40CDF814B0CDF850
:102C400018800796E86900B976480890286A00B9A4
:102C500074480199009A0A91049909900B97ADF86C
:102C60003010ADF8322004B1009C95F8250018B959
:102C700000264FF0010B03E0029E4FF0FF3B761E53
:102C800095F8260028B10299491E614309EB810994
:102C90006442029FDDF80050DDF81080DAF8000091
:102CA00006FB08F25E44816801EB820005A9FFF78C
:102CB0000AFD24B10A99AA00484604F0A8FCBE42C5
:102CC00009EB840901DA002EE8D548461CB90A99B7
:102CD000AA0004F09CFC019804F05AFE0FB0BDE875
:102CE000F08F2DE9F04F91B00546686900680168E2
:102CF0000A680392436880681E68D0F800A04368A1
:102D00008168C268039804690294D5F818C0D6F89F
:102D100010E0CDF800C0BEF1020FA441DDF80CE0D8
:102D2000E443E40FDEF80880CDF814803068DAF868
:102D300000600968D0F808901868D0F8088010681A
:102D4000009AD6F808B08E6802EB420387689B00B1
:102D50001846049304F014FE01900146009801EB1C
:102D6000800A0499019804F04FFCCDF818B0CDF812
:102D70001C800897E86900B92A480990286A00B9B8
:102D8000284800990A90009AADF836100AEB8203A1
:102D900005980199CDF82CA00C93ADF834000E964F
:102DA0000F916A6A109204B1009C95F8280018B936
:102DB00000274FF0010B03E0029F4FF0FF3B7F1E07
:102DC00095F8290028B10299491E614309EB810950
:102DD0006442039EDDF808A0009DDDF81480306891
:102DE00007FB08F25F44816801EB820006A9FFF748
:102DF00016FD24B10B99AA00484604F008FC57457B
:102E000009EB840901DA002FE9D524B90B99AA004E
:102E1000484604F0FCFB019804F0BAFD11B0BDE88F
:102E2000F08F00005125000890F82410002918BFE9
:102E3000FFF7C0BE26E6000081F0004102E000BFBF
:102E400083F0004330B54FEA41044FEA430594EA6A
:102E5000050F08BF90EA020F1FBF54EA000C55EAA5
:102E6000020C7FEA645C7FEA655C00F0E2804FEA76
:102E70005454D4EB5555B8BF6D420CDD2C4480EA58
:102E8000020281EA030382EA000083EA010180EA88
:102E9000020281EA0303362D88BF30BD11F0004FD6
:102EA0004FEA01314FF4801C4CEA113102D040420C
:102EB00061EB410113F0004F4FEA03334CEA133347
:102EC00002D0524263EB430394EA050F00F0A7805F
:102ED000A4F10104D5F1200E0DDB02FA0EFC22FA5A
:102EE00005F2801841F1000103FA0EF2801843FA4E
:102EF00005F359410EE0A5F120050EF1200E012A3F
:102F000003FA0EFC28BF4CF0020C43FA05F3C0187C
:102F100051EBE37101F0004507D54FF0000EDCF1F5
:102F2000000C7EEB00006EEB0101B1F5801F1BD39E
:102F3000B1F5001F0CD349085FEA30004FEA3C0CA2
:102F400004F101044FEA445212F5800F80F09A8098
:102F5000BCF1004F08BF5FEA500C50F1000041EB9C
:102F6000045141EA050130BD5FEA4C0C404141EBA0
:102F7000010111F4801FA4F10104E9D191F0000FC7
:102F800004BF01460020B1FA81F308BF2033A3F14A
:102F90000B03B3F120020CDA0C3208DD02F1140C41
:102FA000C2F10C0201FA0CF021FA02F10CE002F17C
:102FB0001402D8BFC2F1200C01FA02F120FA0CFC75
:102FC000DCBF41EA0C019040E41AA2BF01EB0451BE
:102FD000294330BD6FEA04041F3C1CDA0C340EDCBC
:102FE00004F11404C4F1200220FA04F001FA02F3FF
:102FF00040EA030021FA04F345EA030130BDC4F1BD
:103000000C04C4F1200220FA02F001FA04F340EAB1
:103010000300294630BD21FA04F0294630BD94F062
:10302000000F83F4801306BF81F480110134013D49
:103030004EE77FEA645C18BF7FEA655C29D094EABA
:10304000050F08BF90EA020F05D054EA000C04BF38
:103050001946104630BD91EA030F1EBF0021002023
:1030600030BD5FEA545C05D14000494128BF41F0C2
:10307000004130BD14F580043CBF01F5801130BD26
:1030800001F0004545F0FE4141F470014FF00000B1
:1030900030BD7FEA645C1ABF194610467FEA655C62
:1030A0001CBF0B46024650EA013406BF52EA033504
:1030B00091EA030F41F4002130BD00BF90F0000FF2
:1030C00004BF0021704730B54FF4806404F132042E
:1030D0004FF000054FF0000150E700BF90F0000FE7
:1030E00004BF0021704730B54FF4806404F132040E
:1030F00010F0004548BF40424FF000013EE700BFDE
:1031000042004FEAE2014FEA31014FEA02701FBF6D
:1031100012F07F4393F07F4F81F06051704732F09F
:103120007F4208BF704793F07F4F04BF41F40021F6
:10313000704730B54FF4607401F0004521F0004154
:103140001CE700BF50EA010208BF704730B54FF0DE
:1031500000050AE050EA010208BF704730B511F0DF
:10316000004502D5404261EB41014FF4806404F117
:1031700032045FEA915C3FF4D8AE4FF003025FEA9D
:10318000DC0C18BF03325FEADC0C18BF033202EB21
:10319000DC02C2F1200300FA03FC20FA02F001FA7B
:1031A00003FE40EA0E0021FA02F11444BDE600BF1E
:1031B0004FEA4102B2F1E04324BFB3F5001CDCF159
:1031C000FE5C0DD901F0004C4FEAC0024CEA507091
:1031D000B2F1004F40EB830008BF20F001007047C0
:1031E00011F0804F21D113F13872BCBF01F00040C3
:1031F000704741F480114FEA5252C2F11802C2F1F5
:10320000200C10FA0CF320FA02F018BF40F0010075
:103210004FEAC1234FEAD32303FA0CFC40EA0C0027
:1032200023FA02F34FEA4303CCE77FEA625307D164
:1032300050EA01331EBF4FF0FE4040F4400070479B
:1032400001F0004040F0FE4040F40000704700BF35
:1032500053B94AB9002908BF00281CBF4FF0FF31FD
:103260004FF0FF3000F072B9ADF1080C6DE904CEFB
:1032700000F006F8DDF804E0DDE9022304B0704751
:103280002DE9F047089E04468846002B4BD18A4220
:10329000154667D9B2FA82F24AB1C2F1200701FAA3
:1032A00002F320FA07F7954047EA030894404FEAF3
:1032B000154E230CB8FBFEF71FFA85FC0EFB178892
:1032C00043EA084307FB0CF1994209D9EB1807F1CF
:1032D000FF3080F01B81994240F21881023F2B445D
:1032E0005B1AA4B2B3FBFEF00EFB103344EA0344B6
:1032F00000FB0CFCA44509D92C1900F1FF3380F028
:103300000781A44540F2048102382C4440EA07407A
:10331000A4EB0C0400271EB1D4400023C6E90043EF
:103320003946BDE8F0878B4209D9002E00F0EB80CA
:103330000027C6E9000138463946BDE8F087B3FAF0
:1033400083F7002F47D18B4202D3824200F2FA80EA
:10335000841A61EB030301209846002EE0D0C6E9F1
:103360000048DDE702B9FFDEB2FA82F2002A40F03F
:103370008F80491B4FEA154E1FFA85F80127B1FBD4
:10338000FEFC230C0EFB1C1143EA014308FB0CF16D
:10339000994207D9EB180CF1FF3002D2994200F2A2
:1033A000CD808446591AA3B2B1FBFEF00EFB101477
:1033B00043EA044408FB00F8A04507D92C1900F1A2
:1033C000FF3302D2A04500F2B6801846A4EB0804F1
:1033D00040EA0C409FE7C7F1200CBB4022FA0CFEEC
:1033E0004EEA030E01FA07F420FA0CF521FA0CF369
:1033F0004FEA1E482543B3FBF8F92C0C08FB1933A0
:103400001FFA8EFA44EA034309FB0AF49C4202FACB
:1034100007F200FA07F10BD91EEB030309F1FF30A5
:1034200080F087809C4240F28480A9F102097344B5
:103430001B1BADB2B3FBF8F008FB103345EA0344A5
:1034400000FB0AFAA24508D91EEB040400F1FF3381
:103450006BD2A24569D90238744440EA0940A0FB06
:103460000289A4EB0A044C45C2464B4654D351D0C2
:10347000002E69D0B1EB0A0564EB030404FA0CFCDE
:10348000FD40FC404CEA0505C6E90054002747E72B
:10349000C2F1200320FA03F7954001FA02F021FA65
:1034A00003F34FEA154E3843010CB3FBFEF71FFA46
:1034B00085F80EFB173341EA034107FB08F38B4203
:1034C00004FA02F407D9691807F1FF3C2FD28B42A6
:1034D0002DD9023F2944CB1A81B2B3FBFEF00EFB7B
:1034E000103341EA034100FB08F38B4207D9691806
:1034F00000F1FF3C17D28B4215D902382944C91A72
:1035000040EA07473BE73746304609E70746E7E624
:103510001846FBE64145ABD2B8EB020A69EB0E0256
:1035200001381346A4E76046E9E7184695E7674681
:10353000D1E781467CE702382C4447E7ACF1020C26
:103540002B442FE7384608E73746E9E6704700BFC7
:1035500070B4840746D04C1E002941D0D5B2034632
:1035600002E0611EE4B30C4603F8015B9907F8D151
:10357000032C2ED9D5B245EA05250F2C45EA054581
:1035800019D9264603F11001103E0F2E41F8105CA8
:1035900041F80C5C41F8085C41F8045C01F1100151
:1035A000F2D8A4F1100121F00F0104F00F04103142
:1035B000032C0B440DD91E4621460439032946F835
:1035C000045BFAD8211F21F0030104310B4404F0FD
:1035D00003042CB1D2B21C4403F8012BA342FBD14B
:1035E00070BC70470C460346C2E7034613F8012B34
:1035F000002AFBD1181A01387047000000000000B3
:1036000001F0FF01102A2BDB10F0070F08D010F893
:10361000013B013A8B422DD010F0070F42B3F6D197
:10362000F0B441EA012141EA014122F007047FF0B0
:1036300000070023F0E80256083C85EA010586EA07
:10364000010685FA47F5A3FA87F586FA47F6A5FA43
:1036500087F68EB9EED1F0BC01F0FF0102F007024F
:1036600032B110F8013B013A83EA010313B1F8D1FA
:103670000020704701387047002D06BF35460338DB
:10368000073815F0010F07D1013015F4807F02BF14
:10369000013015F4C03F0130F0BC0138704700BF65
:1036A00010B49408DFED1E7A22E090ED007AD1ED9F
:1036B000006A27EE267A77EE877A90ED017AD1EDCF
:1036C000016A27EE267A77EE877A90ED027AD1EDBD
:1036D000026A27EE267A77EE877A90ED037AD1EDAB
:1036E000036A27EE267A77EE877A013C1031103094
:1036F000002CDAD102F003020AE090ED007AD1ED5D
:10370000006A27EE267A77EE877A013A0431043090
:10371000002AF2D1C3ED007A5DF8044B704700BF78
:103720000000000010B504460E4B18784FF47A7371
:10373000B3FBF0F30C4A1068B0FBF3F000F0A8F80C
:1037400068B90F2C01D901200AE0002221464FF070
:10375000FF3000F06BF8034B5C60002000E00120BC
:1037600010BD00BF00000020FC02002008B5094B7E
:103770001A6842F400721A601A6842F480721A6081
:10378000032000F041F80020FFF7CCFF02F0E2FD3B
:10379000002008BD003C0240034A1168034B1B781F
:1037A0000B441360704700BFA0F40020000000200D
:1037B000014B1868704700BFA0F4002038B50446DC
:1037C000FFF7F6FF0546B4F1FF3F02D0044B1B782C
:1037D0001C44FFF7EDFF401BA042FAD338BD00BFE9
:1037E000000000200048704700070201014B1868E4
:1037F000000C7047002004E0024B1868C0F30B0077
:10380000704700BF002004E00649CB6823F4E06362
:103810001B041B0C000200F4E0600343024A1A433D
:10382000CA60704700ED00E00000FA0530B4154BA7
:10383000DB68C3F30223C3F10704042C28BF04246C
:103840001D1D062D14D9033B4FF0FF3505FA04F476
:1038500021EA0401994005FA03F322EA030319431C
:10386000002807DB0901C9B2074B195430BC704767
:103870000023E9E700F00F000901C9B2034B195416
:10388000F4E700BF00ED00E000E400E014ED00E02C
:103890000138B0F1807F0AD2064B5860064AF02109
:1038A00082F823100020986007221A6070470120D8
:1038B000704700BF10E000E000ED00E0002838D0C5
:1038C00010B50446437F1BB30223637723791BBBE8
:1038D0002368194A5A612268936823F01803936099
:1038E000637913BB23684FF0FF321A612268936833
:1038F00023F0600361690B4393602268936823F0AF
:103900008003A1690B43936001236377002010BDFE
:10391000037702F037FDD7E7E268A168204600F0A0
:103920000DF80028DCD00120F1E7236822691A6134
:10393000DCE70120704700BFB71DC10430B41F246D
:10394000651E3CB105F01F0321FA03F32C4613F06A
:10395000010FF5D0182A23D8DFE802F00F22222227
:10396000222222221E222222222222221A22222243
:10397000222222220D00062D14D803685961016805
:103980008B6823F018031A438A60002030BC70470C
:10399000072DF2D90120F9E70F2DEED90120F5E727
:1039A0000120F3E70120F1E700230F2B00F2D6807E
:1039B000F0B482B039E0072200E00022B2403A437E
:1039C0000234674E46F82420664A1468EA4302EA45
:1039D00004064F6817F4803F01D045EA0406614CA5
:1039E0002660646802EA04064F6817F4003F01D0BD
:1039F00045EA04065B4C6660A46802EA04064F6868
:103A000017F4801F01D045EA0406564CA660E4680E
:103A100022404E6816F4001F01D045EA0402514CC2
:103A2000E26001330F2B00F2968001229A400C686D
:103A300004EA0205AA42F4D14C68122C18BF022CE9
:103A400010D1DE08083650F826C003F00704A7009E
:103A50000F24BC402CEA040C0C69BC4044EA0C0462
:103A600040F8264004685F000326BE40F64306EA9D
:103A7000040C4C6804F00304BC4044EA0C040460E9
:103A80004C6804F1FF3C112C18BFBCF1010F01D9A7
:103A9000122C11D1846806EA040CCC68BC4044EABC
:103AA0000C048460446824EA020C4C68C4F30012DD
:103AB0009A4042EA0C024260C26816408A68BA40E4
:103AC0003243C2604A6812F0805FAAD0264A546C22
:103AD00044F480445464526C02F480420192019A8E
:103AE0009C08A61C1E4A52F8267003F0030296009A
:103AF0000F22B24027EA02071C4A90423FF45DAF12
:103B000002F5806290421AD002F58062904218D08D
:103B100002F58062904216D002F58062904214D085
:103B200002F58062904212D002F58062904210D07D
:103B300002F5806290423FF43EAF08223EE7012248
:103B40003CE702223AE7032238E7042236E705225F
:103B500034E7062232E702B0F0BC7047704700BF7E
:103B600000380140003C01400038024000000240A3
:103B700012B90904816170478161704710B582B044
:103B80001B4B1A6C42F080521A641B6C03F080537A
:103B90000193019B174A136843F480331360FFF7C6
:103BA00007FE0446134B5B6813F4803F08D1FFF710
:103BB000FFFD001BB0F57A7FF4D9032002B010BDE1
:103BC0000C4A136843F400331360FFF7F1FD044619
:103BD000084B5B6813F4003F07D1FFF7E9FD001BBA
:103BE000B0F57A7FF4D90320E8E70020E6E700BFCC
:103BF0000038024000700040002800F0DB8170B502
:103C000082B00446036813F0010F29D0A24B9B68D1
:103C100003F00C03042B1AD09F4B9B6803F00C039A
:103C2000082B0FD06368B3F5803F40D0002B54D1F0
:103C3000994B1A6822F480321A601A6822F48022A2
:103C40001A6039E0944B5B6813F4800FEAD0924B12
:103C50001B6813F4003F03D06368002B00F0AC81B5
:103C6000236813F0020F75D08B4B9B6813F00C0F79
:103C70005ED0894B9B6803F00C03082B53D0E3689C
:103C8000002B00F08A80844A136843F0010313601C
:103C9000FFF78EFD0546804B1B6813F0020F73D1B2
:103CA000FFF786FD401B0228F5D9032087E17A4AF9
:103CB000136843F48033136063682BB3FFF778FD18
:103CC0000546754B1B6813F4003FC9D1FFF770FD23
:103CD000401B6428F5D9032071E1B3F5A02F09D06A
:103CE0006D4B1A6822F480321A601A6822F480221E
:103CF0001A60E1E7684B1A6842F480221A601A6879
:103D000042F480321A60D7E7FFF752FD0546624B56
:103D10001B6813F4003FA3D0FFF74AFD401B642843
:103D2000F5D903204BE15C4B5B6813F4800FA6D1FF
:103D3000594B1B6813F0020F04D0E368012B01D02C
:103D400001203CE1544A136823F0F803216943EA57
:103D5000C1031360236813F0080F46D0636983B36F
:103D60004D4A536F43F001035367FFF721FD0546AA
:103D7000494B5B6F13F0020F37D1FFF719FD401B62
:103D80000228F5D903201AE1434A136823F0F80307
:103D9000216943EAC1031360DCE73F4A136823F05B
:103DA00001031360FFF704FD05463B4B1B6813F04E
:103DB000020FCFD0FFF7FCFC401B0228F5D90320EF
:103DC000FDE0354A536F23F001035367FFF7F0FC22
:103DD0000546314B5B6F13F0020F06D0FFF7E8FC8E
:103DE000401B0228F5D90320E9E0236813F0040FF3
:103DF0007ED0294B1B6C13F0805F1ED1264B1A6CB2
:103E000042F080521A641B6C03F080530193019BB3
:103E10000125224B1B6813F4807F10D0A368012B6F
:103E200021D0002B3CD11C4B1A6F22F001021A67E3
:103E30001A6F22F004021A671AE00025E9E7174A10
:103E4000136843F480731360FFF7B2FC0646134B0C
:103E50001B6813F4807FE1D1FFF7AAFC801B642864
:103E6000F5D90320ABE00C4A136F43F0010313674D
:103E7000A3685BB3FFF79CFC0646074B1B6F13F070
:103E8000020F34D1FFF794FC801B41F28833984233
:103E9000F3D9032093E000BF0038024000700040D7
:103EA000052B09D0484B1A6F22F001021A671A6FCE
:103EB00022F004021A67DBE7434B1A6F42F0040258
:103EC0001A671A6F42F001021A67D1E7FFF770FC18
:103ED00006463D4B1B6F13F0020F08D0FFF768FC3E
:103EE000801B41F288339842F3D9032067E0F5B98B
:103EF000A369002B62D0344A926802F00C02082AAF
:103F00005FD0022B19D0304A136823F080731360FE
:103F1000FFF74EFC04462C4B1B6813F0007F47D084
:103F2000FFF746FC001B0228F5D9032047E0264A8C
:103F3000136C23F080531364DAE7234A136823F0E9
:103F400080731360FFF734FC05461F4B1B6813F0AA
:103F5000007F06D0FFF72CFC401B0228F5D9032078
:103F60002DE0E369226A1343626A43EA8213A26A7C
:103F70005208013A43EA0243E26A43EA026343F029
:103F80000053114A5360136843F080731360FFF7C6
:103F90000FFC04460C4B1B6813F0007F06D1FFF7A3
:103FA00007FC001B0228F5D9032008E0002006E0EA
:103FB000002004E001207047012000E0002002B052
:103FC00070BD0120FBE700BF00380240264B9B6814
:103FD00003F00C03042B44D0082B01D02348704776
:103FE0002DE9F04B204B5A6802F03F025B6813F456
:103FF000800F13D01C4B5968C1F3881100231C4853
:10400000A1FB0001FFF724F9174B5B68C3F30143E1
:1040100001335B00B0FBF3F0BDE8F08B124B5B6843
:10402000C3F388131E4600275C010025E41A65EBE4
:104030000705A90141EA9461A001001B61EB05019C
:10404000CB0043EA5073C400A01943EB07018B0275
:1040500043EA90538402204619460023FFF7F8F8FC
:10406000D2E70348704700BF003802400024F40044
:1040700040787D01002800F0A28070B50446524BC4
:104080001B6803F00F038B420CD24F4A136823F0D6
:104090000F030B431360136803F00F038B4201D02F
:1040A000012070BD236813F0020F17D013F0040F26
:1040B00004D0464A936843F4E0539360236813F0B6
:1040C000080F04D0414A936843F4604393603F4A29
:1040D000936823F0F003A068034393600D462368C0
:1040E00013F0010F31D06368012B20D0022B25D0B3
:1040F000364A126812F0020F63D034498A6822F0FF
:10410000030213438B60FFF753FB06462F4B9B685C
:1041100003F00C036268B3EB820F16D0FFF748FB85
:10412000801B41F288339842F0D90320B9E7274A2F
:10413000126812F4003FE0D10120B2E7234A12686E
:1041400012F0007FD9D10120ABE71F4B1B6803F0B1
:104150000F03AB420CD91C4A136823F00F032B4307
:104160001360136803F00F03AB4201D0012098E7FE
:10417000236813F0040F06D0144A936823F4E05325
:10418000E1680B439360236813F0080F07D00F4AD0
:10419000936823F46043216943EAC1039360FFF706
:1041A00015FF0A4B9B68C3F30313094AD35CD8403D
:1041B000084B18600020FFF7B5FA002071E70120D6
:1041C000704701206DE700BF003C0240003802400C
:1041D000F83E0208FC020020014B1868704700BF3F
:1041E000FC02002008B5FFF7F7FF044B9B68C3F300
:1041F0008223034AD35CD84008BD00BF0038024088
:10420000083F020808B5FFF7E7FF044B9B68C3F3BC
:104210004233034AD35CD84008BD00BF0038024097
:10422000083F0208F0B583B00446036813F0010F9D
:104230000CD0A44B9A6822F400029A609A68C16A72
:104240000A439A60C36AC3B1002600E000262368CF
:1042500013F4002F15D09B4AD2F88C3023F440136E
:10426000616B0B43C2F88C30636BB3F5801F06D0D3
:10427000002B00F00581002504E00126E7E7012678
:10428000F6E70025236813F4801F0FD08D4AD2F87B
:104290008C3023F44003A16B0B43C2F88C30A36B2A
:1042A000B3F5800F00F0EE8003B90125236813F009
:1042B000200F40F0E980236813F0100F0CD0814BE1
:1042C000D3F88C2022F08072C3F88C20D3F88C2095
:1042D000216B0A43C3F88C20236813F4804F08D065
:1042E000784AD2F8903023F44033E16D0B43C2F8A2
:1042F0009030236813F4004F08D0724AD2F89030FF
:1043000023F44023216E0B43C2F89030236813F44A
:10431000803F08D06B4AD2F8903023F44013616E8E
:104320000B43C2F89030236813F0400F08D0654A61
:10433000D2F8903023F00303E16B0B43C2F89030C6
:10434000236813F0800F08D05E4AD2F8903023F033
:104350000C03216C0B43C2F89030236813F4807F68
:1043600008D0584AD2F8903023F03003616C0B43E8
:10437000C2F89030236813F4007F08D0514AD2F875
:10438000903023F0C003A16C0B43C2F89030236837
:1043900013F4806F08D04B4AD2F8903023F4407366
:1043A000E16C0B43C2F89030236813F4006F08D01F
:1043B000444AD2F8903023F44063216D0B43C2F895
:1043C0009030236813F4805F08D03E4AD2F89030D2
:1043D00023F44053616D0B43C2F89030236813F40B
:1043E000005F08D0374AD2F8903023F44043A16DE3
:1043F0000B43C2F89030236813F4001F0DD0314AEC
:10440000D2F8903023F00063616F0B43C2F8903014
:10441000636FB3F1006F00F0A180236813F4802F65
:1044200008D0284AD2F8903023F04073E16E0B4355
:10443000C2F89030236813F4000F08D0214AD2F854
:10444000903023F08053A16F0B43C2F89030236863
:1044500013F0806F08D01B4AD2F8903023F000533D
:10446000E16F0B43C2F89030002E79D12368B3F18D
:10447000007F75D0002D40F0E380002003B0F0BD38
:104480000125FFE601260FE70E4B1A6C42F0805221
:104490001A641B6C03F080530193019B0A4A136852
:1044A00043F480731360FFF783F90746064B1B68DC
:1044B00013F4807F0AD1FFF77BF9C01B6428F5D97C
:1044C0000320DBE700380240007000408D4B1B6F7B
:1044D00013F4407315D0A26A02F440729A4210D0CD
:1044E000884B1A6F22F44072196F41F480311967BA
:1044F000196F21F4803119671A671B6F13F0010FD0
:1045000012D1A36A03F44072B2F5407F1DD07D4AF8
:10451000936823F4F81393607A490B6FA26AC2F38D
:104520000B0213430B67C6E6FFF742F90746754BCC
:104530001B6F13F0020FE4D1FFF73AF9C01B41F2F1
:1045400088339842F3D9032098E76E48826822F4B2
:10455000F8126D4919400A438260DDE701255CE7E6
:10456000684A136823F080631360FFF721F9064659
:10457000644B1B6813F0006F06D0FFF719F9801B1E
:104580006428F5D9032079E7236813F0010F0ED0D2
:10459000E36A63B95B4AD2F88430616803F0706300
:1045A00043EA8113A16843EA0173C2F884302368A7
:1045B00013F4002F03D0626BB2F5801F06D013F402
:1045C000801F19D0A36BB3F5800F15D14D4AD2F8D7
:1045D00084106068E3681B0643EA801301F0E04141
:1045E0000B43C2F88430D2F88C3023F01F03E1690A
:1045F00001390B43C2F88C30236813F0007F0AD0D6
:104600006268E3681B0643EA8213A26843EA027306
:104610003C4AC2F884303B4A136843F0806313601D
:10462000FFF7C6F80646374B1B6813F0006F7FF4A0
:1046300021AFFFF7BDF8801B6428F4D903201DE7E4
:10464000304A136823F080531360FFF7B1F8054632
:104650002C4B1B6813F0005F06D0FFF7A9F8401B36
:104660006428F5D9032009E7236813F4002F01D04B
:10467000626B22B113F4801F18D0A36BB3B9214A27
:10468000D2F88830216903F4403343EA8113616929
:1046900043EA0163C2F88830D2F88C3023F4F8532F
:1046A000216A013943EA0123C2F88C30236813F4EC
:1046B000001F03D0636FB3F1006F13D0114A13686A
:1046C00043F080531360FFF773F804460D4B1B68EB
:1046D00013F0005F14D1FFF76BF8001B6428F5D9C5
:1046E0000320CBE60749D1F888202069A3691B0481
:1046F00043EA801302F070621343C1F88830DDE7AB
:104700000020BBE600380240FFFCFF0F10B5044656
:1047100083680269134342691343C2691343016802
:104720000868994A024013430B602268536823F4D7
:104730004053E1680B435360A269236A1A4321681E
:104740008B6823F4306313438B6023688F4A934252
:1047500018D08F4A934228D08E4A93423DD08E4A39
:10476000934250D08D4A934262D08D4A934277D083
:104770008C4A934200F08C808B4A934200F0A080D8
:104780001023B6E0894BD3F8903003F00303032BDA
:1047900009D8DFE803F00204AD060123A9E00423F1
:1047A000A7E00823A5E01023A3E0804BD3F89030C6
:1047B00003F00C030C2B0ED8DFE803F0070D0D0DF2
:1047C000090D0D0DA90D0D0D0B00002391E0042323
:1047D0008FE008238DE010238BE0744BD3F89030EA
:1047E00003F03003102B0AD006D9202B00F0918063
:1047F000302B06D108237CE01BB9002379E0042389
:1048000077E0102375E0694BD3F8903003F0C003D4
:10481000402B09D005D9802B7DD0C02B06D1082391
:1048200067E01BB9002364E0042362E0102360E02A
:104830005E4BD3F8903003F44073B3F5807F0BD018
:1048400007D9B3F5007F68D0B3F5407F06D10823C0
:104850004FE01BB900234CE004234AE0102348E05A
:10486000524BD3F8903003F44063B3F5806F0BD014
:1048700007D9B3F5006F52D0B3F5406F06D10823C6
:1048800037E01BB9012334E0042332E0102330E089
:10489000464BD3F8903003F44053B3F5805F0BD010
:1048A00007D9B3F5005F3CD0B3F5405F06D10823CC
:1048B0001FE01BB900231CE004231AE0102318E0BA
:1048C0003A4BD3F8903003F44043B3F5804F0BD00C
:1048D00007D9B3F5004F26D0B3F5404F06D10823D2
:1048E00007E01BB9002304E0042302E0102300E0EA
:1048F0000223E269B2F5004F17D0082B00F2B38013
:10490000DFE803F0768B95B19EB1B1B1A800022328
:10491000EFE70223EDE70223EBE70223E9E70223B7
:10492000E7E70223E5E70223E3E7082B5DD8DFE8AA
:1049300003F0051F3F5C485C5C5C5300FFF752FCD2
:104940006268530803EB4003B3FBF2F39BB2002011
:10495000A3F110014FF6EF72914200F287809AB2F4
:1049600022F00F02C3F3420313432268D36050E0E6
:10497000FFF748FC6268530803EB4003B3FBF2F314
:104980009BB20020E4E700BFF369FFEF0010014095
:104990000044004000480040004C004000500040EF
:1049A0000014014000780040007C004000380240C4
:1049B0006268304B03EB5203B3FBF2F39BB200206F
:1049C000C6E7FFF703FB6268530803EB4003B3FB42
:1049D000F2F39BB20020BBE76268530803F5803313
:1049E000B3FBF2F39BB20020B2E701200023AFE754
:1049F000FFF7F8FB626800EB5203B3FBF2F39BB2E4
:104A00000020A3F110014FF6EF72914230D82268D6
:104A1000D36000232366636610BDFFF7F3FB626873
:104A200000EB5203B3FBF2F39BB20020E9E76268AC
:104A3000114B03EB5203B3FBF2F39BB20020E0E710
:104A4000FFF7C4FA626800EB5203B3FBF2F39BB2C8
:104A50000020D6E76268530803F50043B3FBF2F386
:104A60009BB20020CDE701200023CAE70120D0E758
:104A70000120CEE70048E8010024F400436A13F067
:104A8000010F06D00268536823F40033816A0B4398
:104A90005360436A13F0020F06D00268536823F490
:104AA0008033C16A0B435360436A13F0040F06D08E
:104AB0000268536823F48023016B0B435360436AFD
:104AC00013F0080F06D00268536823F40043416BCB
:104AD0000B435360436A13F0100F06D002689368CB
:104AE00023F48053816B0B439360436A13F0200FD0
:104AF00006D00268936823F40053C16B0B439360A4
:104B0000436A13F0400F0AD00268536823F48013FD
:104B1000016C0B435360036CB3F5801F0BD0436AE9
:104B200013F0800F06D00268536823F40023816CD1
:104B30000B43536070470268536823F4C003416C11
:104B40000B435360EBE72DE9F04105460F4616464F
:104B50009846069C2B68DB6937EA03030CBF0123E8
:104B60000023B3421CD1B4F1FF3FF3D0FEF720FE87
:104B7000A0EB0800A04201D8002CEBD12A681368F2
:104B800023F4D07313602A68936823F001039360C1
:104B900020236B67AB67002385F87030032000E0AB
:104BA0000020BDE8F0812DE9F04182B01E46436F40
:104BB000202B59D104460D469046B2FA82F35B0988
:104BC000002908BF0123002B53D190F87030012B2E
:104BD00051D0012380F870300023C367212343673D
:104BE000FEF7E6FD0746A4F85080A4F85280A368BB
:104BF000B3F5805F02D04FF0000810E023690BB3DB
:104C00004FF000080BE038F8023B2268C3F30803BA
:104C10009362B4F85230013B9BB2A4F85230B4F81E
:104C200052309BB28BB100963B4600228021204639
:104C3000FFF789FF08BB002DE5D015F8012B23688D
:104C40009A62E6E7A8460025E9E700963B4600227F
:104C500040212046FFF777FF034680B92022626794
:104C6000002284F8702000E00223184602B0BDE85C
:104C7000F0810123F9E70223F7E70323F5E7032394
:104C8000F3E72DE9F04383B01E46836F202B7ED1DE
:104C900004460D469046B2FA82F35B09002908BF2C
:104CA0000123002B77D190F87030012B75D00123B0
:104CB00080F870300023C36722238367FEF778FDF6
:104CC0000746A4F85880A4F85A80A368B3F5805F1B
:104CD00006D0A3B9226972B9FF22A4F85C2014E0BF
:104CE000226922B940F2FF12A4F85C200DE0FF22F5
:104CF000A4F85C2009E07F22A4F85C2005E0B3F171
:104D0000805F0AD00022A4F85C20B4F85C80B3F580
:104D1000805F0CD04FF000091DE022691AB97F2294
:104D2000A4F85C20F1E73F22A4F85C20EDE72369BA
:104D300013B14FF000090EE0A94600250BE02368EF
:104D40005B6A08EA030329F8023BB4F85A30013BD6
:104D50009BB2A4F85A30B4F85A309BB28BB100968B
:104D60003B46002220212046FFF7EDFEB8B9002D7A
:104D7000E5D023685A6A5FFA88F3134005F8013BCF
:104D8000E3E72023A367002084F8700000E00220FE
:104D900003B0BDE8F0830120FAE70220F8E7032022
:104DA000F6E710B582B004460023C367FEF700FDA6
:104DB0002268126812F0080F07D120236367A367E7
:104DC000002084F8700002B010BD6FF07E430093A5
:104DD000034600224FF400112046FFF7B4FE0028DE
:104DE000EBD00320EFE768B310B50446436F03B37D
:104DF000242363672268136823F0010313602046AD
:104E0000FFF784FC012813D0636ABBB9226853689A
:104E100023F4904353602268936823F02A0393603D
:104E20002268136843F0010313602046FFF7B9FFBF
:104E300010BD80F8703001F0BBFAD9E72046FFF7CB
:104E40001DFEE3E701207047004870470087000817
:104E5000F0B5A1B00D46FBF712FC0746003018BFB5
:104E60000120002D08BF002010B9002021B0F0BDA6
:104E7000344B0193344B0293344B0393344B0493E0
:104E8000FBF7C3FA0590FBF70DFB0690314B079338
:104E900003238DF820308DF8213000268DF8226014
:104EA0008DF8236001248DF824408DF825408DF87D
:104EB00026608DF82760FBF744FB0A90FBF790FB18
:104EC0000B90254B0C93ADF83440ADF83640ADF85F
:104ED0003840ADF83A401423ADF83C30ADF83E40D0
:104EE0004FF4407310931196ADF84840ADF84A4026
:104EF000ADF84C40ADF84E401494159616AC07F141
:104F000024030FCB84E80F001AAC07F114030FCB76
:104F100084E80F001E967B681F93FB6B43B11E9ABB
:104F200001321E929A689A4202D01346002AF5D1A5
:104F30007C2201A9284602F042FD1E98003018BFCD
:104F4000012093E7103F02081C3F0208403F02087F
:104F50005C3F0208743F0208AD93080008B5FBF7F8
:104F6000ECFB08BD00B583B000230193012300933F
:104F7000024AFBF745FC03B05DF804FB0800002083
:104F800008B5FBF773FC08BD38B50D46FBF7C5FC4B
:104F9000002849D0EA68254B996C41F0004199649A
:104FA0001A655A65996D41F00041996502F5D8314D
:104FB00019665966996E41F0004199661C49114481
:104FC00019675967996F41F0004199671949114470
:104FD000C3F88010C3F88410D3F8881041F0004162
:104FE000C3F8881014491144C3F89010C3F8941002
:104FF000EA69033222F00302816841F400718160A2
:105000000021C3F8A010C3F8A410C3F8B020C3F85F
:10501000B4203032C3F8C020C3F8C420C3F8D02075
:10502000C3F8D420012038BD0020FCE70800002090
:10503000C0B6010050B7010080B7010008B5FBF70A
:10504000E4FC08BD08B50022FBF7DFFC08BD00004A
:1050500010B50F4802F0F6FD0024002C00DD10BD55
:10506000E3010C4AD05888B100F00CFF50B1E301C5
:10507000084AD05800F06CFF030AC2B2064907483C
:1050800002F058FDE301034A0021D1500134E4E766
:105090007C3F0208940300209C3F0208B03F0208B6
:1050A0002DE9F04F9BB00990C3019F4AD35883B3B9
:1050B000EFF31484EFF30889DFF8B0B29A4B93F85A
:1050C000803063B3994B1B684FEA0318964B099ADB
:1050D00003EBC21342465968954802F02BFD14F0C9
:1050E000020F1FD101230893ABEB090A089BBAF505
:1050F000804F94BF002303F00103CBB9EFF310837B
:10510000049372B6089B13B38A4B5B4423F00303EA
:105110001BE0894802F096FD4FF0FF3049E24FF066
:105120001008D3E7854802F08DFD00230893DBE7E4
:105130004FF480425146824802F0FCFC0023089361
:10514000DCE74FF0DE3243F8042B4B45F9D3764CC5
:105150000023C4F88430C4F88830C4F88C30C4F814
:105160009030C4F89430099B04EBC31612AD06F1DD
:1051700038030FCB85E80F000EAD06F148030FCBC7
:1051800085E80F000123ADF84A306E4A1592ADF85C
:105190003A3004F19803119394F880306BB90025EC
:1051A00003954FF0FF3300260027CDF818A09A464C
:1051B000CDF82890DDF8249058E05C4B19686248DF
:1051C00002F0B8FC614B1B68986802F0D9FAE6E778
:1051D00002F064FD07EE900AF8EEE77A77EEA77A20
:1051E0009FED5B7A67EE877AB7EE007A77EEC77A43
:1051F000544B03EB8403C3ED007A0134BDF84C201B
:10520000BDF84E3003FB02F2149B03FB02F39C42F9
:10521000DED34548D0F8843043F00103C0F8843031
:105220004C4B00225A605C684FEAC9130EAA12A9BF
:10523000C05800F009FF01281CD1464B5B681C1BBD
:10524000394AD2F8843023F00103C2F88430A245F1
:1052500000D9A246039BA34200D20394361947F11A
:105260000007314B93F88030BBB1013545451DDA5D
:105270000024C3E7CDF830A0DDF818A0DDF82890B1
:10528000099BDB01284AD05800F062FE030AC2B233
:105290003149324802F04EFC0EE02E2002F062FC52
:1052A0002A4B1B68986802F06BFADEE7CDF830A055
:1052B000DDF818A0DDF82890294802F0C3FCEFF3D0
:1052C000088399450BD1089B002B51D0CAF580412A
:1052D000184B5B4423F003030022144608E0EFF36D
:1052E00008814A461F4802F025FCECE704330132EE
:1052F000072A05DC1868B0F1DE3FF7D0089CF5E717
:1053000064B9202001E0043304301A68B2F1DE3FB2
:1053100001D14B45F7D30B1A0D932BE0124802F045
:1053200009FC00230D9325E094030020F8020020DF
:10533000F43F020803C0FFFFD83F020838400208CC
:105340007840020830040020A04002080403002036
:1053500000000030001000E0BC400208B03F02082E
:105360006C430208CC4002081041020800000420EF
:1053700000230D93049B83F31088914802F062FC94
:105380002A46EB1730463946FDF762FF81468A46CA
:10539000FEF722FF80460246002348465146FDF7AD
:1053A00057FF06460F4653465B01CB46D4464A4656
:1053B000540143EAD961B4EB090961EB0A0A4FEAE7
:1053C0008A0343EA99734FEA8902CDE904BC1BEBD7
:1053D00002004CEB0301CB0043EA5073C2001046BD
:1053E000194642460023FDF733FF82468B46059B54
:1053F0005901049841EAD063DDE90401201A63EB06
:10540000010103460C46CDE906344902069B41EAF8
:10541000D351580206900791DDE90623DDE9040126
:1054200012184B41990141EA92619001801A61EB97
:105430000301CDF8188042460023DDE9048910EB12
:10544000080041EB0901FDF703FF7C014FEA461C10
:1054500044EAD663BCEB060263EB07039C0044EA14
:1054600092744FEA820E1EEB060244EB0703DC0047
:1054700044EA52744FEAC20EBAEB0E0A6BEB040B0D
:10548000D046D9464FEA481ABAEB08039A464FEA83
:105490008A02CDE90A8918EB02039A464FEACA024A
:1054A0009246BCEB06024FEA422C1CEB06039846E0
:1054B0004446A201B2EB080818EB060818EB0A02F2
:1054C000821A0699169117960A99189119923D4CCD
:1054D000099B04EBC3146768FEF778FD0646FEF7E8
:1054E0007BFE394AA2FB0613216B0191A2FB00123D
:1054F000920C00929B0C2A463946344802F01AFB63
:10550000199A1799189B4FF47A7000FB01313048B3
:1055100002F010FB039BDDE90478DB1B0C9A394693
:10552000BA1A2C4802F006FBFA1948EB0803BD181A
:1055300048EB0306710141EAD56168012A1846EB80
:105540000103BF1848EB0308C146169A00233846EA
:105550004946FDF77DFE252201461F4802F0EAFA82
:10556000226B002338464946FDF772FE1B49A1FB1A
:1055700000314909642202FB1102194802F0DAFAEB
:10558000089BCBB10D99174802F0D4FA0D48D0F81A
:105590008440D0F89430D0F88820D0F89010C4F32C
:1055A00041040194D0F88C0000900F4802F0C2FA38
:1055B00000201BB0BDE8F08F0C4802F043FBE5E78C
:1055C0006C4302089403002083DE1B43344102082D
:1055D0007C410208A4410208D44102081F85EB5116
:1055E000EC410208244202086042020840420208DC
:1055F00058B506460C460029CCBF002101210028E1
:1056000014BF0846012060B931461346A2B20848CB
:10561000FFF737FB032807D008B1002058BD20460C
:10562000FCE74FF0FF30F9E74FF0FF30F6E700BF3F
:10563000A4F4002000B583B002A8002300F8013DC7
:1056400041F288320121FFF7D3FFB0F1FF3F19D0BB
:105650009DF80730512B18BF712B15D0522B18BF56
:10566000722B15D0482B18BF682B13D03F2B13D0AB
:10567000502B18BF702B11D0582B18BF782B0FD17F
:10568000052002E0002000E0012003B05DF804FBEB
:105690000220FAE70320F8E70320F6E70420F4E706
:1056A0006420F2E770B58CB004460E460146794896
:1056B00002F040FA0022784901EBC611204600F0C2
:1056C00073FB10F0FF026CD1734AF301D5182C1D47
:1056D0002146D05800F014FC002800F0B5806F4837
:1056E00002F0B0FA69686E4802F024FA61686D4809
:1056F00002F020FAA1686C4802F01CFAE1686B48DD
:1057000002F018FA227D637DA17D0091216968482D
:1057100002F010FA227F637FA17F0091A1696548A2
:1057200002F008FA644802F08DFAA16F634802F0B3
:1057300001FA616F624802F0FDF9E16A614802F026
:10574000F9F9B4F85810B4F85A3003FB01F3E16DDD
:1057500001FB03F15C4802F0EDF9B4F86810B4F80D
:105760006A3003FB01F3E16E01FB03F1574802F0DD
:10577000E1F9628E218E564802F0DCF9228F638FA8
:10578000E56B03FB02F101FB05F1A08E98B1012846
:105790002FD010282FD032282FD0312809D04D48B3
:1057A0000AE0030A4C494D4802F0C4F94FF0FF30BB
:1057B00042E04B4800E04B480290019100954A4975
:1057C0004A4802F0B7F9B4F84820B4F84A30E56C1A
:1057D00003FB02F101FB05F1B4F8440088B1012894
:1057E0002CD010282CD032282CD0312807D0394882
:1057F00008E03F48E0E73F48DEE73F48DCE738485D
:1058000000E038480290019100953C49374802F089
:1058100091F93B4802F016FA04AC3A4D0FCD0FC493
:1058200095E80F0084E80F00F30104A91A4AD05844
:1058300000F0BCFBD8B100200CB070BD2C48E1E7F3
:105840002C48DFE72C48DDE7134CF601A05900F0A7
:105850007FFB030AC2B22C49204802F06BF9A05921
:1058600000F010FB0023A3516FF00100E4E70A4CA5
:10587000F601A05900F06CFB030AC2B22349174895
:1058800002F058F9A05900F0FDFA0023A3516FF07F
:105890000300D1E720430208940300205443020888
:1058A000704302088C430208A8430208C44302085C
:1058B000E043020808440208304402084444020855
:1058C0006444020880440208A4440208C844020850
:1058D000EC4402081843020840430208B03F0208A3
:1058E00004430208A84202080C45020824450208A5
:1058F000C0420208D8420208EC4202084C450208A5
:1059000064450208903E0208804502089845020856
:1059100038B500231A4601210E4802F00BF9002485
:1059200001E001349DB12146002000F003FA054654
:105930000028F6D00146084802F0FCF82146284627
:10594000FFF7B0FE0028ECD04FF0FF3000E0002061
:1059500038BD00BFAC450208DC45020810B514464E
:1059600010F1FF3318BF012313EAD27301D00228CC
:1059700008D14FF0FF33A2B20748FFF714F940B146
:10598000002010BD01F046FE092303604FF0FF30F8
:10599000F7E72046F5E700BFA4F4002070B584B017
:1059A000694802F04FF9012302226849684802F071
:1059B000C1F8684802F046F901230322072166482E
:1059C00002F0B8F8654AD36843F08073D360644B43
:1059D000644AC3F8B02F00225A601968624A0A4329
:1059E0001A60624B1B6B13F4805F48D05F4B1A6BDD
:1059F00042F480521A631B6B03F480530393039B9E
:105A00005B4B1C685B4802F01DF9FDF7F5FE05468F
:105A1000FDF7F2FE80B2A0F215405B2845D8DFE822
:105A200000F03C44444444444444444444444432E8
:105A30004444444444444444444444444444364434
:105A40004444384444464444444444444444444420
:105A5000444444344444404444444444444244441C
:105A60004444444444444444444444444444443A00
:105A7000444444444444444444444444443E3E48EE
:105A800002F0E0F8B2E73D4E12E03D4E10E03D4E30
:105A90000EE03D4E0CE03D4E0AE03D4E08E03D4E2E
:105AA00006E03D4E04E03D4E02E03D4E00E03D4E3E
:105AB000FDF79CFE0346324629463B4802F03AF881
:105AC0003A4B3B4A07213B4802F034F8FDF78AFE87
:105AD0000146394802F02EF8FEF77EFB3749A1FB5C
