:020000040800F2
:1000000000000420AD600008E55F0008E75F00081D
:10001000E95F0008EB5F0008ED5F000800000000EA
:10002000000000000000000000000000EF5F00087A
:10003000F15F000800000000F35F0008F55F0008B2
:10004000FD600008FD600008FD600008FD6000081C
:10005000FD600008FD600008FD600008FD6000080C
:10006000FD600008FD600008FD600008FD600008FC
:10007000FD600008FD600008FD600008FD600008EC
:10008000FD600008FD600008FD600008FD600008DC
:10009000FD600008FD600008FD600008FD600008CC
:1000A000FD600008FD600008FD600008FD600008BC
:1000B000FD600008FD600008FD600008FD600008AC
:1000C000FD600008FD600008FD600008FD6000089C
:1000D000FD600008FD600008FD600008FD6000088C
:1000E000FD600008FD600008FD600008FD6000087C
:1000F000FD600008FD600008FD600008FD6000086C
:10010000FD600008FD600008FD600008FD6000085B
:10011000FD600008FD600008FD600008FD6000084B
:10012000FD600008FD600008FD600008FD6000083B
:10013000FD6000080000000000000000000000005A
:10014000000000000000000000000000FD6000084A
:10015000FD600008FD600008FD600008FD6000080B
:10016000FD600008FD600008FD600008FD600008FB
:10017000FD600008FD6000080000000000000000B5
:10018000FD600008FD600008FD600008FD600008DB
:10019000FD600008FD60000800000000FD60000830
:1001A000000000000000000000000000FD600008EA
:1001B000FD600008FD600008000000000000000075
:1001C000000000000000000000000000000000002F
:1001D000000000000000000000000000FD600008BA
:1001E00010B5054C237833B9044B13B10448AFF371
:1001F00000800123237010BD500800200000000083
:10020000C882000808B5034B1BB103490348AFF38C
:10021000008008BD0000000054080020C8820008CB
:1002200009B900207047C0F3C613C0F38232D31857
:10023000420D594302F00302C91DC908C900430C0D
:10024000D14003F00F03042B0BD0082B01BFC0F3E8
:10025000C612C0F38230821801EB0221C91DC80802
:100260007047C0F3C612C0F38230821801EB02114E
:10027000C91DC808704710B5044605F043FF204665
:1002800010BDDFF85C0840F24942016849084900A6
:100290000160DFF850080168C1F30A01914215D1ED
:1002A000012000220021104308431DD0DFF8381838
:1002B00001228A6088680028FCD1DFF83028DFF846
:1002C00030380A600968994226D0FEE7002040F2E3
:1002D000514C614508BF0122E4D0002240F2524354
:1002E0009942DFD10121DEE7DFF808080168C1F398
:1002F0000A01B1F58A6F0FD1DFF8FC1701228A607D
:1003000088680028FCD1DFF8E427DFF8E4370A60CA
:100310000968994200D0FEE77047DFF8C40740F251
:1003200049420168490849000160DFF8B8070168DF
:10033000C1F30A01914215D101200022002110438E
:1003400008431DD0DFF8A01701228A6088680028C2
:10035000FCD1DFF89827DFF898370A6009689942DE
:1003600026D0FEE7002040F2514C614508BF012233
:10037000E4D0002240F252439942DFD10121DEE76E
:10038000DFF870070168C1F30A01B1F58A6F0FD178
:10039000DFF8641701228A6088680028FCD1DFF842
:1003A0004C27DFF84C370A600968994200D0FEE715
:1003B000A3A07047DFF8280740F2494201684908C6
:1003C00049000160DFF81C070168C1F30A0191428E
:1003D00015D1012000220021104308431DD0DFF871
:1003E000081701228A6088680028FCD1DFF8FC2603
:1003F000DFF8FC360A600968994226D0FEE7002043
:1004000040F2514C614508BF0122E4D0002240F285
:1004100052439942DFD10121DEE7DFF8D8060168B7
:10042000C1F30A01B1F58A6F0FD1DFF8CC160122B2
:100430008A6088680028FCD1DFF8B026DFF8B03683
:100440000A600968994200D0FEE70FF2C4600068B4
:100450007047DFF88C0640F24942016849084900BC
:100460000160DFF880060168C1F30A01914215D1ED
:10047000012000220021104308431DD0DFF8681638
:1004800001228A6088680028FCD1DFF86026DFF846
:1004900060360A600968994226D0FEE7002040F2E3
:1004A000514C614508BF0122E4D0002240F2524382
:1004B0009942DFD10121DEE7DFF838060168C1F398
:1004C0000A01B1F58A6F0FD1DFF82C1601228A607C
:1004D00088680028FCD1DFF81426DFF814360A609B
:1004E0000968994200D0FEE70FF228600068704763
:1004F000DFF8EC0540F24942016849084900016013
:10050000DFF8E0050168C1F30A01914215D101202D
:1005100000220021104308431DD0DFF8CC15012232
:100520008A6088680028FCD1DFF8C025DFF8C03574
:100530000A600968994226D0FEE7002040F2514C3B
:10054000614508BF0122E4D0002240F252439942A3
:10055000DFD10121DEE7DFF89C050168C1F30A0164
:10056000B1F58A6F0FD1DFF8901501228A60886893
:100570000028FCD1DFF87425DFF874350A600968BB
:10058000994200D0FEE70FF290500068704730B4F7
:1005900020B10168DFF86425914200D00020DFF827
:1005A000401540F249440B685B085B000B60DFF8C4
:1005B00034150A68C2F30A02A24215D101210023B0
:1005C0000022194311431DD0DFF81C25012393603D
:1005D00091680029FCD1DFF81435DFF81445136069
:1005E0001268A24226D0FEE7002140F25145AA42FD
:1005F00008BF0123E4D0002340F25244A242DFD1DD
:100600000122DEE7DFF8EC140A68C2F30A02B2F551
:100610008A6F0FD1DFF8E0240123936091680029ED
:10062000FCD1DFF8C834DFF8C84413601268A24276
:1006300000D0FEE730BC7047DFF8C014016070479F
:100640000000000008467047704730B420B10168D0
:10065000DFF8A824914200D00020DFF8841440F293
:1006600049440B685B085B000B60DFF878140A688C
:10067000C2F30A02A24215D101210023002219432C
:1006800011431DD0DFF86024012393609168002995
:10069000FCD1DFF85834DFF8584413601268A242E6
:1006A00026D0FEE7002140F25145AA4208BF0123AF
:1006B000E4D0002340F25244A242DFD10122DEE71F
:1006C000DFF830140A68C2F30A02B2F58A6F0FD15C
:1006D000DFF824240123936091680029FCD1DFF81E
:1006E0000C34DFF80C4413601268A24200D0FEE71D
:1006F00020B90FF23840006830BC70470C3030BC75
:1007000000F01CBA00281CBF0C3000F01CBA704767
:10071000F0B581B0DBB2069D0446079816462D045D
:1007200045EA036545EA00250FF204400768FFF734
:10073000A8FD24B90FF2FC3001B00068F0BDDFF86D
:10074000BC133160266000F0F7F910B90FF2CC301D
:100750000EE0DFF8AC138D4203D30FF2C4321768FA
:1007600007E00FF2C03000F003FA20B90FF2B83002
:10077000076800212160384601B0F0BD70B430B187
:100780000168DFF87823914208BF024600D00022BA
:10079000DFF84C1340F249440B685B085B000B60C8
:1007A000DFF840130B68C3F30A03A34215D10121FC
:1007B00000240023214319431DD0DFF82C330124EA
:1007C0009C6099680029FCD1DFF82043DFF82053B2
:1007D0001C601B68AB4224D0FEE7002140F251466A
:1007E000B34208BF0124E4D0002440F25245AB429A
:1007F000DFD10123DEE7DFF8FC120B68C3F30A0345
:10080000B3F58A6F0DD1DFF8F03201249C6099684E
:100810000029FCD1B54CB64D1C601B68AB4200D022
:10082000FEE702B1002070BC70472DE9F0470A4690
:1008300018B10168B14B994200D00020A84940F29C
:1008400049450C68640864000C60A6490B68C3F352
:100850000A03AB4212D10121002400232143194392
:100860001AD0A14B01249C6099680029FCD19F4CAF
:100870009F4D1C601B68AB4222D0FEE7002140F276
:100880005146B34208BF0124E7D0002440F252454C
:10089000AB42E2D10123E1E796490B68C3F30A03B7
:1008A000B3F58A6F0CD1944B01249C6099680029A0
:1008B000FCD18E4C8E4D1C601B68AB4200D0FEE715
:1008C00048B30AB9112206E0D16909B9132202E03E
:1008D000D16839B9122210210C3000F034F900200F
:1008E000BDE8F08700F1140100F1240778CA81E81F
:1008F000780092E8005387E80053C26B4FF0030A78
:10090000C0F808A03AB1916850608A4218BF002927
:1009100018BF0A46F7D1BDE8F0872DE9F04F83B044
:1009200028B10368754CA34208BF054600D00025D6
:100930006B4840F2494403685B085B000360694808
:100940000368C3F30A03A34212D101200024002349
:10095000204318431AD0644B01249C6098680028F7
:10096000FCD1624C624E1C601B68B34222D0FEE791
:10097000002040F25147BB4208BF0124E7D00024C9
:1009800040F25246B342E2D10123E1E759480368FD
:10099000C3F30A03B3F58A6F0CD1574B01249C6053
:1009A00098680028FCD1514C514E1C601B68B34222
:1009B00000D0FEE7002D4BD0D5F8088008F00303E7
:1009C000032B02D0302211213EE00F001CBFF8683B
:1009D000002837D0788808B9212234E014000BD0E1
:1009E000E16861B3618811B9212213212CE08842AA
:1009F00002D02122022127E05FEAC8504FEA58289E
:100A000008F00108A96B4CBF0220002048EA00084A
:100A1000686B0A680668009271683068FFF700FC2E
:100A20000190009841680068FFF7FAFB002C02462D
:100A3000F96814BFD4F80CB04FF0000B0CE017228B
:100A4000132101E01722122105F10C0000F07BF8C0
:100A5000002003B0BDE8F08F18F0020014BFDFF8EB
:100A6000A490DFF8A4905FEAC8737B884CBFDFF8DE
:100A700094A0DFF898A000272B826F8208B9B1609C
:100A8000F16044B15FEAC87005D4009BC3F808B0B8
:100A90000098C0F80CB06B8A288A83421CD22C467E
:100AA0003546019E17468846A86832464146B044FE
:100AB000C847A860204600F0DDF800983A468168F3
:100AC0005846D04700EB070B608A218A401C6082A1
:100AD00080B28842E8D32546688A03B0BDE8F08F2B
:100AE000002000E0002004E000300240C2A507F42E
:100AF000CDB5E8B50010005C004C02580001C0A163
:100B000001000101770200084506000849060008B7
:100B1000030300000100000001010000301000008C
:100B20000110000003840484021000001010000073
:100B30000000000010100000012070470146002254
:100B400008680A60704703785FEA036C04D141EAE1
:100B500002210160012070470020704710B5044653
:100B6000E1688847A068A04208BF002010BD0000CF
:100B700000B581B060B10178032909D15FF00402AA
:100B800063A105F079FC401E8041C00F01B000BD9B
:100B9000002001B000BD000042F21172811A01294B
:100BA00084BFC91E0D2901D90F3945D1801A21D022
:100BB000401E21D0801E21D0401E21D0401E21D0B9
:100BC000401E21D0401E21D0401E21D0401E21D0E9
:100BD000401E21D0401E21D0401E21D0401E21D0D9
:100BE000401E21D0401E21D0401E21D0801E21D089
:100BF00012A0704712A0704712A0704727A070473C
:100C000028A0704710A0704710A0704727A0704719
:100C10000FA0704727A0704728A070472CA07047EE
:100C20002DA070470BA070472DA070472EA07047D5
:100C300030A0704734A0704700A07047000000004B
:100C400041444400424E0000475255004C524E0071
:100C50004E4C0000534D000042F21171401A012821
:100C600084BFC01E0D2801D90F3801D10120704763
:100C70000020704730B581B00446E06B58B1206465
:100C8000256CE96828468847A868A84208BF002064
:100C900000282064F4D101B030BD0000434F4E560F
:100CA0003244000044454E53450000004C53544D1F
:100CB000000000004E4F524D000000004F505449BC
:100CC0004D495A45445F434F4E56324400000000A0
:100CD0005045524D55544500504F4F4C00000000B8
:100CE00053504C495400000054494D455F44454C15
:100CF0004159000054494D455F44495354524942BB
:100D00005554454400000000434F4E4341540000F9
:100D1000038404842DE9F04F81B00E9E0D9D139C39
:100D20000A98DDF82C90DDF83CB0DDF840C0DDF825
:100D300044E0371B8842DDF8488007FB09F700973D
:100D4000A5EB040A05FB0CF5ABEB0E0B06FB09F754
:100D500006FB0C860CBF9FED820AB7EE000A09FB6A
:100D60000AFA06FB09F603EB86030C9E04FB09F462
:100D700009FB05F9002E0BFB07FB02EB89094DD09F
:100D80000D46194632460346BEF1010FD3ED000A67
:100D900060EE800A4E4639DB7046DDF800C0012C5B
:100DA0002CDB14F003080AD091ED001A091DD6EDD2
:100DB000001A361DB8F1010841EE210AF4D1A70846
:100DC00000F01C8091ED002A96ED001AD1ED011A79
:100DD000D6ED012A42EE010A41EEA20A91ED022A65
:100DE00096ED021AD1ED031A1031D6ED032A103612
:100DF0007F1E42EE010A41EEA20AE3D1401E06EB3D
:100E00008A0601EB8C01CAD1CDF800C0C5ED000AFD
:100E10002D1D1B1D521E01EB8B01B5D101B0BDE88C
:100E2000F08F00002DE9F24F84B01146149FDDF8D9
:100E300058B00E9A119D1398159CDDF85CC0DDF832
:100E40003CA0109EDDF84890001BA5EB0C0E09FBA2
:100E500007BBA9EB0C0803EB8B0B049BB6FBFAF664
:100E60000AFB0EFE9A4200FB09F00CBF9FED3C0A04
:100E7000B7EE000A7D430AFB05F501EB850100256D
:100E800001EB8A070097B94266D20E920396039A45
:100E9000002A5DD00E9B049F029003EB850613464B
:100EA00007EB85070191012CD6ED000A60EE800A60
:100EB000DDF8049040DB2246BCF1010F36DB1CF06C
:100EC00003010BD0491E9BED001AD9ED001A0BF15E
:100ED000040B41EE210A09EB8A09F3D15FEA9C0079
:100EE00000F0248009EB8A019BED001AD9ED001A6D
:100EF000401E41EE210ADBED011A91ED001A01EBD3
:100F00008A0141EE810A9BED021AD1ED001A01EB34
:100F10008A0141EE210ADBED031A0BF1100B01EB04
:100F20008A0991ED001A41EE810ADBD1521E09EBCC
:100F30008E090BEB880BBFD16D1C0298C7ED000A20
:100F40003F1D361D5B1E0BEB800BACD10298019947
:100F5000009A091D91429AD305B0BDE8F08F0000B8
:100F6000000000002DE9F24F84B09246DDF84CE01D
:100F7000DDF858C0189810990F9F149AAEEB0C0E1C
:100F80001E46129C159DB1FBF2F91199CDF80C90FB
:100F9000B7FBF2F304FB03FBA7EB0309091AA4EB6D
:100FA000000879430EFB0BFEDDF85CB008FB03F88C
:100FB00004FB05B4DDF810B05C4306EB84040E9E20
:100FC0005E45DDF844B00BFB05F50CBF9FED3D0A17
:100FD000B7EE000A6F430AEB87054FF0000A002ABC
:100FE0006DD00092039A002A63D0049A0E9ECDF829
:100FF00058C002EB8A07039ACDF808E006EB8A0690
:10100000CDF80450DDF858E0D6ED000A60EE800A15
:10101000019DBEF1010F3BDB012832DB4FEA000CE2
:1010200005EB830B5D4527D294ED001A241DD5ED09
:10103000001A2D1D5D4541EE210A1DD294ED002AB6
:10104000241D95ED001A2D1D5D4542EE010A13D2B7
:10105000D4ED001A241D95ED002A2D1D5D4541EEAD
:10106000820A09D294ED001A241DD5ED001A2D1D17
:101070005D4541EE210AD7D3BCF1010C05EB890592
:10108000CED1BEF1010E05EB810504EB8804C3D17E
:10109000361DDDF808C0C7ED000A3F1D521E04EBE7
:1010A0008C040AF1010AADD1DDF858C0DDF808E082
:1010B000019D009F05EB83057F1E009792D105B02F
:1010C000BDE8F08F000000002DE9F04F8DB0169CB8
:1010D00004B90C461E9F1D9EDDF87080DDF880E08F
:1010E0001F9D0B90BF1B1798B8F1010FDDF860C072
:1010F000AEEB050EDDF86490DDF868A0DDF86CB0AD
:1011000014D1CDF824E00895079701900B98069626
:10111000CDF814B0CDF810A0CDF80C90CDF808C0E3
:101120000094FFF7F7FD0DB0BDE8F08F804514D1B6
:10113000CDF824E00895079701900B980696CDF816
:1011400014B0CDF810A0CDF80C90CDF808C00094E4
:10115000FFF768FE0DB0BDE8F08FCDF828E00995E7
:10116000089701900B980796CDF81880CDF814B029
:10117000CDF810A0CDF80C90CDF808C00094FFF782
:10118000F1FE0DB0BDE8F08F70470000F0B50446E9
:10119000059803EB80059FEDD90A203D08282ED243
:1011A0002035AB4224D2087893ED001A02EB80067A
:1011B000181DA842D6ED000A00EE810A18D24B781D
:1011C00090ED001A02EB8306001DA842D6ED000A3E
:1011D00000EE810A0CD28B78C91C02EB8306031D3A
:1011E000AB4290ED001AD6ED000A00EE810ADAD388
:1011F000D4ED001A31EE800A84ED000AF0BD01F052
:1012000003000328F4D8DFE800F00335404BEFE794
:101210009D4280F0D4802035AB42E9D20E78181D73
:1012200002EB8607A84293ED001AD7ED000A00EE04
:10123000810ADDD24B7890ED001A02EB8306001D87
:10124000A842D6ED000A00EE810AD1D28B78C91CE3
:1012500002EB8306031DAB4290ED001AD6ED000AA7
:1012600000EE810ADAD3D4ED001A31EE800A84ED63
:10127000000AF0BD11F8010B93ED001A02EB800695
:101280001B1DD6ED000A00EE810A11F8010B93ED4B
:10129000001A02EB80061B1DD6ED000A00EE810A43
:1012A00011F8010B93ED001A02EB80061B1D9D4205
:1012B000D6ED000A00EE810A4FD3CF7891F800E016
:1012C00002EB870C8F7803F1100093ED004A93ED49
:1012D000013A93ED022ADCED000A02EB870C4F780D
:1012E00093ED031A0B79DCED001A02EB870C02EB8D
:1012F0008E07D7ED003A4F7903EE840A02EB870E92
:10130000DCED002A02EB830C02EE830A8B7901EEFE
:10131000820ACF7900EE810A0831DCED000A02EB87
:10132000830C9EED001A02EB870E90ED004A00F14F
:101330001003D0ED013A9D4200EE840ADCED001A64
:1013400090ED023A01EE230A9EED002AD0ED032A29
:1013500001EE830A02EE220AAFD22035AB42BFF47F
:1013600047AF087893ED001A02EB8006181DA842DB
:10137000D6ED000A00EE810ABFF43AAF4B7890ED4B
:10138000001A02EB8306001DA842D6ED000A00EE0B
:10139000810ABFF42DAF8B78C91C02EB8306031DB5
:1013A000AB4290ED001AD6ED000A00EE810AD8D3C8
:1013B000D4ED001A31EE800A84ED000AF0BDCF783A
:1013C00091F800E002EB870C8F7803F1100093EDA9
:1013D000004A93ED013A93ED022ADCED000A02EB9C
:1013E000870C4F7893ED031A0B79DCED001A02EBB2
:1013F000870C02EB8E07D7ED003A4F7903EE840A93
:1014000002EB870EDCED002A02EB830C02EE830A6E
:101410008B7901EE820ACF7900EE810A0831DCED8A
:10142000000A02EB830C9EED001A02EB870E90ED92
:10143000004A00F11003D0ED013A9D4200EE840A0B
:10144000DCED001A90ED023A01EE230A9EED002A2F
:10145000D0ED032A01EE830A02EE220AAFD2DAE6C9
:10146000F0B4049C9FED250A65086D0003EB85052B
:10147000AB422FD211F8016B93ED002A93ED011AC4
:10148000083306F00F07360902EB8606AB4202EB83
:10149000870CD6ED001A01EE820ADCED000A00EEA0
:1014A000810A17D211F8016B93ED002A93ED011A0E
:1014B000083306F00F07360902EB8606AB4202EB53
:1014C000870CD6ED001A01EE820ADCED000A00EE70
:1014D000810ACFD3E40709D5097893ED001A0909E9
:1014E00002EB8102D2ED000A00EE810AD0ED001A73
:1014F00031EE800A80ED000AF0BC70470000000069
:101500002DE9F04F9BB005466869006801684268A4
:1015100080680F68D2F800A0D0F800E04068BA6890
:101520000D92DAF80830002801932B8CDAF81010AD
:10153000DAF80C903E69D7F80C800C93AC8C0F94C1
:101540002A8DEC6ADEF80CB0CDF838B0DEF8083041
:1015500000933F68DEF800E0AB69A4B2D7F808C09A
:101560001ABF006887680027DAF80000DEF808E094
:10157000D0F808A0E869002814BF0546DFF86C57CA
:10158000644200290B946FD05242CDF858901992C2
:10159000DDF838B0159610910B9815990B9A169C9A
:1015A000DDF864904042D8BF0020891A594508FBF5
:1015B000029228BF5946002C4ED00294019CCDF8CF
:1015C00038B0009E14939346CDF84CC0CDF848E057
:1015D000119718901791029FD9F10000A8EB09010B
:1015E000DDF844C0189ACDF800C0DDF834C0D8BF8B
:1015F0000020B14209900792149B06930D9A28BFD0
:1016000031460A91179908915844DDF84CE00E993B
:101610000192129B0CFB00F005910EEB80020496E8
:10162000CDF80C80514602940020FFF74DFD224674
:10163000514650460AEB840AA8470C997F1E8944FC
:101640008B44C9D10194DDF838B00096149BDDF8C5
:101650004CC0DDF848E0119F0B990F9A109C51186F
:101660000B91641E109497D11BB0BDE8F08F000061
:101670002DE9F04FB5B00246506900680168436833
:101680008068D1F800B02DA91F68D0F800A0436889
:101690000BF1140494E8605081E86050DBF8088096
:1016A000002BCDF80C80B96802913869FC681C9455
:1016B000DBF810500D95DBF80C400194158C129559
:1016C000948C1194158D1095948DD2F83080D2F8A9
:1016D00034E095690C95DAF808600096DAF80C1099
:1016E000D2F83890CDF83C90D66B1B96D2F840904B
:1016F000CDF86890566C1E96D7F820C0956CD66CC5
:101700000CFB00FCCDF810C0D7F81C90CDF864900D
:10171000DBF800B0DBF808C0CDF860C0DAF800A054
:10172000DAF808B0CDF82CB01ABF1B68D3F808B0AF
:101730004FF0000BD369002B12BF0E93DFF8AC956E
:10174000CDF83890126DDDF804901792009B109A36
:10175000DDF848C0DDF810A07642A9EB03099144FA
:1017600019FA88F2DDF83480D7F80090B2FBFCF368
:10177000119A5B1CA8EB0108A04418FA8EFE002801
:10178000BEFBF2FCD9F808E00CF1010CF244CDF8F4
:1017900058A000F025816D42CDF8ACC03495159667
:1017A0002590159D2B98349F002D2A46CCBFA94625
:1017B0004FF000091B9DAA18904232BF8446DDF805
:1017C00054C0AC441C98002800F00181A9EB0C0A1D
:1017D0002C94CDF8CCA0119A2693CDF89090CDF80A
:1017E000A4C014972390149C2698299DDDF8CCA0C2
:1017F000F0464FF00009002C2346CCBF26460026B9
:101800000F9CE318984232BF0346149BE3182498B8
:10181000F41A04FB0AFAA84280F2CB8002FB00F71C
:1018200028462C9C249D3C1B11922296451B129805
:10183000289313942095139A0D9B139C5242D8BF62
:1018400000221B1B8B42109B3ABF0D9E351B0D4681
:10185000229C229E4443E31A289CA64280F29E804A
:10186000AD1AA4EB060C3295139D309ECDF89CB0BA
:10187000CDF884A0039C1290009F7543019E319582
:10188000029D1D919A46CDF8A8E0E3461F92319A39
:10189000DDF8BCE0DAF10001A6EB0A00D8BF0021B8
:1018A00001EB0A0CB84218980EFB0C220244279850
:1018B00034BFA6EB0A033B4600B94046DDF830E0F2
:1018C0005B1ADDF8C8C0BEF1010F16D10993DDF82F
:1018D00074E0CDF81CC0DDF87CC00B9B0891009033
:1018E0004146CDF818C00020CDF814E004970396C7
:1018F00002950194FFF70EFA2AE0A64512D109934A
:101900001D9B08911F9905930B9B069141460090E2
:101910000020CDF81CC00497039602950194FFF7B0
:1019200081FA15E00A930C9B09911F9906930B9B72
:10193000CDF820C0DDF874C007914146009000202A
:10194000CDF814C00497039602950194FFF70AFBA3
:101950000E9B2A464146404609F1010998472198C5
:10196000DDF85CC02B462A464146484518BF00209A
:1019700000902A98E0471299BBF1010BDDF85880DE
:101980008A4484D10394129802951D990196DDF83A
:101990009CB00097DDF8A8E0DDF884A0139B119CB3
:1019A000209DE31813936D1E20957FF444AF129091
:1019B000119A14981A9B239D199C181814906D1E47
:1019C000A64423957FF40FAF11922C9C269B159A69
:1019D0001E9D259EAA181592761E25967FF4E1AECF
:1019E00035B0BDE8F08F00002DE9F04F89B04069B7
:1019F0004FF0000E006801684268806805680E6854
:101A000044681768F868D6F808803A69B96850439E
:101A10002A6813684FEA535A0AF0030AC3F3C61937
:101A20005B0C03F00F0329FA0AF9042BCDF804909C
:101A3000366814BF082BD2F80CE03A680028AB696E
:101A4000D2F80890B26809EB810667D00795059433
:101A50000691CDF810E00096039007980599046868
:101A6000A06809B10D68A968049C94B9009EB145AD
:101A700049D2B24646464F461C46154681468846E0
:101A8000B8F1000F19BF58F8040B0290002202921F
:101A900029E0009CA14536D2049C1D46164682468C
:101AA0008B46009FBBF1000F334602A819BF5BF8BD
:101AB000041B0291002202920199CDF80080224677
:101AC0000429514602D1FFF7CBFC01E0FFF75EFB92
:101AD000029AAA4449F8042BB945E3D304942B464F
:101AE000324600970FE033462A46494602A800F0E6
:101AF0008FFF0298A14447F8040B5745C0D3B04666
:101B00002346B9462A460099069C02EB880201EB5F
:101B1000840503990095491E03919ED109B0BDE843
:101B2000F08F00002DE9F04F8AB09A461546149BBD
:101B3000D0F804C06C6800948B46D3F804E0CDF86C
:101B400008E00488BBF80010BBF802204088B5F814
:101B500000E06F880025B3F800905E884FFA8AF3A2
:101B6000DBF804B0002BCDF814B0CDF810B00CBFEA
:101B7000A0468046012F0CBF00230423BEF1010FB5
:101B800004D1012F07D0C6F1000E05E0012F08BFD8
:101B90004FF0010E00D0AE464FFA8AFB0FFA8EFED0
:101BA000BBF1000FCDF804E00CBFA3468346CB4544
:101BB00016D19DF94CE0BEF1000F0CBF914689464D
:101BC000B1450DD14FFA8AFBBBF1000F0CBF834624
:101BD000A346BEF1000F0CBF0E461646B34570D0AB
:101BE0006FF002000AB0BDE8F08F059D97000897DE
:101BF00086000796CDF818C0DDF810C0ADF8024099
:101C00004FEA08044FFA8AF6002E9FED371ADDF8E6
:101C100018800CBF0646BDF80260B6B14FFA8AF7CD
:101C2000002FD8ED001A95ED002A0CBF0427079F5E
:101C3000BEF1000FB84401EE821A0CBF089F0427C2
:101C4000ED19761EB7B2002FE8D1641EA4B2BEF122
:101C5000000F20EE011ADBED001A9B4400EEA11AE2
:101C600089ED001A09F104090EBF151B0D1B554320
:101C7000002C0CEB8505C5D1CDF810C0DDF80C901B
:101C8000099E4FFA8AFCBCF1000F069DBDF8024088
:101C9000B144CDF80C90BDF800900CBF4FEA800C19
:101CA0004FF0040CAC44019D0BEB850BA9F1010630
:101CB000ADF80060BDF8005055B900200AB0BDE88D
:101CC000F08FDDF800B00395ADF80080CDF82490DA
:101CD000BEF1000FDDF8089003AE358809EB8509E9
:101CE0000CBF9046884680E700000000891100087C
:101CF000F0B58BB0416909680A68496809681568D8
:101D0000546893680A68CF68D1F810E004A996680F
:101D1000ADF820E0ADF8227009962E68EF682D69C5
:101D2000B668ADF81850ADF81A7007962568E668E1
:101D30002469AD68ADF81040ADF8126005951C68D7
:101D4000DD681B69A468ADF80830039408ACADF8F1
:101D50000A50019490F92120009290F92030D0EDA2
:101D6000070A02AA90ED060A06A8FFF7DBFE0BB0F1
:101D7000F0BD00002DE9F04114460F46022C064646
:101D80002DED028B97ED008ADFEDC38A3DD3611EF6
:101D90003A1D11F003000CD092ED000A02F104028A
:101DA000B4EE480AF1EE10FA58BFB0EE408A401E79
:101DB000F2D1890800F02B8092ED000AB4EE480AB7
:101DC000F1EE10FA58BFB0EE408A92ED010AB4EE7F
:101DD000480AF1EE10FA58BFB0EE408A92ED020ABE
:101DE000B4EE480AF1EE10FA58BFB0EE408A92ED18
:101DF000030A02F11002B4EE480AF1EE10FA58BFDD
:101E0000B0EE408A491ED7D101E0002C40D0B04648
:101E10004FEA040597ED000A3F1D30EE480A05F031
:101E200045FA6D1E88ED000A78EE808A08F10408F4
:101E3000F0D114F00300B7EE000A80EE280A09D0B2
:101E4000D6ED000A401E60EE800AC6ED000A06F1DB
:101E50000406F5D1A4081BD0D6ED000A641E60EE7E
:101E6000800AC6ED000A96ED011A21EE001A86EDF1
:101E7000011AD6ED020A96ED031A60EE801A61EEA1
:101E8000000AC6ED021AC6ED030A06F11006E3D1F8
:101E9000BDEC028BBDE8F0812DE9F0430C4681B02A
:101EA00004EB820980461D46089E099F4C450AD2D4
:101EB0002A46214604EB86044046FFF75BFF08EB09
:101EC00087084C45F4D301B0BDE8F08370B50D46EA
:101ED000044605EB8206B54280F00A8095ED000AC3
:101EE0002D1D05F091F984ED000A241DB542F5D3AE
:101EF00070BD000070B50D46044605EB8206B54284
:101F000080F0148095ED000A2D1DB1EE400A05F019
:101F1000CDF9F7EE000A70EE200AB7EE001A81EE56
:101F2000201A84ED001A241DB542EBD370BD0000C9
:101F300001EB8202914216D24FF0FF3391ED000A7D
:101F40008446B5EE400A0CF10400F1EE10FACCBF65
:101F50009FEDBD0A00EE103A091DB8EEC00A91428D
:101F60008CED000AEAD3704701EB8202914216D24F
:101F7000034691ED001A181DB4EE410AF1EE10FA75
:101F800058BFB0EE401AB4EE601AF1EE10FA58BF26
:101F9000B0EE601A091D914283ED001AE8D3704734
:101FA00001EB820291420FD2034691ED000A181D07
:101FB000B5EE400AF1EE10FAD8BF9FED370A091DC1
:101FC000914283ED000AEFD37047000001EB8202DB
:101FD00091421AD2B1EE080A0346D1ED000A181D4B
:101FE000F5EE400AF1EE10FA08DDF4EE400AF1EEEB
:101FF00010FA58BFF0EE400A02E000BFDFED260AFB
:10200000091D9142C3ED000AE6D37047F0B50D46B5
:1020100081B005EB820604462DED048BF0EE408A7C
:10202000B542B0EE608A32D2274695ED009A3C1D4B
:10203000B5EE409AF1EE10FAB0EE490A4CBFDFED72
:10204000169AF0EE499A05F031F9FFEE000A30EEEB
:10205000200A20EE280AB5EE400AF1EE10FA05DD5E
:102060009FED0D1A79EE819A0AE000BFB0EE490AA1
:1020700005F01CF9FFEE000A30EE200A40EE289A27
:102080002D1D28EE290AB54287ED000ACCD3BDEC00
:10209000048B01B0F0BD00000000000001EB8303E1
:1020A000994220D291ED000A8446B5EE400A0CF127
:1020B0000400F1EE10FA92ED001A4CBFDFED980A21
:1020C000F0EE400AB1EE400AB5EE400AF1EE10FA29
:1020D00048BF9FED930A091D121D994241EE400A27
:1020E000CCED000ADED3704730B440690468216843
:1020F0000D686B68AA68E96828692D6853434B43EB
:1021000061684343A8680A68146800EB8302904240
:10211000A1680FD20B4690ED000A191DB5EE400ADA
:10212000F1EE10FAD8BF9FED7E0A001D904283EDBC
:10213000000AEFD330BC704730B4406904682168AE
:102140000D686B68AA68E96828692D6853434B439A
:1021500061684343A8680A68146800EB83029042F0
:10216000A1681AD2B1EE080A0B46D0ED000A191D7B
:10217000F5EE400AF1EE10FA08DDF4EE400AF1EE59
:1021800010FA58BFF0EE400A02E000BFDFED640A2B
:10219000001D9042C3ED000AE6D330BC704700003A
:1021A000F0B581B02DED048B416990ED078AD0ED3B
:1021B000068A0E68326814686568A368E268216957
:1021C00020685D43554384684D43716804EB850581
:1021D0000A681068AC42866831D2374694ED009A9E
:1021E0003E1DB5EE409AF1EE10FAB0EE490A4CBF32
:1021F000DFED4B9AF0EE499A05F058F8FFEE000A31
:1022000030EE200A20EE280AB5EE400AF1EE10FA70
:1022100004DD9FED431A79EE819A09E0B0EE490A98
:1022200005F044F8FFEE000A30EE200A40EE289A4E
:10223000241D28EE290AAC4287ED000ACDD3BDEC5F
:10224000048B01B0F0BD00000100000070B44169D2
:1022500080690D682A6816687468B368F268316925
:1022600036685C4354436A684C43B16813681D6820
:102270000368986801EB84039942AA681FD2144648
:1022800091ED000A221DB5EE400AF1EE10FA90ED34
:10229000001A4CBFDFED220AF0EE400AB1EE400A10
:1022A000B5EE400AF1EE10FA48BF9FED1D0A091D78
:1022B000001D994241EE400AC4ED000ADFD370BC14
:1022C0007047000030B44069046821680D686B688D
:1022D000AA68E96828692D6853434B436168434302
:1022E000A8680A68146800EB83029042A16815D2BE
:1022F0004FF0FF330C4690ED000A211DB5EE400A69
:10230000F1EE10FACCBF9FED070A00EE103A001D67
:10231000B8EEC00A904284ED000AEBD330BC70479F
:10232000000000000100000070B4416990ED070A50
:10233000D0ED060A0D682A6816687468B368F268FA
:10234000316930685C43544380684C4369680A686B
:10235000136800EB84029042996816D20B4690ED08
:10236000001A191DF4EE410AF1EE10FA58BFB0EE52
:10237000601AB4EE401AF1EE10FA58BFB0EE401AEF
:10238000001D904283ED001AE8D370BC7047000036
:1023900070B54069056829680C686368A268E168DF
:1023A0002069246853434B436968A4684343086821
:1023B00004EB83060268B442956813D294ED000AD8
:1023C000241DB1EE400A04F071FFF7EE000A70EE32
:1023D000200AB7EE001A81EE201A85ED001A2D1D95
:1023E000B442EBD370BD000070B540690568296840
:1023F0000C686368A268E1682069246853434B4312
:102400006968A4684343086804EB83060268B44221
:10241000956809D294ED000A241D04F0F5FE85EDBF
:10242000000A2D1DB442F5D370BD70B582B040696D
:10243000046821680D68AA68019200926E681346CC
:10244000E9682869646872432D684A4342432068FA
:10245000A9680568A868FFF71FFD02B070BD0000FD
:102460002DE9F0471F4604462DED048B16460D4618
:10247000B100F0EE408A03F042FE002EB0EE609A0A
:10248000B0EE418A05EB86084FDD07F1010E7F4271
:10249000A9463046B4463B46714699ED000AE645EA
:1024A00020EE000AC8BF6146002BCCBF1A460022AE
:1024B0008A4233DA04EB820704EB8206521C8A421A
:1024C000D7ED000A70EE800AC6ED000A26DA04EBAA
:1024D000820A04EB8207521C8A429AED001A31EEFE
:1024E000001A87ED001A19DA04EB820604EB820A5F
:1024F000521C8A42D6ED000A70EE800ACAED000A2C
:102500000CDA04EB820704EB8206521C8A4297ED38
:10251000001A31EE001A86ED001ACBDB5B1C401E60
:1025200009F104090EF1010EB6D1454580F0148081
:1025300094ED001AB0EE680AF1EE480A09EE010ABD
:1025400004F02EFFD5ED000A2D1D60EE800AC4EDCB
:10255000000A241D4545EBD3BDEC048BBDE8F08794
:102560002DE9F04F81B0144603FB04F82DED048BE8
:1025700084B0B0EE408A129AF0EE608A002A64D0ED
:10258000B7EE000A029180EE089A019000920026B0
:10259000002C4ED0029D019FA946CB4609EB880A2C
:1025A0000397DFED639AD34580F00C80F0EE480A84
:1025B00099ED000A09EB840904F0F2FE79EE809AA5
:1025C000D145F3D39FED5B1A39EE811AF0EE490A3B
:1025D00088EE810A04F0E4FED345284624D203990C
:1025E000D0ED000A00EB840060EE800AC1ED000A25
:1025F00001EB8401504517D290ED001A00EB8400E6
:1026000021EE001A81ED001A01EB840150450BD236
:10261000D0ED000A00EB840060EE800AC1ED000AF4
:1026200001EB84015045DBD3761C3F1D2D1DA642D6
:10263000B2D30198029A00EB8801019102EB880362
:1026400000990293491E0091A1D104B0BDEC048B06
:1026500001B0BDE8F08F00002DE9F04381B01646CF
:102660000D46B7002DED028B0446B0EE408A05EB17
:1026700083087F42454556D205EB86099FED2C0A1B
:102680004D451BD2D5ED000A2D1D4D4500EEA00A8B
:102690003FBFD5ED000A00EEA00A2D1D4D450DD21D
:1026A000D5ED000A2D1D4D4500EEA00A3FBFD5ED2A
:1026B000000A00EEA00A2D1D4D45E3D3DFED1D0AF3
:1026C000ED1930EE200A88EE000A00F0B7F94D450A
:1026D000BFF4D0AF95ED001A2D1D21EE001A84ED48
:1026E000001A241D4D45C5D2D5ED000A2D1D60EE02
:1026F000800AC4ED000A241D4D45BBD295ED001A99
:102700002D1D21EE001A84ED001A241D4D45B1D275
:10271000D5ED000A2D1D60EE800AC4ED000A241DCF
:102720004D45D7D3A6E7BDEC028B01B0BDE8F083E1
:1027300000000000000000342DE9F0410D46044681
:1027400005EB82081E462DED048BB0EE408A0A9FF1
:102750004545F0EE608AB0EE419A11D2B0EE491ACA
:10276000294605EB86052046F0EE680A3B46B0EEAA
:10277000480A3246FFF774FE454504EB8604EDD364
:10278000BDEC048BBDE8F0812DE9F047406900689D
:1027900001680D68AC68426880686968EB68166813
:1027A0002A690768406861432D685943336851437B
:1027B0003A68AD6800289E68976861D0006800227A
:1027C0000029D0F808C059D04FEA010904EB020EE5
:1027D000724550D214F0030306EB820005EB820130
:1027E0003A46E04600F0128091ED000A5B1ED2ED01
:1027F000000A121D98ED001A091D00EE201A08F1BA
:10280000040880ED001A001D002BEDD1A30832D082
:102810008246184691ED002A401E92ED001A98ED6E
:10282000000A02EE010A8AED000AD1ED012AD2ED7A
:10283000011AD8ED010A42EEA10ACAED010A91ED92
:10284000022A92ED021A98ED020A02EE010A8AEDBE
:10285000020AD1ED031A1031D2ED030A1032D8ED7D
:10286000032A002841EEA02A08F11008CAED032A25
:102870000AF1100ACED172464A45A7D3BDE8F087C7
:1028800000294FF0000CF9D004EB0C02944563468C
:102890004CD214F0030006EB830E05EB8308B94617
:1028A00000F0118098ED000A5B1CD9ED000A401E73
:1028B00060EE200A09F10409CEED000A08F10408CF
:1028C0000EF1040EEED1A00800F0308005EB830E6F
:1028D000A3EB0C0C07EB8C0C06EB83039EED001AAC
:1028E000401E9CED000A21EE000A83ED000ADEED99
:1028F000011ADCED010A61EEA00AC3ED010A9EEDAA
:10290000021A9CED020A21EE000A83ED020ADEEDB6
:10291000030A0EF1100EDCED031A0CF1100C60EE40
:10292000A10AC3ED030A10330028D7D194468C4581
:10293000AAD3BDE8F08770B582B041690C6881699F
:10294000226815684908AA6800916E686468E96899
:1029500090ED091A1346D0ED080A724390ED070A6C
:10296000266828692D684A43A96835684243A868E3
:10297000FFF7E2FE02B070BDF0B581B04169B0EE84
:10298000001A09680A6817684B68017ED3F800C00E
:102990003A1D07F114037C697D6852F8212053F831
:1029A0002110FE683B6991FBF4F4B9684D4390F83F
:1029B000201075435D4304FB02F300291ABF00EEAB
:1029C000102AF8EE400AF7EE000A90ED070AB4EE7E
:1029D000410AF1EE10FAB5FBF3F308BF012C0BD15D
:1029E0002B463C68DCF80050B0EE600AA168A8688D
:1029F00001B0BDE8F0402FE600933968DCF8000034
:102A00001346896822468068FFF7AAFD01B0F0BD31
:102A100030B504460846114681B01A460025009597
:102A20006B4600F03FFF94ED000ADDED000A70EE0A
:102A3000200AC4ED000A01B030BD0000F0EE400AEB
:102A4000F5EE400AF1EE10FA9FED280A01DBB1EE37
:102A5000E00A704704F02ABC04F0A2BC04F0D4BB26
:102A6000B5EE400AF1EE10FAD8BF9FED200A70478C
:102A7000B5EE400AF1EE10FAD8BF20EE200A7047FA
:102A800000B581B0B1EE400A04F010FCF7EE000A88
:102A900001B030EE200AB7EE001A81EE000A00BD48
:102AA000F0EE400A9FED121AB6EE000A00EE810A1F
:102AB000DFED100AB4EE600AF1EE10FA07DAB5EEB7
:102AC000400AF1EE10FA04D59FED080A7047B7EE00
:102AD000000A7047B5EE400AF1EE10FACCBF9FED48
:102AE000060A9FED060AB8EEC00A70470000000013
:102AF000CDCC4C3E0100803F01000000FFFFFFFFF6
:102B000070B4840746D04C1E002941D0D5B203468C
:102B100002E0611EE4B30C4603F8015B9907F8D1AB
:102B2000032C2ED9D5B245EA05250F2C45EA0545DB
:102B300019D9264603F11001103E0F2E41F8105C02
:102B400041F80C5C41F8085C41F8045C01F11001AB
:102B5000F2D8A4F1100121F00F0104F00F0410319C
:102B6000032C0B440DD91E4621460439032946F88F
:102B7000045BFAD8211F21F0030104310B4404F057
:102B800003042CB1D2B21C4403F8012BA342FBD1A5
:102B900070BC70470C460346C2E7034613F8012B8E
:102BA000002AFBD1181A013870470000000000000D
:102BB00001F0FF01102A2BDB10F0070F08D010F8EE
:102BC000013B013A8B422DD010F0070F42B3F6D1F2
:102BD000F0B441EA012141EA014122F007047FF00B
:102BE00000070023F0E80256083C85EA010586EA62
:102BF000010685FA47F5A3FA87F586FA47F6A5FA9E
:102C000087F68EB9EED1F0BC01F0FF0102F00702A9
:102C100032B110F8013B013A83EA010313B1F8D154
:102C20000020704701387047002D06BF3546033835
:102C3000073815F0010F07D1013015F4807F02BF6E
:102C4000013015F4C03F0130F0BC0138704700BFBF
:102C500081F0004102E000BF83F0004330B54FEA4D
:102C600041044FEA430594EA050F08BF90EA020FBA
:102C70001FBF54EA000C55EA020C7FEA645C7FEA4D
:102C8000655C00F0E2804FEA5454D4EB5555B8BF70
:102C90006D420CDD2C4480EA020281EA030382EAE1
:102CA000000083EA010180EA020281EA0303362D73
:102CB00088BF30BD11F0004F4FEA01314FF4801C46
:102CC0004CEA113102D0404261EB410113F0004F58
:102CD0004FEA03334CEA133302D0524263EB43030F
:102CE00094EA050F00F0A780A4F10104D5F1200EAD
:102CF0000DDB02FA0EFC22FA05F2801841F1000108
:102D000003FA0EF2801843FA05F359410EE0A5F1DB
:102D100020050EF1200E012A03FA0EFC28BF4CF00C
:102D2000020C43FA05F3C01851EBE37101F00045C2
:102D300007D54FF0000EDCF1000C7EEB00006EEBCF
:102D40000101B1F5801F1BD3B1F5001F0CD3490859
:102D50005FEA30004FEA3C0C04F101044FEA4452B0
:102D600012F5800F80F09A80BCF1004F08BF5FEA37
:102D7000500C50F1000041EB045141EA050130BD17
:102D80005FEA4C0C404141EB010111F4801FA4F1BA
:102D90000104E9D191F0000F04BF01460020B1FA0F
:102DA00081F308BF2033A3F10B03B3F120020CDA47
:102DB0000C3208DD02F1140CC2F10C0201FA0CF025
:102DC00021FA02F10CE002F11402D8BFC2F1200C8A
:102DD00001FA02F120FA0CFCDCBF41EA0C01904040
:102DE000E41AA2BF01EB0451294330BD6FEA040489
:102DF0001F3C1CDA0C340EDC04F11404C4F1200274
:102E000020FA04F001FA02F340EA030021FA04F385
:102E100045EA030130BDC4F10C04C4F1200220FADC
:102E200002F001FA04F340EA0300294630BD21FA1A
:102E300004F0294630BD94F0000F83F4801306BFE0
:102E400081F480110134013D4EE77FEA645C18BFD4
:102E50007FEA655C29D094EA050F08BF90EA020F6B
:102E600005D054EA000C04BF1946104630BD91EA63
:102E7000030F1EBF0021002030BD5FEA545C05D166
:102E80004000494128BF41F0004130BD14F58004A5
:102E90003CBF01F5801130BD01F0004545F0FE4119
:102EA00041F470014FF0000030BD7FEA645C1ABF4E
:102EB000194610467FEA655C1CBF0B46024650EA85
:102EC000013406BF52EA033591EA030F41F40021B1
:102ED00030BD00BF90F0000F04BF0021704730B537
:102EE0004FF4806404F132044FF000054FF000010C
:102EF00050E700BF90F0000F04BF0021704730B5CD
:102F00004FF4806404F1320410F0004548BF4042A1
:102F10004FF000013EE700BF42004FEAE2014FEAF6
:102F200031014FEA02701FBF12F07F4393F07F4FD1
:102F300081F06051704792F0000F14BF93F07F4F03
:102F4000704730B54FF4607401F0004521F0004146
:102F500020E700BF50EA010208BF704730B54FF0CC
:102F600000050AE050EA010208BF704730B511F0D1
:102F7000004502D5404261EB41014FF4806404F109
:102F800032045FEA915C3FF4DCAE4FF003025FEA8B
:102F9000DC0C18BF03325FEADC0C18BF033202EB13
:102FA000DC02C2F1200300FA03FC20FA02F001FA6D
:102FB00003FE40EA0E0021FA02F11444C1E600BF0C
:102FC00070B54FF0FF0C4CF4E06C1CEA11541DBFBF
:102FD0001CEA135594EA0C0F95EA0C0F00F0DEF88A
:102FE0002C4481EA030621EA4C5123EA4C5350EA6F
:102FF000013518BF52EA033541F4801143F48013C0
:1030000038D0A0FB02CE4FF00005E1FB02E506F050
:103010000042E0FB03E54FF00006E1FB03569CF0A5
:10302000000F18BF4EF0010EA4F1FF04B6F5007FAB
:1030300064F5407404D25FEA4E0E6D4146EB06061D
:1030400042EAC62141EA55514FEAC52040EA5E50A6
:103050004FEACE2EB4F1FD0C88BFBCF5E06F1ED850
:10306000BEF1004F08BF5FEA500E50F1000041EB87
:10307000045170BD06F0004646EA010140EA020034
:1030800081EA0301B4EB5C04C2BFD4EB0C0541EA56
:10309000045170BD41F480114FF0000E013C00F36B
:1030A000AB8014F1360FDEBF002001F0004170BD8F
:1030B000C4F10004203C35DA0C341BDC04F11404A8
:1030C000C4F1200500FA05F320FA04F001FA05F234
:1030D00040EA020001F0004221F0004110EBD37001
:1030E00021FA04F642EB06015EEA430E08BF20EA2D
:1030F000D37070BDC4F10C04C4F1200500FA04F3D0
:1031000020FA05F001FA04F240EA020001F0004161
:1031100010EBD37041F100015EEA430E08BF20EAD4
:10312000D37070BDC4F1200500FA05F24EEA020E1C
:1031300020FA04F301FA05F243EA020321FA04F04B
:1031400001F0004121FA04F220EA020000EBD37002
:103150005EEA430E08BF20EAD37070BD94F0000F02
:103160000FD101F00046400041EB010111F4801F36
:1031700008BF013CF7D041EA060195F0000F18BFE7
:10318000704703F00046520043EB030313F4801F23
:1031900008BF013DF7D043EA0603704794EA0C0FDD
:1031A0000CEA135518BF95EA0C0F0CD050EA4106F3
:1031B00018BF52EA4306D1D181EA030101F0004170
:1031C0004FF0000070BD50EA410606BF1046194698
:1031D00052EA430619D094EA0C0F02D150EA0136A4
:1031E00013D195EA0C0F05D152EA03361CBF1046E5
:1031F00019460AD181EA030101F0004141F0FE4184
:1032000041F470014FF0000070BD41F0FE4141F407
:10321000780170BD70B54FF0FF0C4CF4E06C1CEA07
:1032200011541DBF1CEA135594EA0C0F95EA0C0FBC
:1032300000F0A7F8A4EB050481EA030E52EA033577
:103240004FEA013100F088804FEA03334FF0805598
:1032500045EA131343EA12634FEA022245EA1115C5
:1032600045EA10654FEA00260EF000419D4208BF76
:10327000964244F1FD0404F5407402D25B084FEA23
:103280003202B61A65EB03055B084FEA32024FF4CF
:1032900080104FF4002CB6EB020E75EB030E22BF2C
:1032A000B61A754640EA0C005B084FEA3202B6EBEC
:1032B000020E75EB030E22BFB61A754640EA5C009B
:1032C0005B084FEA3202B6EB020E75EB030E22BF2B
:1032D000B61A754640EA9C005B084FEA3202B6EB2C
:1032E000020E75EB030E22BFB61A754640EADC00EB
:1032F00055EA060E18D04FEA051545EA16754FEA4D
:1033000006164FEAC30343EA52734FEAC2025FEA6A
:103310001C1CC0D111F4801F0BD141EA00014FF0F9
:1033200000004FF0004CB6E711F4801F04BF0143CA
:103330000020B4F1FD0C88BFBCF5E06F3FF6AFAEE6
:10334000B5EB030C04BFB6EB020C5FEA500C50F176
:10335000000041EB045170BD0EF0004E4EEA1131F9
:1033600014EB5C04C2BFD4EB0C0541EA045170BD00
:1033700041F480114FF0000E013C90E645EA060E44
:103380008DE60CEA135594EA0C0F08BF95EA0C0F72
:103390003FF43BAF94EA0C0F0AD150EA01347FF4BA
:1033A00034AF95EA0C0F7FF425AF104619462CE791
:1033B00095EA0C0F06D152EA03353FF4FDAE1046F4
:1033C000194622E750EA410618BF52EA43067FF445
:1033D000C5AE50EA41047FF40DAF52EA43057FF4D5
:1033E000EBAE12E74FF0FF3C06E000BF4FF0010CE0
:1033F00002E000BF4FF0010C4DF804CD4FEA410C44
:103400007FEA6C5C4FEA430C18BF7FEA6C5C1BD010
:1034100001B050EA410C0CBF52EA430C91EA030F91
:1034200002BF90EA020F0020704710F1000F91EAEE
:10343000030F58BF994208BF90422CBFD8176FEABC
:10344000E37040F0010070474FEA410C7FEA6C5C8A
:1034500002D150EA013C07D14FEA430C7FEA6C5C91
:10346000D6D152EA033CD3D05DF8040B704700BFBD
:103470008446104662468C461946634600E000BF0B
:1034800001B5FFF7B7FF002848BF10F1000F01BDDD
:103490004DF808EDFFF7F4FF0CBF012000205DF8A8
:1034A00008FB00BF4DF808EDFFF7EAFF34BF01202D
:1034B00000205DF808FB00BF4DF808EDFFF7E0FFC6
:1034C00094BF012000205DF808FB00BF4DF808ED17
:1034D000FFF7CEFF94BF012000205DF808FB00BF7E
:1034E0004DF808EDFFF7C4FF34BF012000205DF860
:1034F00008FB00BF4FEA4102B2F1E04324BFB3F53D
:10350000001CDCF1FE5C0DD901F0004C4FEAC0025A
:103510004CEA5070B2F1004F40EB830008BF20F03E
:103520000100704711F0804F21D113F13872BCBFF8
:1035300001F00040704741F480114FEA5252C2F14D
:103540001802C2F1200C10FA0CF320FA02F018BF96
:1035500040F001004FEAC1234FEAD32303FA0CFCE9
:1035600040EA0C0023FA02F34FEA4303CCE77FEA78
:10357000625307D150EA01331EBF4FF0FE4040F4C2
:103580004000704701F0004040F0FE4040F4000071
:10359000704700BF53B94AB9002908BF00281CBFB3
:1035A0004FF0FF314FF0FF3000F07AB9ADF1080C69
:1035B0006DE904CE00F006F8DDF804E0DDE9022351
:1035C00004B070472DE9F0478C460D460446089E2E
:1035D000002B51D18A4217466DD9B2FA82FEBEF154
:1035E000000F0BD0CEF1200C01FA0EF520FA0CFCE6
:1035F00002FA0EF74CEA050C00FA0EF44FEA174AED
:10360000250CBCFBFAF81FFA87F90AFB18CC45EA2F
:103610000C4508FB09F3AB420AD9ED1908F1FF325A
:1036200080F02381AB4240F22081A8F102083D44A2
:10363000ED1AA4B2B5FBFAF00AFB105544EA0544B2
:1036400000FB09F9A14509D9E41900F1FF3380F025
:103650000A81A14540F2078102383C44A4EB0904E9
:1036600040EA08400021002E61D024FA0EF4002325
:1036700034607360BDE8F0878B4207D9002E54D0C8
:10368000002186E821000846BDE8F087B3FA83F1FF
:10369000002940F08E80AB4202D3824200F2FA80D1
:1036A000841A65EB03050120AC46002E3FD086E866
:1036B0001010BDE8F08712B90127B7FBF2F7B7FA8F
:1036C00087FEBEF1000F34D1EB1B3A0C1FFA87FCCA
:1036D0000121B3FBF2F8250C02FB183345EA034540
:1036E0000CFB08F3AB4207D9ED1908F1FF3002D209
:1036F000AB4200F2D1808046ED1AA3B2B5FBF2F0E6
:1037000002FB105543EA05440CFB00FCA44507D915
:10371000E41900F1FF3302D2A44500F2B880184644
:10372000A4EB0C0440EA08409DE731463046BDE872
:10373000F087CEF1200405FA0EF307FA0EF720FA0F
:1037400004F83A0C25FA04F448EA0308B4FBF2F151
:103750004FEA184502FB11441FFA87FC45EA04456D
:1037600001FB0CF3AB4200FA0EF409D9ED1901F19B
:10377000FF3080F08A80AB4240F2878002393D44BE
:10378000EB1A1FFA88F5B3FBF2F002FB103345EA9F
:10379000034500FB0CF3AB4207D9ED1900F1FF38EC
:1037A0006FD2AB426DD902383D44EB1A40EA014179
:1037B0008FE7C1F1200722FA07F88B4005FA01F4E0
:1037C00048EA030320FA07FE4FEA134CFD404EEA95
:1037D000040EB5FBFCF94FEA1E440CFB19551FFA09
:1037E00083F844EA054509FB08F4AC4202FA01F209
:1037F00000FA01FA08D9ED1809F1FF3043D2AC42C2
:1038000041D9A9F102091D442D1B1FFA8EFEB5FBFB
:10381000FCF00CFB10554EEA054400FB08F8A045EF
:1038200007D9E41800F1FF3529D2A04527D902387D
:103830001C4440EA0940A4EB0804A0FB02894C4563
:10384000C6464D4615D312D056B1BAEB0E0364EB03
:10385000050404FA07F7CB401F43CC40376074607F
:103860000021BDE8F0871846F8E69046E0E6C2453C
:10387000EAD2B8EB020E69EB03050138E4E728460B
:10388000D7E7404691E78146BEE7014678E7023830
:103890003C4445E7084608E7A8F102083D442BE709
:1038A000704700BFF0B5960805460C46DFED197A63
:1038B0003746103510345FB9340102F00302214459
:1038C000204401EB820291421CD1C3ED007AF0BD8D
:1038D00055ED046A013F14ED047AE6EE877A55ED62
:1038E000036A14ED037AE6EE877A55ED026A14ED69
:1038F000027AE6EE877A55ED016A14ED017AE6EE7A
:10390000877AD6E7F0EC016AB1EC017AE6EE877AC5
:10391000D9E700BF0000000038B50E4B05460E4A3F
:1039200018784FF47A73B3FBF0F31068B0FBF3F040
:1039300000F0ACF8044658B90F2D09D802462946C4
:103940004FF0FF3000F06AF8044B20461D6038BD90
:10395000012038BD00000020E40700200400002002
:1039600008B5094B03201A6842F400721A601A68FD
:1039700042F480721A6000F03FF80020FFF7CCFF9D
:1039800002F0D0FA002008BD003C0240034A044B7C
:1039900011681B780B441360704700BFC0A900205A
:1039A00000000020014B1868704700BFC0A900202C
:1039B00038B50446FFF7F6FF0546631C1EBF044BEF
:1039C0001B78E418FFF7EEFF401B8442FAD838BD9D
:1039D000000000200048704700070201014B1868F2
:1039E000000C7047002004E0024B1868C0F30B0085
:1039F000704700BF002004E0074A0002D36800F4CB
:103A0000E06023F4E0631B041B0C43F0BF6343F44A
:103A100000330343D360704700ED00E0194B30B52D
:103A2000DC68C4F30224C4F10703251D042B28BF5E
:103A30000423062D4FF001058CBF033C002405FA3A
:103A400003F3002803F1FF3301EA030101FA04F153
:103A500005FA04F404F1FF3402EA040242EA010226
:103A60004FEA021207DB00F16040D2B200F561407C
:103A700080F8002330BD00F00F00D2B2024B1A5480
:103A800030BD00BF00ED00E014ED00E00138B0F102
:103A9000807F0AD2064BF021064A5860002082F847
:103AA0002310072298601A6070470120704700BFFA
:103AB00010E000E000ED00E010B5044608B9012078
:103AC00010BD437F03F0FF0213B9027702F042FA00
:103AD000022363772379E3B92368134A5A619A680A
:103AE00022F018029A6062792368D2B94FF0FF324F
:103AF0001A6100209A68616922F060020A43A16994
:103B00009A609A6822F080020A439A6001236377E0
:103B100010BDE2682046A16800F008F80028E2D055
:103B2000CDE72269E4E700BFB71DC1041F2310B52C
:103B300013F1FF3306D321FA03F4E407F8D5082A7A
:103B400014D009D872B900684161836823F0180362
:103B50001A438260002010BD102A05D0182A01D116
:103B6000062BF0D9012010BD072BFAE70F2BF8E741
:103B70002DE9F04F0B6885B0DFF8A8810193002391
:103B8000664ADFF8A4914FF0010E019C0EFA03FE85
:103B90000EEA0406B64540F0AB804C6824F01007EE
:103BA000022F16D14FEAD30A03F0070B4FF00F0C88
:103BB00000EB8A0A4FEA8B0BDAF820500CFA0BFC68
:103BC00025EA0C0C0D6905FA0BF545EA0C05CAF857
:103BD00020504FEA430A0325D0F800B004F0030C4C
:103BE00005FA0AF5013F0CFA0AFCED43012F0BEA36
:103BF000050B4CEA0B0CC0F800C011D8876807EA27
:103C0000050BCF6807FA0AFC4CEA0B078760476888
:103C100027EA0E0EC4F300179F4047EA0E074760DD
:103C2000C7683D408F6807FA0AF73D43C560E50065
:103C30005ED5D8F8445023F0030703F0030E4FF08D
:103C40000F0C45F4804507F180474FEA8E0EC8F807
:103C5000445007F59C37D8F8445005F48045039547
:103C6000039D0CFA0EF5D7F808A02AEA050C2C4D96
:103C7000A84244D005F58065A84242D005F580658C
:103C8000A84240D005F58065A8423ED005F5806584
:103C9000A8423CD048453CD005F50065A8423AD042
:103CA00005F58065A84214BF0825072505FA0EF51D
:103CB00014F4803F45EA0C05BD606FEA06071568FD
:103CC0000CBF3D40354314F4003F156055680CBFF0
:103CD0003D40354314F4801F556095680CBF3D404E
:103CE0003543A4029560D56854BF3D403543D56047
:103CF0000133102B7FF447AF05B0BDE8F08F0025EE
:103D0000D4E70125D2E70225D0E70325CEE7042535
:103D1000CCE70525CAE70625C8E700BF003C0140FF
:103D20000000024000380240001402400AB18161E4
:103D300070470904FBE70000194B37B51A6C194CA2
:103D400042F080521A641B6C03F080530193019B74
:103D5000236843F480332360FFF724FE054663683D
:103D6000DA030CD5236843F400332360FFF71AFE0F
:103D70000C4C054663689B030AD5002006E0FFF75C
:103D800011FE401BB0F57A7FE9D9032003B030BDA6
:103D9000FFF708FE401BB0F57A7FEBD9F5E700BFCF
:103DA00000380240007000402DE9F341044618B984
:103DB000012002B0BDE8F0810368D80710D4236861
:103DC00099075ED42368190700F1A38023685A0776
:103DD00000F1C480A269002A40F02E810020E8E7AB
:103DE000934B9A6802F00C02042A07D09A6802F0FA
:103DF0000C02082A0AD15B685A0207D58C4B1B6853
:103E00009B03DCD56368002BD9D1D1E76368884D6B
:103E1000B3F5803F11D12B6843F480332B60FFF75B
:103E2000C1FD834D06462B689F03C8D4FFF7BAFD3A
:103E3000801B6428F7D90320BBE79BB92B6823F4C8
:103E400080332B602B6823F480232B60FFF7AAFDBF
:103E500006462B689803B2D5FFF7A4FD801B6428A3
:103E6000F7D9E8E7B3F5A02F2B6803D143F48023FB
:103E70002B60D0E723F480332B602B6823F480235E
:103E8000CCE76B4B9A6812F00C0F07D09A6802F0DF
:103E90000C02082A11D15B6859020ED4644B1A68CF
:103EA000920702D5E268012A82D11A68216922F0BC
:103EB000F80242EAC1021A6084E7E3685C4DBBB1D4
:103EC0002B6843F001032B60FFF76CFD06462B685F
:103ED0009F0707D52B68226923F0F80343EAC20342
:103EE0002B606FE7FFF75EFD801B0228EFD9A2E78A
:103EF0002B6823F001032B60FFF754FD06462B6867
:103F000098077FF55FAFFFF74DFD801B0228F6D9BC
:103F100091E76369464D83B16B6F43F001036B67B3
:103F2000FFF740FD06466B6F9B073FF54FAFFFF76E
:103F300039FD801B0228F6D97DE76B6F23F0010362
:103F40006B67FFF72FFD06466B6F9F077FF53EAF50
:103F5000FFF728FD801B0228F6D96CE7344B1A6C5A
:103F6000D00027D41A6C012642F080521A641B6CD0
:103F700003F080530193019B2E4D2B68D9051BD56F
:103F8000A3682B4D012B27D12B6F43F001032B6727
:103F900041F28835FFF706FD254F80463B6F9B07B2
:103FA0003FD5002E3FF416AF214A136C23F0805307
:103FB00013640FE70026DFE72B6843F480732B6060
:103FC000FFF7F0FC07462B68DA05D9D4FFF7EAFCC7
:103FD000C01B6428F7D92EE7ABB92B6F41F28838A4
:103FE00023F001032B672B6F23F004032B67FFF7EC
:103FF000D9FC07462B6F9807D3D5FFF7D3FCC01B1E
:104000004045F7D917E7052B2B6F03D143F0040385
:104010002B67B9E723F001032B672B6F23F0040311
:10402000B5E7FFF7BFFCA0EB0800A842B6D902E74E
:104030000038024000700040244DAB6803F00C03D0
:10404000082B3FF4B5AE2B68022A23F080732B6057
:104050002ED1FFF7A7FC06462B68990122D4226ACD
:10406000E3691343626A43F0005343EA8213E26A4E
:1040700043EA0263A26A154C5208013A43EA02433A
:104080006B602B6843F080732B60FFF78BFC054659
:1040900023689A013FF5A2AEFFF784FC401B02287B
:1040A000F6D9C8E6FFF77EFC801B0228D4D9C2E609
:1040B000FFF778FC04462B689B017FF58FAEFFF776
:1040C00071FC001B0228F6D9B5E600BF003802409B
:1040D000134908B58B6803F00C03042B03D0082B9D
:1040E00003D0104808BD104808BD4A684B684968AD
:1040F00002F03F0213F48003C1F388111ABF0A488B
:1041000000230848A1FB0001FFF744FA044B5B6859
:10411000C3F3014301335B00B0FBF3F008BD00BF04
:10412000003802400024F40040787D012DE9F04180
:104130000D46044610B90120BDE8F081464A1368D7
:1041400003F00F038B4228D321688F0730D4C807B0
:1041500043D4414A136803F00F039D4267D322689A
:10416000510770D4130707D53C4A2169936823F49B
:10417000604343EAC1039360FFF7AAFF374B384A15
:104180009B68C3F30313D35CD840364B1860002000
:10419000FFF7C2FB0020BDE8F081136823F00F0396
:1041A0000B431360136803F00F039942C3D1CBE7AD
:1041B00011F0040F294B03D09A6842F4E0529A6040
:1041C0000E0703D59A6842F460429A609A68A06824
:1041D00022F0F00202439A60B9E761681F4B01299F
:1041E0001A681CD112F4003FA5D09A6841F28838B1
:1041F0001A4E22F003020A439A60FFF7D3FB0746E8
:10420000B368626803F00C03B3EB820FA1D0FFF731
:10421000C9FBC01B4045F3D90320BDE8F08102294A
:1042200002D112F0007FDFE712F0020FDCE7136823
:1042300023F00F032B431360136803F00F039D4219
:104240007FF479AF8BE70549E0688B6823F4E0538E
:1042500003438B6086E700BF003C02400038024009
:10426000E4C80408E4070020014B1868704700BF49
:10427000E4070020044B054A9B68C3F38223D35C08
:10428000034A1068D840704700380240F4C8040858
:10429000E4070020044B054A9B68C3F34233D35C18
:1042A000034A1068D840704700380240F4C8040838
:1042B000E40700202DE9F7430268044612F00106E6
:1042C0000BD0B84B996821F400019960C66A9968CF
:1042D0003143B6FA86F67609996012F4002512D0B9
:1042E000B049656BD1F88C30B5F5801F23F44013CD
:1042F00008BF012643EA050316BFB5FA85F5002578
:104300006D09C1F88C30D70210D5A648A16BD0F842
:104310008C30B1F5800F23F4400343EA0103C0F869
:104320008C3000F04C81002908BF0125900631D562
:104330009C4B9D4F1A6C42F080521A641B6C03F028
:1043400080530193019B3B6843F480733B60FFF70C
:1043500029FB80463B68D90540F13381914F3B6F83
:1043600013F4407340F03881A36A03F44072B2F54D
:10437000407F8C4A40F05681916823F0704021F4D0
:10438000F81120F4407001439160C3F30B03116FE7
:104390000B4313672368DF060CD5824AD2F88C10D2
:1043A00021F08071C2F88C10D2F88C10206B014380
:1043B000C2F88C10580408D57A49E06DD1F89020E5
:1043C00022F440320243C1F89020190408D57549FF
:1043D000206ED1F8902022F440220243C1F89020B0
:1043E000DA0308D56F49606ED1F8902022F44012AC
:1043F0000243C1F890205F0608D56A49E06BD1F806
:10440000902022F003020243C1F89020180608D53C
:104410006449206CD1F8902022F00C020243C1F8CC
:104420009020D90508D55F49606CD1F8902022F022
:1044300030020243C1F890209A0508D55949A06C72
:10444000D1F8902022F0C0020243C1F890205F050D
:1044500008D55449E06CD1F8902022F44072024310
:10446000C1F89020180508D54E49206DD1F890204C
:1044700022F440620243C1F89020D90408D549498A
:10448000606DD1F8902022F440520243C1F8902090
:104490009A0408D54349A06DD1F8902022F44042F7
:1044A0000243C1F890209F020CD53E48616FD0F8BE
:1044B0009020B1F1006F22F0006208BF01250A438D
:1044C000C0F89020580308D53649E06ED1F8902006
:1044D00022F040720243C1F89020190208D53149F8
:1044E000A06FD1F8902022F080520243C1F89020B2
:1044F0005A0108D52B49E06FD1F8902022F00052E4
:104500000243C1F89020002E40F09080B3F1007F6C
:1045100000F08C80012D50D1224D2B6823F0805368
:104520002B60FFF73FFA06462B689F0000F1E18001
:104530002068050301D5636B1BB1C10218D5A36BBD
:10454000B3B918496369D1F8882025691B0602F4BC
:10455000403243EA85131343C1F88830D1F88C30D8
:10456000226A23F4F853013A43EA0223C1F88C305B
:10457000820210D5636FB3F1006F0CD10949A369B2
:10458000D1F8882020691B0402F0706243EA80138E
:104590001343C1F88830034C236843F080532360F1
:1045A00004E000BF0038024000700040FFF7FAF955
:1045B000054623689B0040F1A380002009E0012606
:1045C000B4E6FFF7EFF9A0EB080064287FF6C2AE6F
:1045D000032003B0BDE8F083A26A02F44072934264
:1045E0003FF4C2AE3B6F3A6F23F4407342F4803223
:1045F0003A673A6F22F480323A673B673B6FDA07DB
:104600007FF5B2AEFFF7CEF941F2883980463B6FB5
:104610009B073FF5A9AEFFF7C5F9A0EB0800484599
:10462000F5D9D5E7916821F4F811ADE6384E336835
:1046300023F080633360FFF7B5F9074633681B0149
:1046400051D42268D7070DD5E36A5BB9A368D6F8C1
:10465000841060681B0701F0706143EA80130B430C
:10466000C6F88430100303D5636BB3F5801F05D003
:10467000D10219D5A36BB3F5800F15D12449E36896
:10468000D1F8840066681B0600F0E04043EA861318
:104690000343C1F88430D1F88C00E36920F01F0097
:1046A000013B0343C1F88C3092010AD5E36862688C
:1046B0001B0643EA8213A26843EA0273144AC2F853
:1046C0008430134E336843F080633360FFF76AF938
:1046D000074633681B013FF51DAFFFF763F9C01BA9
:1046E0006428F6D974E7FFF75DF9C01B6428A5D9E3
:1046F0006EE7FFF757F9801B64287FF615AF67E771
:10470000FFF750F9401B64287FF653AF60E700BF06
:104710000038024038B5C269044603688168006900
:104720001D68014360690143904811432840256A90
:104730000143E0681960596821F440510143596010
:10474000A1699868294320F4306001439960884941
:104750008B4217D1874B8849D3F8903003F003037D
:10476000B2F5004FCB5C29D1082B00F29D80DFE829
:1047700013F08C00E800EE009B00FA009B009B0009
:104780009B0076007D498B4206D17A4B7C49D3F859
:10479000903003F00C03E3E77A498B421DD1754B4F
:1047A000D3F8903003F03003102B00F0D9800ED8EE
:1047B000002B67D0B2F5004F76D01023082B73D8AA
:1047C000DFE803F0999FA272B4727272B700202BD7
:1047D00000F0BA80302B3FD0ECE76B498B420DD113
:1047E000644BD3F8903003F0C003402B00F0B88046
:1047F000DED9802B00F0A880C02BECE763498B4208
:1048000010D15C4BD3F8903003F44073B3F5807F44
:1048100000F0A680CCD9B3F5007F00F09580B3F509
:10482000407FD8E75A498B421ED1524BD3F8903083
:1048300003F44063B3F5806F00F0928006D8002B3C
:104840007CD0B2F5004F2FD110238DE7B3F5006F68
:104850007AD0B3F5406FF4D1B2F5004F69D16368F7
:10486000580800F5803078E04A498B4224D1414B0A
:10487000D3F8903003F44053B3F5805F70D015D86F
:10488000002BDED1B2F5004F35D1FFF7F3FC6268A3
:10489000530803EB4000B0FBF2F080B24FF6EF7329
:1048A000A0F110029A421AD9012020E0B3F5005F6E
:1048B0004AD0B3F5405FCEE737498B42F4D12D4B58
:1048C000D3F8903003F44043B3F5804F48D07FF6DF
:1048D0006FAFB3F5004F37D0B3F5404F7BE720F013
:1048E0000F03C0F3420022681843D0600020002369
:1048F0002366636638BDFFF7BDFC636800EB5300B9
:1049000008E0FFF7C7FCF8E76368580800F5740093
:1049100000F51050B0FBF3F080B24FF6EF73A0F14A
:1049200010029A42C0D82368D860DFE7FFF7D0FBB7
:10493000E3E76368580800F50040EBE7B2F5004F85
:10494000DFD1FFF7A7FCA2E7B2F5004FDCD1636827
:10495000580800F1F47000F59040B0FBF3F09CE7CC
:10496000B2F5004FE2D1FFF7B3FB90E7F369FFEF39
:10497000001001400038024000830008004400405D
:104980000483000800480040004C004000500040F4
:104990000014014000780040007C0040436ADA07C0
:1049A00010B506D50168846A4A6822F400322243B1
:1049B0004A609C0706D50168C46A4A6822F48032BE
:1049C00022434A60590706D50168046B4A6822F4FD
:1049D000802222434A601A0706D50168446B4A6860
:1049E00022F4004222434A60DC0606D50168846B4B
:1049F0008A6822F4805222438A60990606D50168AB
:104A0000C46B8A6822F4005222438A605A0610D589
:104A10000168046C4A68B4F5801F22F4801242EAEF
:104A200004024A6005D14A68446C22F4C002224361
:104A30004A601B0606D50268816C536823F4002384
:104A40000B43536010BD2DE9F041069D04460F460F
:104A5000164698462168CA6937EA02030CBF01224C
:104A60000022B24202D00020BDE8F0816B1CF2D0DF
:104A7000FEF798FFA0EB0800854201D3002DE9D195
:104A8000236803201A6822F4D0721A609A6822F010
:104A900001029A6020236367A367002384F87030C3
:104AA000BDE8F0812DE9F7439846436F04460E4672
:104AB000202B91464BD1002947D0002A45D090F8B1
:104AC0007030012B43D00123002580F87030212362
:104AD000C5674367FEF766FFA3680746A4F85090D2
:104AE000B3F5805FA4F8529003D123690BB9354622
:104AF0001E46B4F852203B46CDF8008092B24AB927
:104B000040212046FFF79FFF50B9202384F8700012
:104B1000636706E0002280212046FFF794FF18B16A
:104B2000032003B0BDE8F08322685EB935F8023B8C
:104B3000C3F308039362B4F85230013B9BB2A4F86C
:104B40005230D6E716F8013BF4E70120E9E70220EE
:104B5000E7E72DE9F7439946836F04460D46202B7E
:104B6000164663D100295FD0002A5DD090F87030DE
:104B7000012B5BD00123002780F870302223C76708
:104B80008367FEF70FFFA3688046A4F85860B3F56B
:104B9000805FA4F85A601BD12269BAB940F2FF12B3
:104BA000A4F85C20B3F5805FB4F85C7021D1236970
:104BB000FBB92E461D46B4F85A0080B2D8B920235E
:104BC00084F87000A36703B0BDE8F083FF22E7E735
:104BD00023B92269002AF9D07F22E1E7B3F1805F8F
:104BE00004D12269002AF7D03F22D9E7A4F85C70EB
:104BF000D8E70026DFE7CDF80090434600222021C9
:104C00002046FFF720FF98B923685B6A3B4045B90F
:104C100026F8023BB4F85A30013B9BB2A4F85A3054
:104C2000C9E705F8013BF5E70120CCE70220CAE718
:104C30000320C8E737B500250446C567FEF7B2FE76
:104C4000226803461268120707D4202300206367F6
:104C500084F87000A36703B030BD6FF07E424FF45C
:104C60000011204600922A46FFF7EDFE0028ECD006
:104C70000320F0E710B5044640B3436F1BB980F83A
:104C8000703001F07DF922682423204663671368A1
:104C900023F001031360FFF73DFD012816D0636A7E
:104CA00013B12046FFF77AFE236820465A6822F4A3
:104CB00090425A609A6822F02A029A601A6842F07A
:104CC0000102BDE810401A60FFF7B4BF012010BD1B
:104CD00000487047148300082DE9F0410F46A0B04A
:104CE000FBF755FC0446002F6DD000286DD0FBF774
:104CF00014FB8046FBF75EFB0690FBF7AAFB0A90CD
:104D0000FBF7F6FB04F1240316AE0B9000250FCB46
:104D100086E80F0004F114031AAE0FCB86E80F00EB
:104D20006168E26B002A47D1284B29480193294B3F
:104D30000C9031200293284BADF83C000A200393DD
:104D4000264B8DF822200493254B8DF823200793C2
:104D500003238DF826208DF820308DF82130012393
:104D60008DF827208DF824308DF82530ADF83430BB
:104D7000ADF83630ADF83830ADF83A301093ADF8C4
:104D80004830ADF84A30ADF84C30ADF84E300C2319
:104D9000ADF83E003846119215927C221F9101A970
:104DA000CDF8148014931E9501F075FB281C18BFD4
:104DB000012020B0BDE8F081936801359A4214BF0C
:104DC0001A460022AEE73846F3E7F2E7BCBE040815
:104DD000CE922600C0BE0408E1BE0408FABE040854
:104DE0000FBF040808B5FBF730FC08BD002307B56A
:104DF00001930123034A0093FBF78AFC03B05DF89B
:104E000004FB00BF64070020FBF7B8BC38B50C46B4
:104E1000FBF70BFD002800F0B8805C4AE3681168DE
:104E2000936041F00041D3601160594A116841F02C
:104E30000041116003F58C519160D160554A1168B1
:104E400041F00041116003F58F5110319160D16044
:104E5000514A116841F00041116003F5935191608E
:104E6000D1604E4A116841F00041116003F596513E
:104E700010319160D1604A4A116841F000411160DF
:104E800003F5073101F574719160D16045490A68F5
:104E900042F000420A6003F5083202F148058D60D5
:104EA000CD6041490D6845F000450D6002F1C00537
:104EB00002F59C728D60CD603C490D688A6045F0BA
:104EC0000045CA600D603A490A6842F000420A6033
:104ED00003F5802202F59C7502F5BC728D60CD60F1
:104EE00034490D688A6045F00045CA600D6032495A
:104EF0000A6842F000420A6003F5842203F5872322
:104F000002F5BC7502F55E7203F55E738D60CD60CF
:104F10002A490D688A60CA6045F00045284A0D603C
:104F20001168936041F00041D360E3691160002192
:104F30008268033342F4007223F00303826001208D
:104F4000204A9160D160204A20499360D360204A72
:104F50009360D36003F5F5428A60CA601D498A6098
:104F6000CA601D498A60CA601C4A1D499360D360AB
:104F700003F140028A60CA601A498A60CA601A4A0C
:104F80009360D360194A9360D36038BDD403002086
:104F90003C03002020020020A0010020A0040020EB
:104FA00008040020080300205402002054050020BB
:104FB000D404002054060020880500205407002057
:104FC00088060020D0070020A00300206C040020E9
:104FD000EC010020A0020020D402002020050020C7
:104FE00020060020EC05002020070020EC06002011
:104FF000FBF793BC0022FBF790BC000013B5002424
:1050000002A941F28833012201F8014D1148FFF74E
:10501000A0FD032815D120460BE0522B0BD0482BC6
:105020000BD03F2A09D0502B09D0582B14BF642035
:10503000052002B010BD0220FBE70320F9E70420A1
:10504000F7E79DF8072002F0DF03512BE5D101209F
:10505000EFE700BFE8A900208A88CB88F0B58E680A
:1050600003FB02F50C8885B075439CB1012C13D06D
:10507000102C13D0322C13D00A4F0B49312C18BFEF
:1050800039460291014601950096084801F0C2FA9E
:1050900005B0F0BD0649F4E70649F2E70649F0E736
:1050A0000649EEE7FCBF0408E8BF040804C0040892
:1050B00092BF0408A8BF0408BFBF0408D3BF0408F8
:1050C00010B50B4C0B4801F02DFB206878B100F0B7
:1050D00055FD10B90023236010BD206800F06FFD5E
:1050E0000549030AC2B2054801F094FAF2E710BD7F
:1050F000D8A800203CBF040859BF04086DBF0408AD
:1051000010B5141E0ADA0138012807D900F0FCFF97
:105110004FF0FF3409230360204610BDA2B24FF0C8
:10512000FF330348FFF7BEFC002818BF0024F3E755
:10513000E8A900202DE9F04FBC488DB001F0F2FA4B
:1051400001230222BA49BB4801F064FABA4801F0CF
:10515000E9FA012303220621B84801F05BFAB84AB4
:10516000B84CD36843F08073D360B74AB74BC2F8EA
:10517000B03F00235360136843F4003343F001034E
:105180001360236BDB0402D4B14801F0CBFA236B2C
:10519000B04843F480532363236B03F48053039399
:1051A000039BAD4B1E6801F0BDFAFEF71DFC0546E2
:1051B000FEF71AFC80B2B0F5876F00F0AF8016D80A
:1051C00040F2224398422BD006D840F21543984231
:1051D00000F0A080A14C24E040F23143984200F05E
:1051E000958040F235439842F4D19D4C19E0B0F5DA
:1051F0008A6F00F091800AD840F24643984200F04E
:10520000838040F249439842E4D1964C09E040F251
:10521000624398427CD0B0F58E6FDBD1924C00E0B7
:10522000924CFEF7DBFB224603462946904801F0EC
:10523000F1F9904A904B0721904801F0EBF9904D1D
:10524000FEF7C8FB01468F4801F0E4F98E4CFFF7EA
:105250000BF88E49DFF8BC92DFF8BCA2DFF8BCB2D5
:10526000B0FBF1F18A4801F0D5F916F4807F894B43
:1052700031460CBF2A4622465F6916F4007F06F0CD
:105280000F03854800930CBF2B46234601F0C2F95B
:1052900017F4003F81480CBF2946214617F4803F90
:1052A0000CBF2A46224601F0B5F900237C4C0025AC
:1052B0001A4601217B4801F0ADF92946002000F093
:1052C0001DFC8046002800F03B810146484601F065
:1052D000A1F94146504601F09DF90022A4F13801A0
:1052E000404600F01DFC10F0FF0219D0030A6E4981
:1052F0006E4801F08FF9032001F01CFA0020524B98
:1053000058600DB0BDE8F08F694C8AE7694C88E7BA
:10531000694C86E7694C84E7694C82E7694C80E711
:10532000A4F1340154F8380C00F03EFC0646002885
:1053300000F0F6805846644F01F0F4F954F8341C3C
:10534000624804AE01F066F954F8301C604801F080
:1053500061F954F82C1C5F4801F05CF954F8281CE2
:105360005D4801F057F914F81E1C14F81F3C14F89E
:10537000202C5A48009154F8241C01F04BF914F8E1
:10538000161C14F8182C14F8173C5548009154F8C2
:105390001C1C01F03FF9534801F0C4F9616C5248FC
:1053A00001F038F9216C514801F034F954F8081C27
:1053B0004F4801F02FF9A18CE38C4E484B43A16A72
:1053C000594301F027F9A18EE38E4B484B43A16B63
:1053D000594301F01FF934F8022C34F8041C4748F3
:1053E00001F018F921464648FFF736FE04F1100196
:1053F0004448FFF731FE444801F094F90FCF0FC63F
:1054000097E80F0086E80F0004A954F8380C00F064
:10541000E7FB0646002840F093803C4CED016059C4
:1054200000F0CDFB3A49030AC2B281E0C6C00408CD
:10543000CBC00408EDC00408C8C00408FAC00408C2
:10544000F0ED00E000380240001000E055CEACC5A1
:1054500017C1040837C10408003C0240FCBF04081F
:1054600063C0040893C0040887C004082BC0040864
:1054700057C1040891C1040888C104089DC10408EB
:10548000C0C00408BBC10408BBC0040840420F00F0
:10549000D4C1040800ED00E0EDC104082AC20408EC
:1054A00010A900204AC20408ACC204086DBF040859
:1054B00047C0040855C004086FC004087BC0040836
:1054C0009FC0040839C00408E0820008D9C204085B
:1054D000F4C204080FC304082AC3040845C304081F
:1054E0006BC3040891C30408A2C30408C0C3040822
:1054F000DCC30408FDC304081FC4040841C4040835
:105500005FC4040875C404088BC40408D8A800202C
:10551000BAC4040877C204088EC20408BFC20408D3
:105520000B4CED01605900F04AFB0A49030AC2B274
:10553000094801F06FF8605900F020FB6651DAE687
:1055400001358034B8F1000F7FF4B7AED3E600BF69
:10555000D8A80020A5C404086DBF04082DE9F04FA9
:105560002DED028B9FED8C8A95B08C4B1A684AB951
:105570008B4801F0D7F84FF0FF3015B0BDEC028B2F
:10558000BDE8F08FEFF31484EFF30886DFF8548260
:1055900098F80020002A61D0824A17683F015968B4
:1055A0003A46814801F036F8A30759D500247F48D0
:1055B00001F0B8F87E4DAD1B4CB1B5F5804F06D962
:1055C00000244FF4804229467A4801F023F8EFF393
:1055D000108B72B6002C45D114220021764800F0C1
:1055E00065FFDFF804E20DF1300C9EE80F000EF1CC
:1055F000100E8CE80F009EE80F000DF1500E0EE922
:105600000F0001236D4AADF83230ADF842306C4BDB
:105610000F92139398F800304BB1624B69481968A8
:1056200000F0F8FF684B1B68986800F025FE002327
:105630000022DFF8848103934FF0FF3306930023A9
:10564000CDE9042300230293029B9F4250DDDFF843
:105650006CA14FF00009FFEE008A1DE010279EE7C5
:105660000124A7E7594B4FF0DE3223F00303B34286
:10567000B2D243F8042BFAE701F084F807EE900A5F
:10568000B0EE687A09F10109F8EEE77A77EEA77AC9
:10569000A7EE887AAAEC017ABDF83630BDF834203E
:1056A0005A430E9B53439945E6D3D8F8003010AACD
:1056B000DFF838910CA943F00103DFF8E0A0C8F847
:1056C00000300023DAF80000C9F80430D9F80430BB
:1056D000079300F0B6FA0128079B33D0DAF80000F0
:1056E00000F06DFA3A49030AC2B23A4800F092FF5C
:1056F000394801F017F8EFF308839E4205D0EFF325
:1057000008813648324600F085FF002C00F04A81BF
:105710002E4BC5F58041002023F003031A1F03F12F
:105720001C0552F8047FB7F1DE3F18BF20469542B2
:10573000F7D103F1200200285DD0294800F06AFF6C
:1057400000235EE0D9F80420D31AD8F8002022F014
:105750000102C8F80020069A9A4228BF1A4606920B
:10576000039A9A4238BF1A460392DDE90412C91817
:105770001C4B42F100021B78CDE904123BB92E20EC
:1057800000F060FF104B1B68986800F075FD029BED
:105790000133029358E700BF00000030D8A8002072
:1057A000CBC40408E0070020E6C4040829C50408A7
:1057B0000000042068C504081CA1002030A10020BE
:1057C00058A9002090C50408E807002003C0032062
:1057D000A9C504086DBF0408C9C00408B9C50408F8
:1057E000FDC5040888A9002010A90020001000E0D1
:1057F000B24205D204321068D51AB0F1DE3FF7D0BC
:105800004B1B07938BF310888B484FF47A7700F08B
:1058100089FF029BDFF870A21946DA1713460A4681
:10582000DDE90401FDF7B6FE06468846FEF71CFDDD
:1058300000230546024641463046FDF7ABFE83464F
:105840008946A6FB07012A46002307FB0811FDF73E
:10585000A1FEABFB0723821A07FB093361EB0303AD
:10586000A6FB0A01CDE904230AFB08112A460023FE
:10587000FDF790FEABFB0A23821A0AFB0933DFF81F
:105880000C9261EB0303D9F80410CDE908230B91C6
:10589000FEF71EFC0A90FEF7E7FCD9F830200A9BC1
:1058A00001920B99029AB0FBFAF0B3FBFAF3009065
:1058B0004FF0640A614800F0ADFE049B0899A3FB19
:1058C0000723049B5E488A1A07FB0B3100F0A2FEF7
:1058D000039B069A31469B1B5A48B21AA6FB0A67DD
:1058E00000F098FE00230AFB08772A463046394626
:1058F000FDF750FE25220146534800F08BFED9F8F3
:105900003020002330463946FDF744FEB0FBFAF163
:105910000AFB11024D4800F07DFE002C44D007998F
:105920004B4800F077FE4B494B480B68C3F34103EB
:1059300001938B6800930B694A68C96800F06AFE9E
:10594000FFF75CFB64283FF410AE032820D13A48EF
:1059500000F0E8FE414800F0E5FE414800F0E2FEBC
:10596000404800F0DFFE404800F0DCFE3F4800F019
:10597000D9FE3F4800F0D6FE2F4800F0D3FE3D4848
:1059800000F0D0FEFFF73AFB90B164283FF4EDAD94
:10599000052812D10122384B1A70384A13685B006F
:1059A0001360E2E507942DE7354800F0BBFEBAE747
:1059B0004FF47A70FDF7FCFFE4E702280DD10022D6
:1059C0002D4B1D481A7005222C4B1A6000F0AAFEC0
:1059D000FFF776FBFFF7AEFBC7E5012815D10022E4
:1059E000254B15481A7000F09DFEEFF3108372B638
:1059F000FFF766FB104800F095FE224800F092FE8B
:105A00004FF47A70FDF7D4FFFAE704280FD10A4863
:105A100000F088FE174800F085FEFFF7EFFA002837
:105A20007FF4A3AD4FF47A70FDF7C2FFF5E70028CD
:105A30003FF49BADA1E500BFC9C0040821C604081E
:105A400069C6040890C60408BEC60408D5C6040882
:105A50000AC704081CA1002046C704088DC7040813
:105A6000B8C70408DBC704080BC804081FC804082B
:105A70003EC8040861C8040888A90020E007002087
:105A800026C704087EC8040840420F00D8A800209A
:105A9000054B20B198420CBF1846002070471A6889
:105AA000002A08BF184670478CA9002070B504462C
:105AB00090B10D682846FDF770F806462046FDF7C0
:105AC0006CF8864208D132462146284600F0E7FEAF
:105AD000B0FA80F0400970BD002070BD08B500F03C
