:020000040800F2
:1000000000800120E14F00080D4F00080F4F00084D
:10001000114F0008134F0008154F000800000000A2
:10002000000000000000000000000000174F000862
:10003000194F0008000000001B4F00081D4F00086A
:10004000315000083150000831500008315000088C
:10005000315000083150000831500008315000087C
:10006000315000083150000831500008315000086C
:10007000315000083150000831500008315000085C
:1000800031500008315000083150000800000000D5
:1000900000000000000000000000000031500008D7
:1000A000315000083150000831500008315000082C
:1000B000315000083150000831500008315000081C
:1000C000315000083150000831500008315000080C
:1000D0003150000831500008315000080000000085
:1000E0003150000831500008315000080000000075
:1000F0000000000000000000000000003150000877
:100100000000000031500008315000083150000854
:1001100000000000000000000000000000000000DF
:1001200031500008315000083150000831500008AB
:100130003150000800000000000000000000000036
:100140000000000000000000000000003150000826
:10015000315000083150000831500008315000087B
:10016000315000083150000800000000000000007D
:10017000000000000000000000000000000000007F
:1001800000000000315000080000000000000000E6
:0401900031500008E2
:1001A00010B5054C237833B9044B13B10448AFF3B1
:1001B00000800123237010BD8C030020000000008C
:1001C000BC71000808B5034B1BB103490348AFF3EA
:1001D000008008BD0000000090030020BC710008F2
:1001E00009B900207047C0F3C613C0F38232D31898
:1001F0005943C91DC908420DC90002F00302430C4E
:10020000D14003F00F03042B0BD0082B01BFC0F328
:10021000C612C0F38230821801EB0221C91DC80842
:100220007047C0F3C612C0F38230821801EB02118E
:10023000C91DC808704710B5044605F05BFF20468D
:1002400010BDDFF81404016849084900016001206D
:10025000DFF80814886088680028FCD1DFF80024E3
:100260000A600868DFF8FC13884200D0FEE7A1A00E
:100270007047DFF8E4030168490849000160012084
:10028000DFF8D813886088680028FCD1DFF8D02315
:100290000A600868DFF8CC13884200D0FEE70FF24E
:1002A000DC3210687047DFF8B00301684908490084
:1002B00001600120DFF8A413886088680028FCD161
:1002C000DFF89C230A600868DFF89813884200D0A2
:1002D000FEE70FF2AC3210687047DFF87C0301686C
:1002E0004908490001600120DFF8701388608868C0
:1002F0000028FCD1DFF868230A600868DFF864137F
:10030000884200D0FEE70FF27C321068704720B1BF
:100310000168DFF85423914200D00020DFF8381341
:100320000A68520852000A600121DFF83023916008
:1003300091680029FCD1DFF8283313601168DFF8D9
:100340002423914200D0FEE77047DFF81C130160C0
:10035000704708467047704720B10168DFF80823EE
:10036000914200D00020BC490A68520852000A603D
:100370000121BA4A916091680029FCD1B84B136001
:100380001168B84A914200D0FEE700281CBF0C302B
:1003900000F08AB90FF200300068704700281CBFD7
:1003A0000C3000F086B9704770B5049D044605987E
:1003B000DBB22D0445EA036545EA00250FF2DC2097
:1003C0000668A54801684908490001600120A34961
:1003D000886088680028FCD1A14B0B600868A1499F
:1003E000884200D0FEE71CB90FF2B420006870BD4F
:1003F0009D491160226000F055F910B90FF2882074
:100400000BE09A498D4228BF0FF2802005D20FF2EF
:10041000802000F063F918B99EA0066800212160D1
:10042000304670BD28B101688F4A914208BF02462C
:1004300000D0002288490B685B085B000B6001213B
:10044000864B996099680029FCD1DFF814C2C3F883
:1004500000C01968834B994200D0FEE702B100202A
:1004600070472DE9F04381B00A4618B101687E4B10
:10047000994200D0002078490B685B085B000B6054
:100480000121764B996099680029FCD1744C1C605D
:100490001968744B994200D0FEE740B30AB91122A3
:1004A00006E0D16909B9132202E0D16841B91222EC
:1004B00010210C3000F0FDF8002001B0BDE8F08301
:1004C00078CA00F1140100F1240781E8780092E86D
:1004D000005387E8005303218160C26B3AB19168F1
:1004E00050608A4218BF002918BF0A46F7D101B0F0
:1004F000BDE8F083000000002DE9F04F83B028B183
:100500000368594CA34208BF054600D00025524855
:1005100003685B085B0003600120504B986098689B
:100520000028FCD14E4C1C6018684E4B984200D0FD
:10053000FEE7002D48D0AB6803F00300032802D08B
:10054000302211213CE00F001CBFF868002835D094
:10055000788808B9212232E014000BD0E16851B349
:10056000618811B9212213212AE0884202D0212278
:10057000022125E0D8054CBF02200020590A01F0D5
:10058000010141EA0008686BA96B066808680090E1
:1005900071683068FFF724FE019000984168006898
:1005A000FFF71EFEF968002C024614BFD4F80CB009
:1005B0004FF0000B0CE01722132101E0172212214B
:1005C00005F10C0000F075F8002003B0BDE8F08FD5
:1005D00018F0020014BFDFF89890DFF898905FEAF7
:1005E000C8734CBFDFF888A0DFF88CA07B882B8213
:1005F00000276F8208B9B160F16044B15FEAC8704A
:1006000005D4009BC3F808B00098C0F80CB0688A05
:100610002B8A98421CD22C463546019E17468846A6
:10062000A86832464146C847A860B044204600F05A
:10063000D7F8009881683A465846D04700EB070B38
:10064000608A218A401C608280B28842E8D32546B5
:10065000688A03B0BDE8F08F002000E0003002405F
:10066000C2A507F4CDB5E8B50001C0A101000101A4
:100670003702000853030008570300080303000073
:100680000100000001010000301000000110000016
:100690000384048402100000101000000000000019
:1006A00010100000012070470146002208680A600F
:1006B000704703785FEA036C04D141EA02210160CC
:1006C000012070470020704710B50446E168884754
:1006D000A068A04208BF002010BD000000B581B096
:1006E00060B10178032909D15FF0040263A105F02C
:1006F000B9FE401E8041C00F01B000BD002001B016
:1007000000BD000042F21172811A012984BFC91E86
:100710000D2901D90F3945D1801A21D0401E21D091
:10072000801E21D0401E21D0401E21D0401E21D04D
:10073000401E21D0401E21D0401E21D0401E21D07D
:10074000401E21D0401E21D0401E21D0401E21D06D
:10075000401E21D0401E21D0801E21D012A0704703
:1007600012A0704712A0704727A0704728A07047BA
:1007700010A0704710A0704727A070470FA07047C7
:1007800027A0704728A070472CA070472DA0704765
:100790000BA070472DA070472EA0704730A0704767
:1007A00034A0704700A0704700000000414444009E
:1007B000424E0000475255004C524E004E4C000035
:1007C000534D000042F21171401A012884BFC01E2F
:1007D0000D2801D90F3801D1012070470020704742
:1007E00030B5044681B0E06B58B12064256CE968EF
:1007F00028468847A868A84208BF0020002820642F
:10080000F4D101B030BD0000434F4E5632440000D9
:1008100044454E53450000004C53544D0000000029
:100820004E4F524D000000004F5054494D495A451B
:10083000445F434F4E563244000000005045524D35
:1008400055544500504F4F4C0000000053504C4948
:100850005400000054494D455F44454C4159000047
:1008600054494D455F4449535452494255544544B7
:1008700000000000434F4E434154000003840484B1
:100880002DE9F04F81B00D9D139CDDF82C900E9E4C
:100890000A98DDF83CB0DDF840C0DDF844E0DDF852
:1008A00048802F1B09FB07FA371B07FB09F7009746
:1008B00088420CBF9FED860AB7EE000A05FB0CF5D7
:1008C00006FB09F706FB0C8606FB09F603EB86031D
:1008D0000C9EABEB0E0B04FB09F409FB05F5002E97
:1008E0000BFB07FB02EB85094ED00D46194632463D
:1008F0004FEA0003D3ED000ABEF1010F60EE800A5B
:100900004E4639DBDDF800C07046012C2CDB14F0BC
:1009100003080AD091ED001AD6ED001A361D091D04
:10092000B8F1010841EE210AF4D1A70800F01C80BB
:1009300091ED002A96ED001AD1ED011AD6ED012AAB
:1009400042EE010A41EEA20A91ED022A96ED021A48
:10095000D1ED031AD6ED032A1036103142EE010A0A
:100960007F1E41EEA20AE3D1401E06EB8A0601EB90
:100970008C01CAD1CDF800C0C5ED000A2D1D1B1D8C
:10098000521E01EB8B01B5D101B0BDE8F08F000024
:100990002DE9F24F84B0149FDDF858B0119D1398E3
:1009A000159CDDF85CC0DDF83CA0109EDDF8489099
:1009B00009FB07BB114603EB8B0B0E9A049BA5EBBF
:1009C0000C0E001B9A420CBF9FED410AB7EE000AC5
:1009D0007D430AFB05F501EB8501002501EB8A0744
:1009E000B942B6FBFAF60AFB0EFEA9EB0C0800FBB7
:1009F00009F0009768D20E920396039A002A5FD0FE
:100A0000049B0E9A029003EB8507039BCDF804101C
:100A100002EB8506D6ED000ADDF80490012C60EEAD
:100A2000800A41DB4FEA0402BCF1010F36DB1CF007
:100A300003010BD09BED001AD9ED001A491E41EEBF
:100A4000210A0BF1040B09EB8A09F3D15FEA9C0040
:100A500000F024809BED001AD9ED001A09EB8A0101
:100A600041EE210ADBED011A91ED001A01EB8A013A
:100A700041EE810A9BED021AD1ED001A01EB8A01C9
:100A800041EE210ADBED031A91ED001A401E41EE02
:100A9000810A0BF1100B01EB8A09DBD1521E09EB25
:100AA0008E090BEB880BBFD10298C7ED000A6D1CB5
:100AB0003F1D361D5B1E0BEB800BABD102980199DD
:100AC000009A091D914298D305B0BDE8F08F00004F
:100AD000000000002DE9F24F84B0DDF84CE0DDF8B5
:100AE00058C018981099129C159D0F9FAEEB0C0ED4
:100AF0009246149AB1FBF2F91199CDF80C90091AAB
:100B000079431E46B7FBF2F304FB03FB0EFB0BFE1F
:100B1000DDF85CB0A7EB0309A4EB000804FB05B407
:100B20005C4306EB84040E9EDDF810B05E45119E1A
:100B30000CBF9FED3F0AB7EE000A75436F430AEB07
:100B40008705002A08FB03F84FF0000A6CD00092DA
:100B5000039A002A62D00E9A049FCDF858C002EB87
:100B60008A06039ACDF808E007EB8A07CDF804500F
:100B7000DDF858E0D6ED000A019DBEF1010F60EEF0
:100B8000800A3BDB012832DB4FEA000C05EB830BCC
:100B90005D4527D294ED001AD5ED001A2D1D241DB8
:100BA0005D4541EE210A1DD294ED001AD5ED001AE3
:100BB0002D1D241D5D4541EE210A13D294ED001A2E
:100BC000D5ED001A2D1D241D5D4541EE210A09D2E7
:100BD00094ED001AD5ED001A2D1D241D5D4541EE42
:100BE000210AD7D3BCF1010C05EB8905CED1BEF1AA
:100BF000010E05EB810504EB8804C3D1029DC7ED0E
:100C0000000A3F1D361D521E04EB85040AF1010A3D
:100C1000AED1DDF858C0DDF808E0019D009A521E03
:100C200005EB8305009293D105B0BDE8F08F00007D
:100C3000000000002DE9F04F8DB0169C04B90C4661
:100C40001E9F1D9EDDF87080DDF880E01F9DDDF8A1
:100C500060C0DDF86490DDF868A0DDF86CB00B9042
:100C6000BF1B1798B8F1010FAEEB050E14D1CDF8EC
:100C700024E0089507970190CDF808C00696CDF8B6
:100C800014B0CDF810A0CDF80C9000940B98FFF79D
:100C9000F7FD0DB0BDE8F08F804514D1CDF824E00C
:100CA000089507970190CDF808C00696CDF814B0C6
:100CB000CDF810A0CDF80C9000940B98FFF768FECB
:100CC0000DB0BDE8F08FCDF828E0099508970190A8
:100CD000CDF808C00796CDF81880CDF814B0CDF83F
:100CE00010A0CDF80C9000940B98FFF7F3FE0DB018
:100CF000BDE8F08F70470000F0B40446049803EBA1
:100D00008005203D08289FEDD90A2FD22035AB421F
:100D100024D2087893ED001A02EB8006181DD6ED58
:100D2000000AA84200EE810A18D24B7890ED001A12
:100D300002EB8306001DD6ED000AA84200EE810AF0
:100D40000CD28B7890ED001A02EB8306031DC91CB0
:100D5000D6ED000AAB4200EE810ADAD3D4ED000AE8
:100D600030EE800A84ED000AF0BC704701F0030009
:100D70000328F3D8DFE800F00336414CEEE79D424C
:100D800080F0D5802035AB42E8D2087893ED001A88
:100D900002EB8006181DD6ED000AA84200EE810A7B
:100DA000DCD24B7890ED001A02EB8306001DD6EDE5
:100DB000000AA84200EE810AD0D28B7890ED001A8A
:100DC00002EB8306031DC91CD6ED000AAB4200EE00
:100DD000810ADAD3D4ED000A30EE800A84ED000AED
:100DE000F0BC704711F8010B93ED001A02EB80067E
:100DF0001B1DD6ED000A00EE810A11F8010B93EDE0
:100E0000001A02EB80061B1DD6ED000A00EE810AD7
:100E100011F8010B93ED001A02EB80061B1DD6EDB5
:100E2000000A9D4200EE810A4ED3CF7893ED004A2E
:100E300093ED013A93ED022A93ED031A02EB870634
:100E40008F78D6ED000A02EB87064F78D6ED001AB0
:100E500002EB87060F78D6ED002A02EB870603F136
:100E60001000D6ED003A0B7903EE840A02EE830AF5
:100E700001EE820A02EB830700EE810A4B79D7ED7F
:100E8000000A90ED004AD0ED013A90ED023AD0ED23
:100E9000032A02EB83078B7997ED001A02EB830795
:100EA000CB79D7ED001A02EB830700EE840A0831F4
:100EB00000F1100301EE230A97ED002A01EE830AE8
:100EC0009D4202EE220AB0D22035AB42BFF446AFBB
:100ED000087893ED001A02EB8006181DD6ED000A83
:100EE000A84200EE810ABFF439AF4B7890ED001AAA
:100EF00002EB8306001DD6ED000AA84200EE810A2F
:100F0000BFF42CAF8B7890ED001A02EB8306031D23
:100F1000C91CD6ED000AAB4200EE810AD8D3D4ED4D
:100F2000000A30EE800A84ED000AF0BC7047CF78EA
:100F300093ED004A93ED013A93ED022A93ED031AE3
:100F400002EB87068F78D6ED000A02EB87064F7812
:100F5000D6ED001A02EB87060F78D6ED002A02EBD9
:100F6000870603F11000D6ED003A0B7903EE840AF0
:100F700002EE830A01EE820A02EB830700EE810A89
:100F80004B79D7ED000A90ED004AD0ED013A90ED93
:100F9000023AD0ED032A02EB83078B7997ED001A12
:100FA00002EB8307CB79D7ED001A02EB830700EE43
:100FB000840A083100F1100301EE230A97ED002A9C
:100FC00001EE830A9D4202EE220AB0D2DAE6000068
:100FD000F0B4049C65086D0003EB8505AB429FED02
:100FE000230A2FD211F8016B93ED002A93ED011A19
:100FF00006F00F07360902EB860602EB8707D6EDEF
:10100000001AD7ED000A083301EE820AAB4200EE67
:10101000810A17D211F8016B93ED002A93ED011AA2
:1010200006F00F07360902EB860602EB8707D6EDBE
:10103000001AD7ED000A083301EE820AAB4200EE37
:10104000810ACFD3E40709D5097893ED001A09097D
:1010500002EB8102D2ED000A00EE810AD0ED001A07
:1010600031EE800A80ED000AF0BC704700000000FD
:101070002DE9F04F05469BB0686900680168426839
:1010800080680F68D2F800A0D0F800E04068BA6825
:101090000D920028DAF808300193DAF81010DAF827
:1010A0000C903C69D7F80C802B8C0C93AE8C0F966F
:1010B000EA6A2E8DDEF80C300E9392B2DEF808301C
:1010C00000933F68D7F808C0DEF80070D7F808E052
:1010D000AB691ABF006887680027DAF80000D0F80B
:1010E00008A0E869002814BF0546DFF810575242EF
:1010F00000290B926BD076421996CDF85890159432
:101100001091DDF838B00B9815990B9A169C199E22
:101110004042D8BF0020891A594528BF5946002CA3
:1011200008FB02624BD00294CDF838B0019CDDF888
:1011300000901493CDF84CC0CDF848E0119718906A
:1011400017919346029F7042D8BF0020A8EB06017A
:10115000494528BF49460A910990CDF81090CDF82D
:101160000C80029458441799189A129B0891079280
:1011700014990E9A069105920D99119A0191009277
:101180000D9A1399504301EB800251460020FFF75E
:1011900051FD224651465046A8470C9886197F1E9D
:1011A0000AEB840A8344CED10194CDF80090DDF897
:1011B00038B0149BDDF84CC0DDF848E0119F0B9966
:1011C0000F9A109C5118641E0B9110949BD11BB068
:1011D000BDE8F08F2DE9F04F0346B5B058690068BF
:1011E00001684268D1F800B017688068D0F800A0A4
:1011F00044680BF1140191E864102DA880E8641094
:10120000DBF808000490B96803913869FA681B920A
:10121000DBF810500D95DBF80C2002921D8C119517
:101220009A8C198D1091B3F82CC0D3F830E05D6B17
:10123000ADF804509E690C96DAF8081000919D6B89
:10124000DAF80C100F95DD6B1A951D6C19955D6C15
:101250001D953E6AD3F84880DD6C46430596002C08
:10126000FE691896DBF80060B6681796DAF8006039
:10127000B6680B961ABF2468D4F808B04FF0000B7C
:10128000DC69002C12BF0E94DFF870450E941E6DC1
:10129000009C16966D42029B3F68BDF80460A3EB6C
:1012A0000409109B119C994419FA8EF3D7F808E0B1
:1012B000059FB3FBF4F40D9B5B1A63449E19B6FBC8
:1012C000F2F3641C5B1C77440028159700F018812A
:1012D000C8F10008CDF8D0802A9314952490149B6F
:1012E000149D1A9E2A98002BD8BF00237519A84276
:1012F00032BF0746149FF7191B98349D002800F051
:10130000F680DE1B3396CDF8ACC025942393289746
:10131000139522901398139B0F9C0028CCBF064670
:1013200000262598E318984232BF0346139BE31822
:101330003398F41A04FB00FA2398289CA042F04644
:101340004FF0000980F2C5802B9C239D2C925043C6
:10135000041B28982196451B1198279312941F95DA
:10136000129A0D9B129C279E5242D8BF00221B1B33
:101370008B423ABF0D9B1D1B0D46219C109B444385
:10138000E31A219CB44280F29980AD1A3295A6EB03
:10139000040C129D309E049C009FCDF898B07543BC
:1013A0003195CDF880A0039D029E11901C91CDF83F
:1013B000A4E01E929A46E346319ADDF8BCE0DAF1E9
:1013C0000001D8BF002101EB0A0C0EFB0C22A6EB9A
:1013D0000A00B84217980244269834BFA6EB0A03C5
:1013E0003B4608B94FEA0800DDF830E0DDF8C8C038
:1013F0005B1ABEF1010F12D108910993CDF81CC000
:101400001E9906911C9905910090049703960295E8
:10141000019441460B9B0020FFF732FA28E0A645D5
:1014200012D1099308910090CDF81CC0049703963F
:101430000295019400201C9B1E990593069141463C
:101440000B9BFFF7A5FA13E009910A930090CDF8E2
:1014500020C0049703960295019400201E990C9BCE
:10146000079106931C990B9B05914146FFF732FBB0
:101470000E9B2A464146404698472098DDF858C0C2
:1014800009F10109484518BF002000902B46299812
:101490002A464146E0471198DDF85480BBF1010B24
:1014A000824489D111981C99DDF898B0DDF8A4E048
:1014B000DDF880A00494039502960097129A2C9B65
:1014C0009A1812921F9A521E1F927FF449AF1190E0
:1014D0002C9A1398199B18181390229B18985B1E2E
:1014E000864422937FF416AFDDF8ACC0259C149B94
:1014F0001D9D249EEB18761E149324967FF4EFAE68
:1015000035B0BDE8F08F00002DE9F04F89B040699B
:101510000068016842688068D0F8008044680E68FE
:10152000D2F800E0DEF80C00DEF81020B568DEF836
:1015300008105043D8F8002013684FEA535AC3F3F9
:10154000C6190AF0030A5B0C002729FA0AF903F00E
:101550000F03CDF80490042B366814BF082BD7680E
:10156000DEF80020D8F81830D2F80890B2680028C9
:1015700009EB810666D0CDF81C800594069104978E
:1015800000960390079801688868059909B10C686E
:10159000A168049C002C009C10D1A14547D2A24612
:1015A0002E464F461C46904681460D46002D19BFDB
:1015B00055F8040B02900021029128E0A14536D293
:1015C000049C009F9846164682468B46BBF1000F4E
:1015D00019BF5BF8040B029000200290019900955E
:1015E000042933462246514602A803D1FFF7F0FCF6
:1015F00002E000BFFFF780FB029849F8040BB945F1
:10160000C244E3D304944346324600970FE0334686
:101610004246494602A800F0BFFC029847F8040B76
:101620005745A144C2D335462346B94642460098A1
:10163000069900EB810403980094401E02EB85029A
:1016400003909FD109B0BDE8F08F00002DE9F04F65
:101650008AB015468B469A46149BD0F804C0696838
:1016600000915C680294B3F8009004885E8840881A
:10167000BBF80010BBF80220B5F800E06F88DBF87B
:1016800004300593049300254FFA8AF3002B0CBF16
:10169000A0468046012F0CBF00230423BEF1010F9A
:1016A00004D1012F07D0C6F1000E05E0012F08BFBD
:1016B0004FF0010E00D0AE460FFA8EF701974FFAA9
:1016C0008AF7002F0CBFA3468346CB4515D19DF961
:1016D0004CE0BEF1000F0CBF91468946B1450CD1DC
:1016E0004FFA8AF6002E0CBF8346A346BEF1000FC8
:1016F0000CBF0E461646B3456CD06FF002000AB020
:10170000BDE8F08F059D9700089786000796CDF8F5
:1017100018C0ADF802404446DDF810C04FFA8AF612
:10172000DDF81880002E9FED341A0CBF0646BDF878
:101730000260B6B14FFA8AF7002F0CBF0427079F4B
:10174000BEF1000FD8ED001A95ED002AB8440CBF89
:10175000089F0427ED19761EB7B2002F01EE821AFA
:10176000E8D120EE011ADBED001A641E00EEA11A8A
:10177000A4B2BEF1000F89ED001A0EBF151B0D1BA0
:101780005543002C09F104099B440CEB8505C5D198
:10179000DDF80C90069DBDF80240CDF810C0099E02
:1017A0004E4403964FFA8AF6002E0CBF4FEA800C87
:1017B0004FF0040CAC44019D0BEB850BBDF80050C1
:1017C0006E1EADF80060BDF8005055B900200AB09B
:1017D000BDE8F08FDDF800B00395ADF80080CDF8DE
:1017E000249003AE029D3688BEF1000F05EB8609FA
:1017F0000CBF9046884685E700000000F50C000805
:10180000F0B58BB0416909680A68496809680D68D4
:10181000146853689268AD68CE680F690995ADF891
:101820002070ADF822602568E668AD682469ADF8DF
:101830001840ADF81A6007951C68DD68A4681B693C
:10184000ADF81030ADF8125005941368D4689B6859
:101850001269ADF80820ADF80A4008AA0393019276
:1018600002AA90F92110009104A990F92030D0ED3E
:10187000070A90ED060A06A8FFF7E8FE0BB0F0BDD8
:101880002DE9F0410F4614462DED028B022C064641
:1018900097ED008ADFEDC38A3DD3611E3A1D11F03A
:1018A00003000CD092ED000AB4EE480AF1EE10FAF3
:1018B00058BFB0EE408A401E02F10402F2D18908FE
:1018C00000F02B8092ED000AB4EE480AF1EE10FA17
:1018D00058BFB0EE408A92ED010AB4EE480AF1EE2C
:1018E00010FA58BFB0EE408A92ED020AB4EE480AF0
:1018F000F1EE10FA58BFB0EE408A92ED030AB4EE52
:10190000480AF1EE10FA58BFB0EE408A491E02F1C3
:101910001002D7D101E0002C40D0B0464FEA0405B8
:1019200097ED000A30EE480A03F0DCFB3F1D88ED1E
:10193000000A6D1E78EE808A08F10408F0D1B7EE37
:10194000000A14F0030080EE280A09D0D6ED000A40
:1019500060EE800AC6ED000A401E06F10406F5D1CD
:10196000A4081BD0D6ED000A60EE800AC6ED000A7E
:10197000641E96ED011AD6ED020A21EE001A86EDDC
:10198000011A60EE800A96ED031AC6ED020A21EEF6
:10199000001A86ED031A06F11006E3D1BDEC028BA6
:1019A000BDE8F0812DE9F04381B00C4604EB8209DB
:1019B000089E099F4C4580461D460AD22A4621466C
:1019C0004046FFF75DFF04EB86044C4508EB8708B3
:1019D000F4D301B0BDE8F08370B50D4605EB820687
:1019E000B542044680F00A8095ED000A03F022FB20
:1019F00084ED000A241D2D1DB542F5D370BD0000F5
:101A000070B50D4605EB8206B542044680F01480A1
:101A100095ED000AB1EE400A03F064FBF7EE000A10
:101A200070EE200AB7EE000A80EE200A84ED000A6C
:101A3000241D2D1DB542EBD370BD000001EB8202C9
:101A4000914216D24FF0FF3391ED000AB5EE400AF5
:101A5000F1EE10FACCBF9FEDC60A00EE103A091D58
:101A60008446B8EEC00A91420CF104008CED000AE5
:101A7000EAD3704701EB8202914216D2034691ED00
:101A8000001A181DB4EE410AF1EE10FA58BFB0EE7C
:101A9000401AB4EE601AF1EE10FA58BFB0EE601AB8
:101AA000091D914283ED001AE8D3704701EB8202D1
:101AB00091420FD2034691ED000A181DB5EE400A7F
:101AC000F1EE10FAD8BF9FED370A091D914283ED60
:101AD000000AEFD37047000001EB820291421AD254
:101AE000B1EE080A0346D1ED000A181DF5EE400AD2
:101AF000F1EE10FA08DDF4EE400AF1EE10FA58BFEC
:101B0000F0EE400A02E000BFDFED260A091D914217
:101B1000C3ED000AE6D37047F0B581B00D4605EB82
:101B200082062DED048BB5420446F0EE408AB0EEFD
:101B3000608A32D2274695ED009A3C1DB5EE409A58
:101B4000F1EE10FA4CBFDFED179AF0EE499AB0EEC5
:101B5000490A03F0C7FAFFEE000A30EE200A20EE31
:101B6000280AB5EE400AF1EE10FA05DD9FED0D1AD8
:101B700079EE819A0AE000BFB0EE490A03F0B2FAAA
:101B8000FFEE000A30EE200A40EE289A2D1D28EEC6
:101B9000290AB54287ED000ACCD3BDEC048B01B015
:101BA000F0BD00000000000001EB8303994220D249
:101BB00091ED000A92ED001AB5EE400AF1EE10FA2E
:101BC0004CBFDFEDA50AF0EE400AB1EE400AB5EEDB
:101BD000400AF1EE10FA48BF9FED9F0A091D121D41
:101BE000844641EE400A99420CF10400CCED000A13
:101BF000DED37047406903681968D1F800C0DCF88B
:101C00000420DCF80800DCF80C104243DCF810007B
:101C1000DCF800C04A4359680B684243DCF808000E
:101C2000D3F800C0DCF8081000EB820290420FD21B
:101C30000B4690ED000A191DB5EE400AF1EE10FAC0
:101C4000D8BF9FED850A001D904283ED000AEFD3B7
:101C500070470000406903681968D1F800C0DCF8DB
:101C60000420DCF80800DCF80C104243DCF810001B
:101C7000DCF800C04A4359680B684243DCF80800AE
:101C8000D3F800C0DCF8081000EB820290421AD2B0
:101C9000B1EE080A0B46D0ED000A191DF5EE400A18
:101CA000F1EE10FA08DDF4EE400AF1EE10FA58BF3A
:101CB000F0EE400A02E000BFDFED670A001D90422F
:101CC000C3ED000AE6D37047F0B581B02DED048B6B
:101CD000416990ED078A0D68D0ED068A2A6814687C
:101CE00020686368A168E2684B432169846868687A
:101CF00053434B4301680A68956804EB8306B4427A
:101D000031D22F4694ED009A3D1DB5EE409AF1EE8A
:101D100010FA4CBFDFED509AF0EE499AB0EE490A46
:101D200003F0E0F9FFEE000A30EE200A20EE280A68
:101D3000B5EE400AF1EE10FA04DD9FED471A79EE98
:101D4000819A09E0B0EE490A03F0CCF9FFEE000AEF
:101D500030EE200A40EE289A241D28EE290AB442CB
:101D600087ED000ACDD3BDEC048B01B0F0BD0000BF
:101D70000100000030B441690C68226815686B6886
:101D8000A968EA6880694B4329692D6853436268F2
:101D900014684B43A96825680468AA68A06801EB29
:101DA000830399421FD2144691ED000A221DB5EE1D
:101DB000400AF1EE10FA4CBFDFED270AF0EE400AC0
:101DC000B1EE400AB5EE400AF1EE10FA48BF9FEDC1
:101DD000220A90ED001A091D001D41EE400A9942A9
:101DE000C4ED000ADFD330BC7047000040690368CF
:101DF0001968D1F800C0DCF80420DCF80800DCF831
:101E00000C104243DCF81000DCF800C04A4359686B
:101E10000B684243DCF80800D3F800C0DCF8081077
:101E200000EB8202904216D24FF0FF3390ED000A91
:101E3000B5EE400AF1EE10FACCBF9FED080A00EEB5
:101E4000103A001D8C46B8EEC00A90420CF1040115
:101E50008CED000AEAD3704700000000010000008A
:101E600030B4416990ED070A0C68D0ED060A22688B
:101E700015686B68A968EA68286880684B43296917
:101E800053434B4361680A681468A16800EB8302FE
:101E9000904216D20B4690ED001A191DF4EE410A3D
:101EA000F1EE10FA58BFB0EE601AB4EE401AF1EE3F
:101EB00010FA58BFB0EE401A001D904283ED001A90
:101EC000E8D330BC7047000070B5406903681968FA
:101ED0000C686268A068E168424320692468A468CD
:101EE0004A434243586801680B689D6804EB8206C8
:101EF000B44213D294ED000AB1EE400A03F0F2F8B6
:101F0000F7EE000A70EE200AB7EE000A80EE200A13
:101F100085ED000A2D1D241DB442EBD370BD0000D9
:101F200070B54069036819680C686268A068E16868
:101F3000424320692468A4684A43424358680168C0
:101F40000B689D6804EB8206B44209D294ED000A46
:101F500003F070F885ED000A2D1D241DB442F5D361
:101F600070BD30B583B04069046821680D68AA6807
:101F70000192009213466868E968424328692D6817
:101F80004A43424360680468A9682568A868FFF767
:101F900009FD03B030BD000030B50446084681B0ED
:101FA00011461A46002500956B4600F051FC94ED51
:101FB000000ADDED000A70EE200AC4ED000A01B04F
:101FC00030BD0000F0EE400AF5EE400AF1EE10FAE6
:101FD0009FED280A01DBB1EEE00A704703F082B8FA
:101FE00003F0FEB803F026B8B5EE400AF1EE10FAA1
:101FF000D8BF9FED200A7047B5EE400AF1EE10FA07
:10200000D8BF20EE200A704700B581B0B1EE400A7B
:1020100003F068F8F7EE000A30EE200AB7EE001A77
:1020200081EE000A01B000BDF0EE400A9FED121AE9
:10203000B6EE000A00EE810ADFED100AB4EE600A87
:10204000F1EE10FA07DAB5EE400AF1EE10FA04D517
:102050009FED080A7047B7EE000A7047B5EE400AD8
:10206000F1EE10FACCBF9FED060A9FED060AB8EE1E
:10207000C00A704700000000CDCC4C3E0100803FFC
:1020800001000000FFFFFFFF81F0004102E000BF00
:1020900083F0004330B54FEA41044FEA430594EA28
:1020A000050F08BF90EA020F1FBF54EA000C55EA63
:1020B000020C7FEA645C7FEA655C00F0E2804FEA34
:1020C0005454D4EB5555B8BF6D420CDD2C4480EA16
:1020D000020281EA030382EA000083EA010180EA46
:1020E000020281EA0303362D88BF30BD11F0004F94
:1020F0004FEA01314FF4801C4CEA113102D04042CA
:1021000061EB410113F0004F4FEA03334CEA133304
:1021100002D0524263EB430394EA050F00F0A7801C
:10212000A4F10104D5F1200E0DDB02FA0EFC22FA17
:1021300005F2801841F1000103FA0EF2801843FA0B
:1021400005F359410EE0A5F120050EF1200E012AFC
:1021500003FA0EFC28BF4CF0020C43FA05F3C0183A
:1021600051EBE37101F0004507D54FF0000EDCF1B3
:10217000000C7EEB00006EEB0101B1F5801F1BD35C
:10218000B1F5001F0CD349085FEA30004FEA3C0C60
:1021900004F101044FEA445212F5800F80F09A8056
:1021A000BCF1004F08BF5FEA500C50F1000041EB5A
:1021B000045141EA050130BD5FEA4C0C404141EB5E
:1021C000010111F4801FA4F10104E9D191F0000F85
:1021D00004BF01460020B1FA81F308BF2033A3F108
:1021E0000B03B3F120020CDA0C3208DD02F1140CFF
:1021F000C2F10C0201FA0CF021FA02F10CE002F13A
:102200001402D8BFC2F1200C01FA02F120FA0CFC32
:10221000DCBF41EA0C019040E41AA2BF01EB04517B
:10222000294330BD6FEA04041F3C1CDA0C340EDC79
:1022300004F11404C4F1200220FA04F001FA02F3BC
:1022400040EA030021FA04F345EA030130BDC4F17A
:102250000C04C4F1200220FA02F001FA04F340EA6F
:102260000300294630BD21FA04F0294630BD94F020
:10227000000F83F4801306BF81F480110134013D07
:102280004EE77FEA645C18BF7FEA655C29D094EA78
:10229000050F08BF90EA020F05D054EA000C04BFF6
:1022A0001946104630BD91EA030F1EBF00210020E1
:1022B00030BD5FEA545C05D14000494128BF41F080
:1022C000004130BD14F580043CBF01F5801130BDE4
:1022D00001F0004545F0FE4141F470014FF000006F
:1022E00030BD7FEA645C1ABF194610467FEA655C20
:1022F0001CBF0B46024650EA013406BF52EA0335C2
:1023000091EA030F41F4002130BD00BF90F0000FAF
:1023100004BF0021704730B54FF4806404F13204EB
:102320004FF000054FF0000150E700BF90F0000FA4
:1023300004BF0021704730B54FF4806404F13204CB
:1023400010F0004548BF40424FF000013EE700BF9B
:1023500042004FEAE2014FEA31014FEA02701FBF2B
:1023600012F07F4393F07F4F81F06051704732F05D
:102370007F4208BF704793F07F4F04BF41F40021B4
:10238000704730B54FF4607401F0004521F0004112
:102390001CE700BF50EA010208BF704730B54FF09C
:1023A00000050AE050EA010208BF704730B511F09D
:1023B000004502D5404261EB41014FF4806404F1D5
:1023C00032045FEA915C3FF4D8AE4FF003025FEA5B
:1023D000DC0C18BF03325FEADC0C18BF033202EBDF
:1023E000DC02C2F1200300FA03FC20FA02F001FA39
:1023F00003FE40EA0E0021FA02F11444BDE600BFDC
:102400004FEA4102B2F1E04324BFB3F5001CDCF116
:10241000FE5C0DD901F0004C4FEAC0024CEA50704E
:10242000B2F1004F40EB830008BF20F0010070477D
:1024300011F0804F21D113F13872BCBF01F0004080
:10244000704741F480114FEA5252C2F11802C2F1B2
:10245000200C10FA0CF320FA02F018BF40F0010033
:102460004FEAC1234FEAD32303FA0CFC40EA0C00E5
:1024700023FA02F34FEA4303CCE77FEA625307D122
:1024800050EA01331EBF4FF0FE4040F44000704759
:1024900001F0004040F0FE4040F40000704700BFF3
:1024A00053B94AB9002908BF00281CBF4FF0FF31BB
:1024B0004FF0FF3000F072B9ADF1080C6DE904CEB9
:1024C00000F006F8DDF804E0DDE9022304B070470F
:1024D0002DE9F047089E04468846002B4BD18A42DE
:1024E000154667D9B2FA82F24AB1C2F1200701FA61
:1024F00002F320FA07F7954047EA030894404FEAB1
:10250000154E230CB8FBFEF71FFA85FC0EFB17884F
:1025100043EA084307FB0CF1994209D9EB1807F18C
:10252000FF3080F01B81994240F21881023F2B441A
:102530005B1AA4B2B3FBFEF00EFB103344EA034473
:1025400000FB0CFCA44509D92C1900F1FF3380F0E5
:102550000781A44540F2048102382C4440EA074038
:10256000A4EB0C0400271EB1D4400023C6E90043AD
:102570003946BDE8F0878B4209D9002E00F0EB8088
:102580000027C6E9000138463946BDE8F087B3FAAE
:1025900083F7002F47D18B4202D3824200F2FA80A8
:1025A000841A61EB030301209846002EE0D0C6E9AF
:1025B0000048DDE702B9FFDEB2FA82F2002A40F0FD
:1025C0008F80491B4FEA154E1FFA85F80127B1FB92
:1025D000FEFC230C0EFB1C1143EA014308FB0CF12B
:1025E000994207D9EB180CF1FF3002D2994200F260
:1025F000CD808446591AA3B2B1FBFEF00EFB101435
:1026000043EA044408FB00F8A04507D92C1900F15F
:10261000FF3302D2A04500F2B6801846A4EB0804AE
:1026200040EA0C409FE7C7F1200CBB4022FA0CFEA9
:102630004EEA030E01FA07F420FA0CF521FA0CF326
:102640004FEA1E482543B3FBF8F92C0C08FB19335D
:102650001FFA8EFA44EA034309FB0AF49C4202FA89
:1026600007F200FA07F10BD91EEB030309F1FF3063
:1026700080F087809C4240F28480A9F10209734473
:102680001B1BADB2B3FBF8F008FB103345EA034463
:1026900000FB0AFAA24508D91EEB040400F1FF333F
:1026A0006BD2A24569D90238744440EA0940A0FBC4
:1026B0000289A4EB0A044C45C2464B4654D351D080
:1026C000002E69D0B1EB0A0564EB030404FA0CFC9C
:1026D000FD40FC404CEA0505C6E90054002747E7E9
:1026E000C2F1200320FA03F7954001FA02F021FA23
:1026F00003F34FEA154E3843010CB3FBFEF71FFA04
:1027000085F80EFB173341EA034107FB08F38B42C0
:1027100004FA02F407D9691807F1FF3C2FD28B4263
:102720002DD9023F2944CB1A81B2B3FBFEF00EFB38
:10273000103341EA034100FB08F38B4207D96918C3
:1027400000F1FF3C17D28B4215D902382944C91A2F
:1027500040EA07473BE73746304609E70746E7E6E2
:102760001846FBE64145ABD2B8EB020A69EB0E0214
:1027700001381346A4E76046E9E7184695E767463F
:10278000D1E781467CE702382C4447E7ACF1020CE4
:102790002B442FE7384608E73746E9E6704700BF85
:1027A000034613F8012B002AFBD1181A0138704791
:1027B00001F0FF01102A2BDB10F0070F08D010F8F2
:1027C000013B013A8B422DD010F0070F42B3F6D1F6
:1027D000F0B441EA012141EA014122F007047FF00F
:1027E00000070023F0E80256083C85EA010586EA66
:1027F000010685FA47F5A3FA87F586FA47F6A5FAA2
:1028000087F68EB9EED1F0BC01F0FF0102F00702AD
:1028100032B110F8013B013A83EA010313B1F8D158
:102820000020704701387047002D06BF3546033839
:10283000073815F0010F07D1013015F4807F02BF72
:10284000013015F4C03F0130F0BC0138704700BFC3
:1028500010B49408DFED1E7A22E090ED007AD1EDFD
:10286000006A27EE267A77EE877A90ED017AD1ED2D
:10287000016A27EE267A77EE877A90ED027AD1ED1B
:10288000026A27EE267A77EE877A90ED037AD1ED09
:10289000036A27EE267A77EE877A013C10311030F2
:1028A000002CDAD102F003020AE090ED007AD1EDBB
:1028B000006A27EE267A77EE877A013A04310430EF
:1028C000002AF2D1C3ED007A5DF8044B704700BFD7
:1028D0000000000010B504460E4B18784FF47A73D0
:1028E000B3FBF0F30C4A1068B0FBF3F000F0AEF865
:1028F00068B90F2C01D901200AE0002221464FF0CF
:10290000FF3000F06FF8034B5C60002000E0012016
:1029100010BD00BF000000202003002008B50B4BB5
:102920001A6842F400721A601A6842F480621A60EF
:102930001A6842F480721A60032000F041F8002007
:10294000FFF7C8FF02F03AFA002008BD003C024041
:10295000034A1168034B1B780B441360704700BF98
:102960009C18002000000020014B1868704700BF31
:102970009C18002038B50446FFF7F6FF0546B4F171
:10298000FF3F02D0044B1B781C44FFF7EDFF401BB8
:10299000A042FAD338BD00BF0000002000487047B5
:1029A00000060701014B1868000C7047002004E086
:1029B000024B1868C0F30B00704700BF002004E012
:1029C000074AD36823F4E0631B041B0C000200F4E5
:1029D000E060184340F0BF6040F40030D0607047C2
:1029E00000ED00E030B4174BDB68C3F30223C3F102
:1029F0000704042C28BF04241D1D062D18D9033BF1
:102A00004FF0FF3505FA04F421EA0401994005FA74
:102A100003F322EA0303194300280BDB0901C9B2BF
:102A200000F1604000F5614080F8001330BC704751
:102A30000023E5E700F00F000901C9B2024B195469
:102A4000F4E700BF00ED00E014ED00E00138B0F164
:102A5000807F0AD2064B5860064AF02182F8231084
:102A60000020986007221A6070470120704700BF5D
:102A700010E000E000ED00E068B110B504464379D5
:102A80002BB10223637101236371002010BD037118
:102A900002F0B4F9F5E701207047000000230F2B86
:102AA00000F2C580F0B482B039E0042200E00022D8
:102AB000B2403A4302345E4E46F824205D4A146820
:102AC000EA4302EA04064F6817F4803F01D045EA62
:102AD0000406584C2660646802EA04064F6817F43E
:102AE000003F01D045EA0406524C6660A46802EA41
:102AF00004064F6817F4801F01D045EA04064D4CC8
:102B0000A660E46822404E6816F4001F01D045EA32
:102B10000402484CE26001330F2B00F28580012251
:102B20009A400C6804EA0205AA42F4D14C68022CCF
:102B300001D0122C10D1DE08083650F826C003F060
:102B40000704A7000F24BC402CEA040C0C69BC400D
:102B500044EA0C0440F8264004685F000326BE40A7
:102B6000F64306EA040C4C6804F00304BC4044EA53
:102B70000C0404604C6804F1FF3CBCF1010F03D964
:102B8000112C01D0122C10D1846806EA040CCC68F8
:102B9000BC4044EA0C048460446824EA02024C68A5
:102BA000C4F300149C4014434460C26816408A6811
:102BB000BA403243C2604A6812F0805FABD0002254
:102BC00001921D4A546C44F480445464526C02F4E3
:102BD00080420192019A9C08A61C154A52F8267060
:102BE00003F0030296000F22B24027EA0207134ABD
:102BF00090423FF45CAF02F5806290420ED002F545
:102C0000806290420CD002F5806290420AD002F5B8
:102C1000806290423FF449AF072249E7012247E72B
:102C2000022245E7032243E702B0F0BC7047704739
:102C300000380140003C01400038024000000240E2
:102C400012B909048161704781617047002800F062
:102C5000BE80F8B5044690F83D30002B6BD024239D
:102C600084F83D302268136823F00103136000F0FC
:102C7000A7FB6268584B9A4262D8584B98428CBF67
:102C800000230123002B40F0A480554BA3FB00231D
:102C90009B0C21684A6822F03F021A434A6025686B
:102CA0002A6A22F03F0266684B498E424ED80133B1
:102CB00013432B622568E96921F44F4121F0FF019C
:102CC0006368454A93424BD801385B00B0FBF3F38D
:102CD0000133C3F30B03042B38BF04230B43EB6115
:102CE00021680B6823F0C003E269206A02431343A2
:102CF0000B6021688B6823F4034323F0FF032269F0
:102D0000E068024313438B602168CB6823F0FF0324
:102D10006269A06902431343CB602268136843F0E1
:102D20000103136000202064202384F83D302063D9
:102D300084F83E00F8BD80F83C3002F077F88EE76A
:102D4000284B98428CBF002301239BE74FF49671D8
:102D500001FB03F32449A1FB03139B090133A7E7FC
:102D6000A268BAB9461E03EB4307B6FBF7F6013675
:102D7000C6F30B06B6FA86F6760936BBC2B9013839
:102D800003EB4303B0FBF3F30133C3F30B0242F451
:102D90000043A3E7461E03EB830707EB8707B6FB59
:102DA000F7F60136C6F30B06B6FA86F67609E4E7BF
:102DB000013803EB830303EB8303B0FBF3F201322F
:102DC000C2F30B0242F4404388E7012386E7012067
:102DD00070470120AEE700BFA08601007F841E007F
:102DE00083DE1B43FF083D00D34D6210002800F036
:102DF000BB8170B582B00446036813F0010F3BD06D
:102E0000A74B9B6803F00C03042B2CD0A44B9B68AE
:102E100003F00C03082B21D06368B3F5803F4FD03B
:102E2000B3F5A02F52D09E4B1A6822F480321A605C
:102E30001A6822F480221A606368002B50D0FFF7D2
:102E400093FD0546964B1B6813F4003F14D1FFF722
:102E50008BFD401B6428F5D903208AE1904B5B6809
:102E600013F4800FD8D08E4B1B6813F4003F03D0AF
:102E70006368002B00F07A81236813F0020F55D0AD
:102E8000874B9B6813F00C0F3ED0854B9B6803F07B
:102E90000C03082B33D0E368002B68D0814B012250
:102EA0001A60FFF761FD05467D4B1B6813F0020FAA
:102EB00054D1FFF759FD401B0228F5D9032058E1F2
:102EC000774A136843F480331360B5E7744B1A688C
:102ED00042F480221A601A6842F480321A60ABE72A
:102EE000FFF742FD05466E4B1B6813F4003FC3D04D
:102EF000FFF73AFD401B6428F5D9032039E1684B00
:102F00005B6813F4800FC6D1654B1B6813F0020F8A
:102F100004D0E368012B01D001202AE1604A136844
:102F200023F0F803216943EAC1031360236813F017
:102F3000080F40D0636963B35B4B01221A60FFF74F
:102F400013FD0546564B5B6F13F0020F33D1FFF7AD
:102F50000BFD401B0228F5D903200AE1504A1368F3
:102F600023F0F803216943EAC1031360DEE74D4B08
:102F700000221A60FFF7F8FC0546494B1B6813F066
:102F8000020FD3D0FFF7F0FC401B0228F5D9032035
:102F9000EFE0454B00221A60FFF7E6FC0546404B88
:102FA0005B6F13F0020F06D0FFF7DEFC401B022818
:102FB000F5D90320DDE0236813F0040F79D0384BF6
:102FC0001B6C13F0805F33D100230193344B1A6CD8
:102FD00042F080521A641B6C03F080530193019BF2
:102FE0000125324B1B6813F4807F23D0A368012B8B
:102FF00034D0052B38D02A4B1A6F22F001021A6701
:103000001A6F22F004021A67A368002B36D0FFF76C
:10301000ABFC0646224B1B6F13F0020F48D1FFF7A3
:10302000A3FC801B41F288339842F3D90320A0E02F
:103030000025D6E71D4A136843F480731360FFF739
:1030400093FC0646194B1B6813F4807FCED1FFF723
:103050008BFC801B0228F5D903208AE0104A136FED
:1030600043F001031367CFE70D4B1A6F42F00402E0
:103070001A671A6F42F001021A67C5E7FFF774FC7E
:103080000646074B1B6F13F0020F11D0FFF76CFCC5
:10309000801B41F288339842F3D9032069E000BFD6
:1030A0000038024000004742800E47420070004056
:1030B000E5B9A369002B5BD0304A926802F00C029C
:1030C000082A58D0022B17D02D4B00221A60FFF788
:1030D0004BFC0446294B1B6813F0007F42D0FFF7DE
:1030E00043FC001B0228F5D9032042E0234A136C5D
:1030F00023F080531364DCE7214B00221A60FFF7B2
:1031000033FC05461D4B1B6813F0007F06D0FFF70C
:103110002BFC401B0228F5D903202AE0E369226A30
:103120001343626A43EA8213A26A5208013A43EAED
:103130000243E26A43EA0263104A5360104B0122E1
:103140001A60FFF711FC04460C4B1B6813F0007F5C
:1031500006D1FFF709FC001B0228F5D9032008E07F
:10316000002006E0002004E001207047012000E07C
:10317000002002B070BD0120FBE700BF0038024014
:1031800060004742324B9B6803F00C03042B5CD079
:10319000082B01D02F4870472DE9F04B2C4B5A6873
:1031A00002F03F025B6813F4800F2BD0284B5B6862
:1031B000C3F388131E4600275C010025E41A65EB63
:1031C0000705A90141EA9461A001001B61EB05011B
:1031D000CB0043EA5073C400A01943EB07014B0234
:1031E00043EAD0534402204619460023FFF758F91A
:1031F000174B5B68C3F3014301335B00B0FBF3F093
:10320000BDE8F08B124B5B68C3F388131E460027A2
:103210005C010025E41A65EB0705A90141EA946108
:10322000A001001B61EB0501CB0043EA5073C40011
:10323000A01943EB07018B0243EA90538402204616
:1032400019460023FFF72CF9D2E70348704700BF67
:10325000003802400024F40000127A00002800F038
:103260009D8070B504464F4B1B6803F00F038B42E3
:1032700009D2CBB24B4A1370136803F00F038B4291
:1032800001D0012070BD236813F0020F17D013F096
:10329000040F04D0444A936843F4E05393602368D6
:1032A00013F0080F04D0404A936843F460439360DE
:1032B0003D4A936823F0F003A068034393600D46F2
:1032C000236813F0010F32D06368012B21D09A1EBE
:1032D000012A25D9344A126812F0020F60D032490F
:1032E0008A6822F0030213438B60FFF73DFB06461A
:1032F0002D4B9B6803F00C036268B3EB820F16D072
:10330000FFF732FB801B41F288339842F0D903204B
:10331000B8E7254A126812F4003FE0D10120B1E776
:10332000214A126812F0007FD9D10120AAE71D4B73
:103330001B6803F00F03AB4209D9EAB2194B1A70AC
:103340001B6803F00F03AB4201D001209AE723680A
:1033500013F0040F06D0144A936823F4E053E16895
:103360000B439360236813F0080F07D00E4A93684D
:1033700023F46043216943EAC1039360FFF702FF2E
:10338000094B9B68C3F30313084AD35CD840084B2E
:1033900018600020FFF79EFA002073E701207047B5
:1033A00001206FE7003C0240003802409082030891
:1033B00020030020014B1868704700BF2003002045
:1033C00008B5FFF7F7FF044B9B68C3F38223034A5A
:1033D000D35CD84008BD00BF00380240A08203087B
:1033E00008B5FFF7E7FF044B9B68C3F34233034A7A
:1033F000D35CD84008BD00BF00380240A08203085B
:103400002DE9F84304460268136923F44053C16868
:103410000B43136183680269134342691343C26912
:103420001A430168CB6823F4164323F00C031343BB
:10343000CB600268536923F4407381690B43536185
:10344000C369B3F5004F60D00368B84A934200F0F7
:10345000148102F58062934200F00F81FFF7B0FF04
:1034600000EB800000EB80006568AD00B0FBF5F577
:10347000AF4FA7FB05356D092E01FFF7A1FF00EB4C
:10348000800000EB80006568AD00B0FBF5F9FFF748
:1034900097FF00EB800000EB80006568AD00B0FB9B
:1034A000F5F5A7FB05356D094FF0640808FB159588
:1034B0002D013235A7FB05356D0905F0F0053544C2
:1034C000FFF77EFF00EB800000EB80006668B6002F
:1034D000B0FBF6F6FFF774FF00EB800000EB800016
:1034E00063689B00B0FBF3F0A7FB0030400908FBCA
:1034F00010684FEA081808F13208A7FB0837C7F32D
:10350000431723682F449F600DE10368874A934265
:103510005BD002F58062934257D0FFF751FF00EB7A
:10352000800000EB800065686D00B0FBF5F5804F12
:10353000A7FB05356D092E01FFF742FF00EB800068
:1035400000EB800065686D00B0FBF5F9FFF738FF10
:1035500000EB800000EB800065686D00B0FBF5F5C6
:10356000A7FB05356D094FF0640808FB1595ED00C4
:103570003235A7FB05356D096D0005F4F875354446
:10358000FFF71EFF00EB800000EB8000666876000E
:10359000B0FBF6F6FFF714FF00EB800000EB8000B5
:1035A00063685B00B0FBF3F3A7FB03235B0908FB35
:1035B00013684FEAC80808F13208A7FB0837C7F3B9
:1035C000421723682F449F60ADE0FFF709FF00EB2F
:1035D000800000EB800065686D00B0FBF5F5544F8E
:1035E000A7FB05356D092E01FFF7FAFE00EB800001
:1035F00000EB800065686D00B0FBF5F9FFF7F0FEA9
:1036000000EB800000EB800065686D00B0FBF5F515
:10361000A7FB05356D094FF0640808FB1595ED0013
:103620003235A7FB05356D096D0005F4F875354495
:10363000FFF7D6FE00EB800000EB800066687600A6
:10364000B0FBF6F6FFF7CCFE00EB800000EB80004D
:1036500063685B00B0FBF3F3A7FB03235B0908FB84
:1036600013684FEAC80808F13208A7FB0837C7F308
:10367000421723682F449F6055E0FFF7B1FE00EB2F
:10368000800000EB80006568AD00B0FBF5F5284FC9
:10369000A7FB05356D092E01FFF7A2FE00EB8000A8
:1036A00000EB80006568AD00B0FBF5F9FFF798FE10
:1036B00000EB800000EB80006568AD00B0FBF5F525
:1036C000A7FB05356D094FF0640808FB15952D0122
:1036D0003235A7FB05356D0905F0F0053544FFF7D8
:1036E0007FFE00EB800000EB80006668B600B0FB58
:1036F000F6F6FFF775FE00EB800000EB80006368D4
:103700009B00B0FBF3F0A7FB0030400908FB1068FA
:103710004FEA081808F13208A7FB0837C7F3431728
:1037200023682F449F60BDE8F88300BF001001406C
:103730001F85EB512DE9F04105460F461646984688
:10374000069C2B681B6837EA03030CBF0123002388
:10375000B3421DD1B4F1FF3FF3D02CB1FFF704F910
:10376000A0EB0800A042ECD92A68D36823F4D073F8
:10377000D3602A68536923F001035361202385F83D
:10378000393085F83A30002385F83830032000E0DE
:103790000020BDE8F08158B310B5044690F83930E8
:1037A0000BB3242384F839302268D36823F4005300
:1037B000D3602046FFF724FE2268136923F4904368
:1037C00013612268536923F02A0353612268D36886
:1037D00043F40053D3600020E063202384F83930A1
:1037E00084F83A3010BD80F8383001F059FBD8E742
:1037F000012070472DE9F04182B01E4690F8393023
:10380000DBB2202B55D104460D469046002955D0F9
:10381000002A55D090F83830012B53D0012380F87E
:1038200038300023C363212380F83930FFF79CF838
:103830000746A4F82480A4F8268010E000963B46B2
:10384000002280212046FFF775FF00283CD12B88FD
:103850002268C3F3080353602369C3B90235E38CBC
:103860009BB2B3B1E38C013B9BB2E384A368B3F595
:10387000805FE3D000963B46002280212046FFF780
:1038800059FF18BB2A7823685A600135E7E70135EC
:10389000E5E700963B46002240212046FFF74AFF1D
:1038A0000346A8B9202284F83920002284F8382061
:1038B00000E00223184602B0BDE8F0810123F9E7D9
:1038C0000123F7E70223F5E70323F3E70323F1E7F7
:1038D0000323EFE72DE9F04182B01E4690F83A301D
:1038E000DBB2202B5AD104460D469046002959D010
:1038F000002A59D090F83830012B57D0012380F896
:1039000038300023C363222380F83A30FFF72CF8C5
:103910000746A4F82C80A4F82E801DE000963B46B4
:10392000002220212046FFF705FF002840D123690F
:1039300033B923685B68C3F3080325F8023B0BE047
:1039400023685B68DBB225F8013B05E023685B6810
:1039500003F07F032B700135E38D9BB2BBB1E38D88
:10396000013B9BB2E385A368B3F5805FD6D0009698
:103970003B46002220212046FFF7DCFED0B9236918
:10398000002BE3D123685B682B700135E4E720232B
:1039900084F83A30002084F8380000E0022002B0B9
:1039A000BDE8F0810120FAE70120F8E70220F6E700
:1039B0000320F4E70320F2E700487047D4710008C1
:1039C000F0B5A1B00F46FCF7A2FC002F6CD0054665
:1039D00000286BD0364B0193364B0293364B039342
:1039E000364B0493FCF72DFC0590FCF742FC069047
:1039F000334B079303238DF820308DF821300026B8
:103A00008DF822608DF8236001248DF824408DF814
:103A100025408DF826608DF82760FCF744FC0A905D
:103A2000FCF75BFC0B90274B0C93ADF83440ADF8E2
:103A30003640ADF83840ADF83A40ADF83C40ADF80E
:103A40003E404FF4407310931196ADF84840ADF8E6
:103A50004A40ADF84C40ADF84E401494159616AC63
:103A600005F124030FCB84E80F001AAC05F1140311
:103A70000FCB84E80F001E966B681F93EB6B43B16E
:103A80001E9A01321E929A689A4202D01346002A68
:103A9000F5D17C2201A9384602F0F3FC1E980030D3
:103AA00018BF012021B0F0BD0020FBE70020F9E79E
:103AB000A8820308B4820308D8820308F4820308AA
:103AC0000C8303080104060008B5FCF745FC08BD9B
:103AD00000B583B00023019301230093024AFCF751
:103AE00063FC03B05DF804FB0800002008B5FCF798
:103AF00099FC08BD38B50D46FCF7B3FC002846D04C
:103B00000446EA68234B996C41F0004199641A65B8
:103B100002F540315965986D40F00040986540319C
:103B200019665966996E41F00041996602F5423175
:103B3000403119675967996F41F00041996702F563
:103B400044324032C3F88020C3F88420EA6903324B
:103B500022F00302A16841F40071A1600021C3F8C2
:103B60009010C3F89410C3F8A020C3F8A420C3F8A1
:103B7000B020C3F8B42002F50062C3F8C020C3F837
:103B8000C420C3F8D020C3F8D420012038BD0020C1
:103B9000FCE700BF0800002008B5FCF7ADFC08BD3D
:103BA00008B50022FCF7A8FC08BD000010B50F48BE
:103BB00002F0AAFD0024002C00DD10BDE3010C4A38
:103BC000D05888B100F006FF50B1E301084AD05840
:103BD00000F066FF030AC2B20649074802F00CFD76
:103BE000E301034A0021D1500134E4E714830308C0
:103BF000C003002034830308488303082DE9F04FF5
:103C00009DB00490C301A54AD3586BB3EFF314845D
:103C1000EFF3088ADFF8C0B2A04B93F880304BB3C3
:103C20009F4B1F683F019D4B049A03EBC2133A461A
:103C300059689C4802F0E0FC14F0020F1CD1ABEB79
:103C40000A030A93B3F5804F1FD801230593EFF3BE
:103C50001083069372B6059B3BB3ABF57F533D3B98
:103C600023F00303049D1DE08F4802F04DFD4FF04B
:103C7000FF3056E21027D6E78C4802F045FDABEB4B
:103C80000A030A9300230593E1E74FF480421946A3
:103C9000874802F0B1FC00230593D8E74FF0DE32ED
:103CA00043F8042B5345F9D304957C4C0023C4F806
:103CB0008430C4F88830C4F88C30C4F89030C4F82C
:103CC0009430049B04EBC31C14AE0CF138030FCBEF
:103CD00086E80F0010AE0CF148030FCB86E80F000A
:103CE0000123ADF8523004F198021792ADF842303A
:103CF00004F69843139394F880307BB900234FF077
:103D0000FF3203924FF000084FF000091E46CDF835
:103D100038A0DDF810A03D461F4659E0604B1968F9
:103D2000644802F069FC644B1B68986802F09AFAD8
:103D3000E4E702F015FD07EE900AF8EEE77A77EE79
:103D4000A77A9FED5E7A67EE877AB7EE007A77EE14
:103D5000C77A524B03EB8403C3ED267A0134BDF8D6
:103D60005420BDF8563003FB02F2169B03FB02F30E
:103D70009C42DED34948D0F8843043F00103C0F8B8
:103D800084304F4B00225A605C684FEACA1310AA75
:103D900014A9C05800F000FF01281DD1484B5B68F2
:103DA0001C1B3E4AD2F8843023F00103C2F8843051
:103DB000039BA34200D90394A74200D2274618EBE5
:103DC000040849F10009354B93F88030BBB1013646
:103DD000AE421DDA0024C2E7089609975346CDF893
:103DE00010A0DDF838A0DB012C4AD05800F058FEB6
:103DF000030AC2B23349344802F0FEFB0EE02E2023
:103E000002F012FC2C4B1B68986802F02BFADEE7DC
:103E100008960997CDF810A0DDF838A02B4802F0DD
:103E200073FCEFF308839A450FD1059B002B55D007
:103E30000A9BC3F58041ABF57F533D3B23F0030361
:103E400000221446089E049D08E0EFF308815246C4
:103E50001F4802F0D1FBE8E704330132072A05DCF2
:103E60001868B0F1DE3FF7D0059CF5E70896049599
:103E700074B9202001E0043304301A68B2F1DE3F47
:103E800001D15345F7D3089604950B1A0F9327E0F9
:103E9000104802F0B1FB00230F9321E0C003002083
:103EA0001C0300208C83030870830308D08303085D
:103EB0001084030838840308280300200000003021
:103EC000001000E0548403084883030804870308B3
:103ED00064840308A88403080080012000230F9352
:103EE000069B83F31088924802F00EFC089B19464B
:103EF000DA1713460A4640464946FEF7D1FA82468B
:103F00008B46FFF757FA05460246002350465946AE
:103F1000FEF7C6FA8046894659464B0151464C0188
:103F200043EADA61B4EB0A0661EB0B07BB0043EA34
:103F30009673B200CDE906AB1AEB02004BEB03011E
:103F4000CB0043EA5073C200104619462A460023AC
:103F5000FEF7A6FA82468B46DDE90667790141EA5B
:103F6000D663A61B63EB0707790241EAD6517002BC
:103F7000DDE9062312184B41990141EA9261900153
:103F8000861A61EB03070E952A460023DDE9060138
:103F900080197941FEF784FA4B465C014FEA481CD0
:103FA00044EAD863BCEB080463EB09052246AC0085
:103FB00044EA92749700234618EB070449EB030583
:103FC0002246EC0044EA5274D700BAEB070A6BEBC6
:103FD000040B54465D464FEA441ABAEB04029200C1
:103FE000CDE90A4523469B189A464FEACA029246F3
:103FF0004B465C0144EAD863BCEB080463EB09055B
:1040000022466C0244EAD2545702234618EB0704B6
:1040100049EB03052E462546CDE90C56DDE90C5645
:104020002C46AA01141B22464746BC1814EB0A046E
:10403000041B0E99189119970A991A911B943D4CDB
:10404000049904EBC1146768FFF79CF80546FFF775
:10405000B1F9394AA2FB0513216B0191A2FB0012B1
:10406000920C00929B0C089A3946344802F0C4FA2C
:104070001B9A19991A9B4FF47A7000FB0131304852
:1040800002F0BAFA099BDDE90678DB1B039A394690
:10409000BA1A2C4802F0B0FAFA1948EB0803BD1816
:1040A00048EB0306710141EAD56168012A1846EB25
:1040B0000103BF1848EB0308C146189A002338468D
:1040C0004946FEF7EDF9252201461F4802F094FA11
:1040D000226B002338464946FEF7E2F91B49A1FB53
:1040E00000314909642202FB1102194802F084FAE6
:1040F000059BCBB10F99174802F07EFA0D48D0F816
:104100008440D0F89430D0F88820D0F89010C4F3D0
:1041100041040194D0F88C0000900F4802F06CFA32
:1041200000201DB0BDE8F08F0C4802F0EDFAE5E785
:1041300004870308C003002083DE1B43CC840308EC
:10414000148503083C8503086C8503081F85EB5123
:1041500084850308BC850308F8850308D88503080F
:1041600080B110B50C460146002C0EDD1346A2B2FC
:104170000948FFF7AFFB03280AD008B1002010BDA3
:104180002046FCE74FF0FF3070474FF0FF30F6E776
:104190004FF0FF30F3E700BFFC18002000B583B0FC
:1041A00002A8002300F8013D41F288320121FFF707
:1041B000D7FFB0F1FF3F1BD09DF80730712B1BD00C
:1041C000512B1BD0722B1BD0522B1BD0682B1BD01A
:1041D000482B1BD03F2B1BD0702B1BD0502B1BD040
:1041E000782B1BD0582B01D0642002E0052000E082
:1041F000002003B05DF804FB0120FAE70120F8E796
:104200000220F6E70220F4E70320F2E70320F0E7BC
:104210000320EEE70420ECE70420EAE70520E8E7C6
:1042200070B58CB004460E460146794802F0E4F9B8
:104230000022784901EBC611204600F05DFB10F02A
:10424000FF026CD1734AF301D5182C1D2146D058BA
:1042500000F0FEFB002800F0B5806F4802F054FA31
:1042600069686E4802F0C8F961686D4802F0C4F9E7
:10427000A1686C4802F0C0F9E1686B4802F0BCF933
:10428000227D637DA17D00912169684802F0B4F927
:10429000227F637FA17F0091A169654802F0ACF99C
:1042A000644802F031FAA16F634802F0A5F9616F2A
:1042B000624802F0A1F9E16A614802F09DF9B4F8A0
:1042C0005810B4F85A3003FB01F3E16D01FB03F120
:1042D0005C4802F091F9B4F86810B4F86A3003FB56
:1042E00001F3E16E01FB03F1574802F085F9628E9C
:1042F000218E564802F080F9228F638FE56B03FB15
:1043000002F101FB05F1A08E98B101282FD01028F1
:104310002FD032282FD0312809D04D480AE0030A87
:104320004C494D4802F068F94FF0FF3042E04B48ED
:1043300000E04B480290019100954A494A4802F03A
:104340005BF9B4F84820B4F84A30E56C03FB02F19D
:1043500001FB05F1B4F8440088B101282CD01028E5
:104360002CD032282CD0312807D0394808E03F48DB
:10437000E0E73F48DEE73F48DCE7384800E0384800
:104380000290019100953C49374802F035F93B48CD
:1043900002F0BAF904AC3A4D0FCD0FC495E80F0006
:1043A00084E80F00F30104A91A4AD05800F0A6FBD4
:1043B000D8B100200CB070BD2C48E1E72C48DFE7F5
:1043C0002C48DDE7134CF601A05900F069FB030A05
:1043D000C2B22C49204802F00FF9A05900F0FAFAB5
:1043E0000023A3516FF00100E4E70A4CF601A05945
:1043F00000F056FB030AC2B22349174802F0FCF84A
:10440000A05900F0E7FA0023A3516FF00300D1E7B1
:10441000B8860308C0030020EC8603080887030859
:1044200024870308408703085C870308788703080C
:10443000A0870308C8870308DC870308FC870308F4
:10444000188803083C8803086088030884880308E8
:10445000B0860308D8860308488303089C860308AF
:1044600040860308A4880308BC880308588603080C
:104470007086030884860308E4880308FC88030820
:1044800028820308188903083089030838B50023F7
:104490001A4601210E4802F0AFF8002401E0013471
:1044A0009DB12146002000F0EDF905460028F6D028
:1044B0000146084802F0A0F821462846FFF7B0FE62
:1044C0000028ECD04FF0FF3000E0002038BD00BFE6
:1044D000448903087489030810B5141E03DA0128FF
:1044E00001D0022808D14FF0FF33A2B20748FFF7EE
:1044F00081F940B1002010BD01F0FEFD09230360E9
:104500004FF0FF30F7E72046F5E700BFFC1800202A
:1045100070B584B0644802F0F7F8012302226349C1
:10452000634802F069F8634802F0EEF801230322C1
:104530000721614802F060F8604AD36843F0807355
:10454000D3605F4A00235360136843F4003343F0A1
:10455000010313605B4B1B6B13F4805F4AD0002395
:104560000393584B1A6B42F480521A631B6B03F48B
:1045700080530393039B544B1C68544802F0C4F8C7
:10458000FEF716FA0546FEF713FA80B2A0F21540C0
:104590005B2845D8DFE800F03C44444444444444AC
:1045A00044444444443244444444444444444444DD
:1045B00044444444364444443844444644444444D3
:1045C00044444444444444444434444440444444BF
:1045D000444444424444444444444444444444449D
:1045E00044444444443A4444444444444444444495
:1045F0004444443E364802F087F8B0E7354E12E0B6
:10460000354E10E0354E0EE0354E0CE0354E0AE0EA
:10461000354E08E0354E06E0354E04E0354E02E0FA
:10462000354E00E0354EFEF7BDF9034632462946C9
:10463000334801F0E1FF334B334A0421334801F0A2
:10464000DBFFFEF7ABF90146314801F0D5FFFEF77D
:10465000B1FE3049A1FB0031890C2F4801F0CCFF9D
:1046600014F4807F1AD02D4A14F4007F18D02B4BFD
:1046700014F4806F16D12A4904F00F0001900091C4
:104680002146284801F0B8FFFFF700FF032002F0A1
:1046900043F800200A4B586004B070BD204AE3E79D
:1046A0001F4BE5E71D49E7E7348A03083C8A030806
:1046B000608A0308708A0308748A0308F0ED00E03A
:1046C000001000E000380240003C0240B48A0308B9
:1046D000948A03088C890308AC890308BC89030801
:1046E000CC890308D8890308E4890308F089030802
:1046F000FC890308088A0308B08603089C8903081C
:10470000D48A0308088B0308148B0308208B030842
:10471000408B030883DE1B435C8B0308248A030859
:104720002C8A0308788B030838B533E0434D2846BC
:1047300001F0EAFF424801F0E7FF424801F0E4FFE0
:10474000414801F0E1FF414801F0DEFF404801F03F
:10475000DBFF404801F0D8FF284601F0D5FF3E4876
:1047600001F0D2FF03E04FF47A70FEF703F9FFF790
:1047700015FD03460028F6D0642818D1234600E032
:104780002346022B1FD0012B2DD0042B43D01C46D7
:10479000002C50D10020FFF731FA04460028F7D151
:1047A000FFF7FCFC03466428EAD00328BED0052BA3
:1047B000E7D12A4B012283F88020294A13685B0045
:1047C00013602346DFE7254B002283F88020244B2B
:1047D00005221A60194801F097FFFFF7E7F9FFF784
:1047E00097FE2346D1E71D4B002283F88020134C0F
:1047F000204601F089FFEFF3108372B6FFF7D6F978
:10480000204601F081FF174801F07EFF4FF47A70D7
:10481000FEF7B0F8FAE7094801F076FF0E4801F01C
:1048200073FF03E04FF47A70FEF7A4F8FFF7B6FCCD
:104830000028F7D0ACE7204638BD00BF0487030846
:10484000BC8B0308E88B03080C8C03083C8C030822
:10485000508C0308708C0308948C0308C00300205C
:104860001C030020B48C030808B500F091FAFFF790
:104870004FFE08BD08B5FFF757FF4FF47A70FEF7FB
:1048800079F808BD2DE9F04106460D460024002CBC
:1048900002DD0020BDE8F08104EBC403DA00CEB1F4
:1048A000144B9F583846FDF77BFF80463046FDF796
:1048B00077FF804506D0002383B96B1EA5B1013474
:1048C0001D46E4E742463146384601F0D0FF18B1B4
:1048D0000023F1E70023EFE70123EDE704EBC40435
:1048E000E300044AD058D5E704EBC404E300014ACE
:1048F000D058CFE7488203082DE9F84F0023002B5A
:104900000ADD0024C4BB0020312363F30700102319
:1049100063F31F20BDE8F88F03EB83042B4D55F89C
:1049200034400CB10133EAE703EB830305EBC30426
:10493000E8E7274A08EBC803DB0002EB0309BDB137
:1049400052F803A05046FDF72BFF83462846FDF79B
:1049500027FF834504D00023C3B908F1010810E004
:104960005A462946504601F082FF18B10023F3E76A
:104970000023F1E70123EFE717460E4605464FF007
:104980000008B8F1000FD4DD4FF00009B9F1000FB5
:104990000DD0A7B1D9F830303946304698470028B5
:1049A000B8D1C4F80090336863603460B2E7002087
:1049B000142363F30700102363F31F20AAE7D9F839
:1049C0003030D9F8241030469847E8E764180020C2
:1049D0004882030838B504460023002B03DD002578
:1049E000DDB9204638BD34B103EB8302D100174A4C
:1049F0000A4494420FD00CB10133EEE703EB83017C
:104A0000CA0012498A58002AF6D103EB8303DA0060
:104A10000D461544E4E72546E2E72B689B6B686882
:104A200098476B688342DCD00023002B01DD002413
:104A3000D7E703EB8302D100044A0A44954201D030
:104A40000133F2E70024014B5C50CAE764180020F0
:104A500010B50023002B06DD0020E0B10368DB6AFF
:104A60004068984710BD30B103EB8302D4000B4A75
:104A700022449042F1D008B10133EBE703EB830409
:104A8000E200064CA258002AF6D103EB8303DA00B9
:104A900020461044E1E70020E4E700BF641800204E
:104AA00010B50022142363F30702102363F31F22BF
:104AB0000023002B06DD0020D8B103685B6B406843
:104AC000984710BD30B103EB83010B4C04EBC101DF
:104AD0008842F1D008B10133EBE703EB8301064CC8
:104AE00054F831100029F6D103EB830304EBC30023
:104AF000E2E71046E5E700BF64180020F0B589B092
:104B000005460F460023002B20DD0025002D3ED05A
:104B10002C686E4604340FCC0FC694E80F0086E86C
:104B20000F007B8A53B307F110030FCB08AC04E9E5
:104B30000F007B882BBB2B689B6A984703902B68E0
:104B4000DB6B69466868984709B0F0BD35B103EB87
:104B50008302D1000F4A0A449542D7D00DB10133E8
:104B6000D1E703EB8301CA000A498A58002AF6D12B
:104B700003EB8303DA000D461544C7E7FB6907938F
:104B8000D7E76C4697E80F0084E80F00D7E70020CE
:104B9000DAE700BF6418002038B50023002B06DDDB
:104BA0000020D8B103681B6C4068984738BD30B10D
:104BB00003EB8304E5000A4C2C44A042F1D008B179
:104BC0000133EBE703EB8305EC00054D2C59002C7A
:104BD000F6D103EB8303D8002844E2E70020E5E7A1
:104BE0006418002030B58BB0002405940694079417
:104BF000089409940194224B1A6B42F004021A6340
:104C00001A6B02F004020192019A02941A6B42F0AC
:104C100080021A631A6B02F080020292029A0394D5
:104C20001A6B42F001021A631A6B02F0010203923E
:104C3000039A04941A6B42F002021A631B6B03F08E
:104C400002030493049B0F4D224620212846FDF7C2
:104C5000F7FF4FF4005305930B4B0693079405A9F8
:104C60000A48FDF71BFF20230593012306930794B1
:104C7000089405A92846FDF711FF0BB030BD00BF11
:104C800000380240000002400000211000080240ED
:104C900008B50348034B0360FDF7EEFE08BD00BFF7
:104CA000F41800200030024008B50948094B0360A1
:104CB000094B436000238360C3604FF4804202616C
:104CC00043618361C3610362FDF7C0FF08BD00BF9C
:104CD000A018002000540040A086010030B595B017
:104CE0003022002108A801F0D7FB0024039404948B
:104CF00005940694079401941B4B1A6C42F0805261
:104D00001A641B6C03F080530193019B0294174AB1
:104D1000136823F4404343F400431360136803F41F
:104D200040430293029B0225089501230B93102315
:104D30000C930E950F9410934FF4A87311930423C2
:104D400012930723139308A8FEF750F80F23039339
:104D5000049505944FF4805306930794294603A8BD
:104D6000FEF77CFA15B030BD0038024000700040FC
:104D700008B5FDF7D3FDFFF7B1FFFFF733FFFFF7EE
:104D800087FFFFF791FFFFF76FFDFFF773FDFCE76C
:104D900008B50848084B03604FF4E1334360002333
:104DA0008360C36003610C2242618361C361FEF7CB
:104DB000F2FC08BDFC1800200044004000B583B0A0
:104DC000002100910C4B5A6C42F480425A645A6C98
:104DD00002F480420092009A01911A6C42F08052D3
:104DE0001A641B6C03F080530193019B0720FDF7AD
:104DF000E7FD03B05DF804FB003802400268094B90
:104E00009A4200D0704782B000230193064B1A6B80
:104E100042F480521A631B6B03F480530193019B8D
:104E200002B07047003002400038024030B589B00F
:104E30000023039304930593069307930268154B8D
:104E40009A4201D009B030BD00250195124C236B68
:104E500043F002032363236B03F002030193019BDE
:104E6000C023039312230493012305930323069382
:104E70000423079303A90948FDF710FE0295236C4C
:104E800043F400132364236C03F400130293029B86
:104E9000D8E700BF00540040003802400004024040
:104EA00000B589B0002303930493059306930793F9
:104EB0000268144B9A4202D009B05DF804FB00214D
:104EC000019103F5FA331A6C42F400321A641A6C39
:104ED00002F400320192019A02911A6B42F001022F
:104EE0001A631B6B03F001030293029B0C230393D1
:104EF000022304930723079303A90348FDF7CEFD7C
:104F0000DAE700BF00440040000002407047FEE7BF
:104F1000FEE7FEE7FEE770477047704708B5FDF70C
:104F200017FD08BD70B50D461646002404E0AFF32A
:104F30000080287001340135B442F8DB304670BD82
:104F400008B503460B4A126842B10A4A1068034486
:104F50006A46934206D8074A136008BD054A0649C7
:104F60001160F2E701F0C8F80C2303604FF0FF3046
:104F7000F3E700BF8C180020401900204FF0FF30ED
:104F800070474FF400534B6000207047012070477A
:104F9000002070470F49D1F8883043F47003C1F8FE
:104FA00088300D4B1A6842F001021A6000209860A8
:104FB0001A6822F0847222F480321A60074A5A601A
:104FC0001A6822F480221A60D8604FF000638B6068
:104FD000704700BF00ED00E00038024010300024B0
:104FE000DFF834D0002103E00C4B5B584350043110
:104FF0000B480C4B42189A42F6D30B4A02E00023AE
:1050000042F8043B094B9A42F9D3FFF7C3FF01F082
:1050100005FAFFF7ADFE704700800120B88D030848
:10502000000000208C0300208C0300204019002089
:10503000FEE7000010B582B08DED010A019C24F05E
:105040000043B3F1FF4F0DDBF7EE007AB0EE407A8C
:1050500087EE870A002CACBF30EE270A30EE670AD5
:1050600002B010BD1E4A934207DDB7EE000A002CC5
:10507000B8BFB1EE400A02B010BDB3F1105F13DB50
:10508000B3F17E5F1ADB00F049FF30EE000A00F05A
:105090000BFEB0EE007A70EE076AF7EE007A87EE4C
:1050A000260A37EEC00AE2E7DDED017AB7EE000A24
:1050B00037EE800A20EE270A02B010BD00F02EFF66
:1050C000F8EE007A20EE270A00F0EEFDB0EE007A4E
:1050D00030EE077AF1EE407A87EE870AC7E700BF25
:1050E000FFFFAF41D0B52DED028B374C8AB0F0EE0B
:1050F000408A00F007FA94F900300133B0EE408A9C
:105100003AD0B0EE680A00F011FF002834D0DFED8D
:105110002F7AF4EEE78AF1EE10FA33DCDFED2C7A29
:10512000F4EEE78AF1EE10FA26D50423294A00931B
:1051300018EE900A002308930192FDF709F994F9FB
:10514000003000260027022BCDE90401CDE9020141
:10515000CDE9066733D0684600F0A4FD00282ED0C4
:10516000089B1BB100F0C8FF089B0360DDE9060146
:10517000FDF746F908EE100AB0EE480A0AB0BDEC99
:10518000028BD0BD0323134A009318EE900A00232C
:1051900008930192FDF7DCF894F90030CDE90401A1
:1051A000CDE902012BB90C4B4FF06042CDE906234B
:1051B000D1E70A490020022BCDE90601CBD100F04E
:1051C0009BFF22230360CBE7240300208071B142C0
:1051D000B5F1CFC2E08C0308FFFFEF470000F07F7E
:1051E0002DE9F0432DED048BB14D8BB0F0EE408AEC
:1051F000B0EE608A00F060FA95F90040631CB0EEF2
:10520000409A30D0B4EE488AF1EE10FA2BD6F4EE84
:10521000688AF1EE10FA67D6DFEDA69AF4EE698A95
:10522000F1EE10FA26D1B4EE698AF1EE10FA40F0F0
:1052300091800123A04A009318EE900A0023019266
:105240000893FDF785F8CDE9020118EE100AFDF785
:105250007FF800220023CDE90401CDE90623002CCC
:105260005FD0B7EE009AB0EE490A0BB0BDEC048BEC
:10527000BDE8F08300F05AFE0446002800F09A8052
:10528000B5EE409AF1EE10FAEDD1B0EE680A00F0FA
:105290004DFE0028E7D0B0EE480A00F047FE002897
:1052A000E1D00423844A009318EE900A0023089367
:1052B0000192FDF74DF8CDE9020118EE100AFDF755
:1052C00047F895F9003000260027022BCDE90401AC
:1052D000CDE9066703D0684600F0E4FC38BB00F077
:1052E0000BFF2223036022E0B5EE408AF1EE10FAB4
:1052F000B9D10123704A009318EE900A002301925D
:105300000893FDF725F8CDE9020118EE100AFDF724
:105310001FF86A4B0022022CCDE90401CDE90623D7
:105320009FD0684600F0BEFC002800F08480089BF7
:105330001BB100F0E1FE089B0360DDE90601FDF70B
:105340005FF809EE100AB0EE490A0BB0BDEC048B11
:10535000BDE8F083B0EE480A00F0E8FD002882D0F6
:10536000B5EEC08AF1EE10FA7FF57DAF0123524A07
:10537000009318EE900A002308930192FCF7E8FFCF
:10538000CDE9020118EE100AFCF7E2FF95F90030B2
:10539000CDE90401002B53D049490020022BCDE96F
:1053A000060151D100F0A8FE21230360089B002BC9
:1053B000C3D0BEE7B0EE680A00F0B8FD00283FF4A5
:1053C0005FAFB0EE480A00F0B1FD00283FF458AFDF
:1053D00018EE900AFCF7BCFF804618EE100A8946CA
:1053E000FCF7B6FFB4EE499AF1EE10FA95F90060B9
:1053F0006ED6F6EE007A03222F4B08940092CDE988
:105400000289CDE90401019328EE278A16BB2D4BB2
:10541000F5EEC08A4FF06042F1EE10FACDE90623B6
:1054200024D4684600F03EFC0028BFD100F064FEA2
:1054300022230360BAE700F05FFE2123036076E7D2
:1054400000220023CDE90623684600F02BFC00284B
:10545000ACD1A7E71C4BF5EEC08A0022F1EE10FAA2
:10546000CDE9062313D4022EE0D0DAE7B0EE480AE5
:1054700000F06CFDB4EE480AF1EE10FA14D0134BB4
:1054800095F900604FF06042CDE90623EBE7B0EEFE
:10549000480A00F05BFDB4EE480AF1EE10FA03D0C2
:1054A000074B0022CDE9062395F90060DBE700BF3A
:1054B0002403002000000000E88C03080000F03FF7
:1054C0000000F0FFFFFFEF470000F07FFFFFEFC796
:1054D00001220B4B08940092CDE90289CDE9040129
:1054E0000193002EACD0C9EEA97A17EE900AFCF712
:1054F0002FFF022ECDE906013FF454AFA4E700BF11
:10550000E88C030810EE103A23F00042B2F1FF4F8E
:105510002AD84FEAD3712AD0554883422EDC002B7B
:105520006FDB544B9A422ED9534B9A4240F28A80F9
:10553000524B9FED537A9FED536ADFED536A03EBB5
:105540008101D1ED007AE0EE077AF0EE404AFDEEFF
:10555000E77AB8EEE77A17EE901AE7EE464A27EEBA
:10556000267A34EEC70A12E030EE000A7047DFED0B
:10557000477A002918BFB0EE670A70479FED440ACA
:1055800020EE000A7047B2F1465F4DD3002160EE75
:10559000007A9FED404A9FED405ADFED405A9FED63
:1055A000406ADFED406AA7EE845AE5EE275AA5EE81
:1055B000A76AE6EE276AB0EE406AA6EEE76AF0EE6A
:1055C000467A20EE066A11B3F0EE006A76EEE77ACC
:1055D000B7EE000AC6EE276A11F17D0F37EE667A44
:1055E00037EE647A30EE470A3BDA10EE103A643157
:1055F00003EBC153DFED2C7A00EE103A20EE270AC0
:1056000070472A4B9A428CD99FED200A7047B0EE22
:10561000007A77EEC77AF7EE006A86EE277A37EEE1
:10562000400A36EEC00A7047DFED197A70EE277A2D
:10563000F7EE006AF4EEE67AF1EE10FAA6DD30EE4F
:10564000260A70471A4B1B4A8800034493ED007AE0
:105650000244C1F1010370EE474A591A92ED007AF3
:105660007FE710EE103A03EBC15300EE103A70479B
:105670001772B1421872B13E9115853FF08C030844
:105680003BAAB83F8071313FD1F7173700000000C7
:10569000CAF249714CBB31330EEADDB555B38A38D5
:1056A000610B36BBABAA2A3E0000800DB5F1CF429C
:1056B000F88C0308008D03082DE9F0472DED028BCF
:1056C00010EE903A82B033F000468DED010A14D00E
:1056D000DDF8048028F00047B7F1FF4F07DD5A4896
:1056E00002B0BDEC028BBDE8F04700F029BCB6F17A
:1056F000FF4F09DDB7F17E5FF1D1B7EE000A02B0CE
:10570000BDEC028BBDE8F087B8F1000F10EE904AB7
:105710002ADB4FF00009B6F1FF4F37D0B6F17E5FBC
:105720003DD0B4F1804F1AD0019DB4F17C5F9A4610
:1057300000EE105A3BD1B8F1000F6CDA00F0EEFB2E
:10574000B7F1FF4F00D0C7BBA7F17E5757EA090357
:1057500068D0B9F1010FD2D1B1EE400ACFE7DDED4B
:10576000017A27EEA70ACAE7B6F1974F1CDAB6F11D
:105770007E5F08DBF215C2F1960246FA02F101FAE9
:1057800002F2B24253D04FF00009C7E7B7F17E5F93
:10579000B3D032DD002C23DB00EE103AAFE7002C53
:1057A00032DB9DED010AAAE74FF00209B3E700F0F2
:1057B000B5FBB7F1FF4F16D0AFB1B7F17E5F12D096
:1057C0004FEAD873013B59EA030235D0B6F19A4F3C
:1057D00042DD1E4A974200F39481002CC0F297816B
:1057E0009FED1B0A8BE7002CBCBFF7EE007A87EE1B
:1057F000800AB8F1000F82DAA6E7002CF0DA07EE93
:10580000903AB1EE670A7AE79DED017AF7EE007AF9
:1058100087EE870A73E702B0BDEC028BBDE8F04764
:1058200000F03CBA70EE407A87EEA70A67E701F015
:105830000101C1F1020971E707EE905A77EEE77AAC
:1058400087EEA70A5BE700BFB8850308F7FF7F3F35
:10585000000000000000804BB7F5000F80F2478188
:105860005FED047A60EE277A6FF0170217EE907AF8
:10587000EA48F915C7F316077F398742114447F004
:105880007E5240F33681E648874240F3B3819FED74
:10589000E55A0131A2F50002F0EE453A0020F7EE9C
:1058A000006A04EE902A74EEA67AB7EE007A87EECC
:1058B000278A521042F0005202F58022024434EE50
:1058C000E67ADFEDD98A9FEDD92A9FEDD90ADFED7F
:1058D000D90A9FEDD91ADFEDD91ADFEDD92A9FED4C
:1058E000D93A27EE084A07EE902A24EE046AD64AEF
:1058F000A6EE282A14EE100A104005EE900AA2EE39
:10590000060AB1EE652A77EEE66AA2EE277AF0EE95
:10591000607AE0EE067A74EEE64AF0EE476AB0EEA0
:10592000417AA7EE867AE2EE246AE7EE061A66EE80
:10593000886A75EE847A26EE066A67EEA67AF0EE3D
:10594000084AE6EE217AB0EE646AA5EEA56A07EE93
:10595000101A36EE276ADFEDBD1A16EE101A114046
:1059600006EE101A76EE644AB8EEC77AE2EE254AE1
:1059700077EEE47A67EE847AE6EE267AF0EE676AEE
:10598000E5EE866A16EE901A114006EE901AE2EEE7
:10599000066A05EE901A77EEE67A67EEA27AE5EEF1
:1059A000837A77EEA37AF0EE676AE5EEA16A76EE87
:1059B000856A76EE876A16EE901A114006EE901A06
:1059C00036EEC77A37EE457AA5EEE17A77EEC77AFA
:1059D00024F47F6424F00F0407EE10AA06EE104AA8
:1059E00067EE877A37EE466A07EE104AE6EE267AC9
:1059F00009F1FF3959EA030326EE877ABFEE000A60
:105A000077EE876AB7EE006A16EE901A14BFB0EE12
:105A1000468AB0EE408A002921F0004340F38E8090
:105A2000B3F1864F00F3838076D0B3F17C5F00F34F
:105A30009180002016EE903A23F47F6323F00F0349
:105A400006EE903A9FED826ADFED825A9FED823A30
:105A5000DFED823A9FED822A9FED824ADFED824A96
:105A60009FED825A36EEC77AF0EE002A77EEC77ABB
:105A700026EE867AA7EEA57AF7EE005AF0EE477A80
:105A8000A6EE837A27EE076AF0EE471AE6EEC31A0F
:105A9000F0EE636AE6EE026A77EEE17AA6EE864AF7
:105AA000E7EE277AE4EE064AA4EE865AF0EE456A5F
:105AB000B0EE475AA6EEC65AF0EE456A36EEE26AF6
:105AC00027EE055AC5EE066A76EEE77A37EEC77A14
:105AD00035EEC70A10EE103A03EBC053B3F5000FD2
